:020000040800F2
:1000000000C00020D10200081503000815030008F5
:1000100015030008910A00081503000800000000FD
:1000200000000000000000000000000015030008B0
:10003000150300080000000015030008750A0008F9
:100040001503000815030008150300081503000830
:100050001503000815030008150300081503000820
:100060001503000815030008150300081503000810
:100070001503000815030008150300081503000800
:1000800015030008150300081503000815030008F0
:1000900015030008150300081503000815030008E0
:1000A00015030008150300081503000815030008D0
:1000B00015030008150300081503000815030008C0
:1000C00015030008150300081503000815030008B0
:1000D00015030008150300081503000815030008A0
:1000E0001503000815030008150300081503000890
:1000F0001503000815030008150300081503000880
:10010000150300081503000815030008150300086F
:10011000150300081503000815030008150300085F
:10012000150300081503000815030008150300084F
:1001300000000000000000000000000000000000BF
:1001400000000000000000000000000000000000AF
:10015000000000000000000000000000000000009F
:10016000000000000000000000000000000000008F
:10017000000000000000000000000000000000007F
:10018000000000000000000000000000000000006F
:10019000000000000000000000000000000000005F
:1001A000000000000000000000000000000000004F
:1001B000000000000000000000000000000000003F
:1001C000000000000000000000000000000000002F
:1001D000000000000000000000000000000000001F
:0401E0005FF8E0F1F3
:1001E400844641EA000313F0030349D1403A23D380
:1001F4000B6803604B6843608B688360CB68C360A3
:100204000B6903614B6943618B698361CB69C3618A
:100214000B6A03624B6A43628B6A8362CB6AC36272
:100224000B6B03634B6B43638B6B8363CB6BC3635A
:1002340040304031403ADBD230320BD30B6803609C
:100244004B6843608B688360CB68C36010301031A7
:10025400103AF3D20C3205D351F8043B40F8043B76
:10026400043AF9D2043208D0D2071CBF11F8013B7A
:1002740000F8013B01D30B8803806046704700BF40
:10028400082A13D38B07B1D010F00303AED0C3F107
:100294000403D21ADB071CBF11F8013B00F8013B31
:1002A400A4D331F8023B20F8023B9FE7043AD9D3A8
:1002B400013A11F8013B00F8013BF9D20B780370C5
:1002C4004B7843708B78837060467047002103E05D
:1002D4000A4B5B584350043109480A4B42189A426E
:1002E400F6D3094A02E0002342F8043B074B9A4242
:1002F400F9D300F079FB00F08DFB70474416000839
:10030400000000203004002030040020E408002015
:10031400FEE700002DE9FF470D4620F00100DFF85D
:100324005080DFF8509084B215B904B0BDE8F0876E
:100334000F2D94BF2E4610262146404600F09AFD0C
:1003440032466946204600F0ADF9EA4600274846A1
:100354001AF8011B013700F08DFDBE42F7DC0A20BC
:100364003444AD1B00F070FCA4B2ADB2DCE700BFB6
:10037400341300083E1300082DE9F04F0C46994A47
:100384000346918810689279ABB07F2C0090ADF849
:1003940004108DF8062000F39480194624EAE472D0
:1003A4000AA8FFF71DFF0AABC4F180020021181947
:1003B40000F062FE00208C4D0AAAA0421ADB6946B6
:1003C4000AA800F0CDFE0025044602AEF4B9002DC3
:1003D40077D000F03FFA029E05468449304600F08B
:1003E4009DFEE0B9824B186800F048FC0A2000F03A
:1003F4002BFC66E01378595D11F0030103D0022948
:1004040008BF203B137001300132D6E746F8044B95
:100414006946002000F0A4FE01350446D6E73046C4
:10042400744900F07BFE002857D1039D7249284689
:1004340000F074FE30B900F0A3F901466F4800F0F3
:1004440019FDD3E728466E4900F068FE78B91022FA
:100454002146049800F05EFF214605460A220598CD
:1004640000F058FF81B2A8B2FFF754FFBEE7284658
:10047400644900F053FE20B900F082F90146204699
:10048400F2E72846604900F049FE18B900F084F903
:100494005E4884E028465E4900F040FE0028A5D16D
:1004A40021461022049800F035FF214685B210221F
:1004B400059800F02FFFE907044605D5554800F0DC
:1004C400D9FC2BB0BDE8F08F00F05AF98542F5D87D
:1004D4002846A1B200F028F9DAE73046484900F08E
:1004E4001DFEA0BB10222146039800F013FF0A2230
:1004F40006462146049800F00DFF0546DFF81881F2
:10050400DFF81891002D7FF771AF042DAA464FF044
:100514000007A8BF4FF0040AD6F800B0220703D1A1
:100524003146404600F0A6FCF9002BFA01F148469A
:10053400C9B2013400F09EFC230702D10A2000F066
:1005440083FB01375745E9DB0436043DDAE73046DF
:10055400334900F0E3FDB8B9AA8869880223314819
:1005640000F088FC29882B694A1E48BF01F2FE323C
:1005740092122D489B0A013200F07CFCD5E902124C
:100584002A4800F077FC31E73046294900F0C6FDDF
:1005940050B9D5E9030100F01DF918B1254800F060
:1005A40069FC23E72448FAE73046244900F0B6FD05
:1005B40010B900F071F96BE73046214900F0AEFD47
:1005C40000287FF413AF114800F054FCBFF34F8FA1
:1005D4001C491D4BCA6802F4E0621343CB60BFF3AD
:1005E4004F8FFEE74F14000841150008441300081C
:1005F4000000002049130008501300085813000895
:1006040062130008671300086F13000878130008CA
:100614007F13000885130008941300083E13000894
:100624009E130008A6130008CD130008F413000855
:100634001C140008221400082E1400083E1400089C
:100644004814000800ED00E00400FA050020074B00
:100654009A881B68824202D84FF0FF307047C15815
:100664000131FBD0043080B2F4E700BF3004002035
:1006740010B50446FFF7EAFF094A431C012B9CBF4F
:100684009388181F1368002802DA4FF6FF7004E0FD
:10069400C15AC218A14201D1508810BD0438F2E7F2
:1006A4003004002070B50D4620F00104A4B2D30735
:1006B40048BF0132641AA4B28E18731B2819002B88
:1006C40080B200DC70BDFFF7D3FF25F8020BF4E71E
:1006D40070B5144DADF5007DAA88694600209208D6
:1006E400FFF7E0FF00F0D4FB286800F011FC0024C1
:1006F400AB88B4EB930F04DB00F0D6FB0DF5007D63
:1007040070BD2868A1B200EB440000F049FC2868E1
:100714006310660002303DF81310304400F040FCD2
:100724000234E5E730040020F8B5144F0546BB88D1
:100734000E469B08013B83421FDDFFF787FF431CE6
:10074400044604D1FFF7C4FFFFF780FF04462846A0
:10075400FFF78EFF864210D000F09AFB38682946D6
:10076400204400F01DFC386831460230204400F07B
:1007740017FCBDE8F84000F097BBF8BD300400203A
:10078400014B98888008704730040020014B1860A2
:10079400998070473004002008B500F079FB044BC1
:1007A400186800F0B5FBBDE8084000F07DBB00BF51
:1007B40030040020064AD2E9033018440138834249
:1007C40002D80278FF2AF9D0C3F101031844704714
:1007D4003C04002001440B1A002B01DC012070476B
:1007E40050F8043B0133F6D000207047134830B56D
:1007F4001349D0F8E047134A134B14480B44801AAA
:100804001349800A888000209B1A9BB20B8003F155
:1008140000634C808B60C3F30A051A4601335DB94B
:1008240000B18A6002F50062A4B2CA60C2EB8422FD
:1008340002F100620A6130BD0120ECE700F0FF1F05
:1008440044160008000000203004002000C00020EE
:100854003C040020004870473C04002072B6054B5D
:10086400DA68054B51681960126882F308881B68BE
:10087400184700BF3C04002038040020044B0548FE
:10088400DB681B68184000F16043584258417047C8
:100894003C0400200000FE2F70B50E4D2E6900F0C0
:1008A400F7FA042000F008FBEC68EB683344A34239
:1008B40003D8BDE8704000F0F7BA4FF40061204659
:1008C400FFF788FF10B9204600F022FB04F500640E
:1008D400EBE700BF3C040020012973B513DD0B18BE
:1008E4000246002112F8014B21449342C9B2F9D1C6
:1008F40049B90378C02B3CD007D8822B19D0832B5D
:100904001BD0802B0DD002B070BDC12B39D0D02BA1
:10091400F9D1084600F0D6F802B0BDE87040FFF700
:100924009DBF2F4B1B6900930421684600F080F99A
:10093400E9E7FFF73FFF0090F6E7FFF73BFF284B9F
:10094400284DDC684FF0FF330090884205DCDB4320
:10095400042101930DEB0100E8E70A5D53400822EE
:1009640003F001065B0806B16B40013AF8D101318E
:10097400EBE7084600F0A6F802B0BDE87040FFF7C8
:100984008BBF174ED0F80240F2684368A1B2D31867
:100994001D46009104D2366919443244914203D968
:1009A400FF2000F08FF8AEE723439B0701D0FD2022
:1009B400F7E700F1080400F06BFA042000F07CFA79
:1009C400009E1EB900F070FA3046EAE7284654F853
:1009D400041B00F0BBFA009B0435043B0093EFE7D3
:1009E4003C0400202083B8ED08B500F025FB074B3C
:1009F4001A6842F010021A601A6822F003021A60A0
:100A04004FF00062024B9A6008BD00BF0020024014
:100A140000ED00E010B54FF0E024FFF7E5FFF02211
:100A2400104B6361104B83F823200023A361072339
:100A34002361FFF7DBFE00F051F8FFF70BFF4FF4E3
:100A440000618068FFF7A2FE4FF4E023C4F8243D60
:100A5400064C00F093F82368002BFAD0FFF7FEFE53
:100A6400F7E700BFFF117A0000ED00E0500400201A
:100A740008B5FFF703FF28B100F07AF810B101229E
:100A8400014B1A6008BD00BF50040020094C08B592
:100A9400A36A9B0503D5A16B074800F0EBF9BFF3EC
:100AA4004F8FE268054B02F4E0621343E360BFF347
:100AB4004F8FFEE700ED00E02B1500080400FA0557
:100AC40070470000044B1A881106FCD580B2988048
:100AD4001A885206FCD570470048004008B51F4BE1
:100AE4000121DA69042042F48022DA619A6942F031
:100AF40008029A619A6942F001029A6100F06CFA64
:100B0400174B5A6822F470625A605A6842F4306291
:100B14005A605A6822F470425A605A6842F4004299
:100B24005A60A3F544439A8922F400521204120C29
:100B34009A819A8992B242F00C029A8110221A8107
:100B44009A8992B242F400529A810122054BC3F869
:100B54008424054B054A1A6008BD00BF00100240FA
:100B6400000C014054040020E0080020C90A0008D9
:100B7400014BD3F884047047540400201FB52A495C
:100B84000B889C060ED5294AD2F88034B3F5906FB1
:100B9400BFBF8988D1540133C2F880344FF6DF7265
:100BA400214B1A80204B1B88D80619D542F22333D7
:100BB4001E4C22889A422DD12046D4F88014FFF787
:100BC400DBFB0023C4F884340023C4F88034019B85
:100BD400154A019313889BB2019393889BB20193A6
:100BE400114B1A88110707D5029A02921A8892B2F9
:100BF40002929B889BB202930B4B1A88920707D5EB
:100C0400039A03921A8892B203929B889BB203932D
:100C140004B010BD94F90030002BD5DA2046D4F886
:100C24008014FFF759FECCE700480040540400202C
:100C340038B504464518AC4200D138BD14F8010B50
:100C4400FFF740FFF7E700000A2810B5044602D179
:100C54000D20FFF7F9FF074A13681BB1591C1160F7
:100C64001C7010BD044B1B68002BFAD02046BDE855
:100C740010401847DC080020E008002010B5441E8E
:100C840014F8010F00B910BDFFF7DEFFF8E700000C
:100C94002DE9F04F03460D4687B01878002800F080
:100CA400E680252804D05C1CFFF7CEFF2E46BEE06C
:100CB4005878302827D19878DC1C01234FF000089D
:100CC400A0F13002092A27D900F0DF024C2A04BF20
:100CD40014F8010B43F00403002800F0C8806028D6
:100CE40092BF0146A0F12001C9B25829DCD84E298F
:100CF4001AD8432900F0A880442900F0AE80422984
:100D0400D2D102272DE02D280BBF98789C1CDC1C27
:100D1400002308BF0223D1E70A2202FB080814F8C3
:100D2400010BA8F13008CBE7A1F14F02092ABBD887
:100D340001A656F822F000BF650D0008AD0C0008AE
:100D4400AD0C0008AD0C0008030E0008AD0C000843
:100D54005F0E0008AD0C0008AD0C00085B0E000827
:100D6400082744292A6805F1040604D1002ABCBFD7
:100D7400524243F0080378280DF1080C0CBF4FF0E1
:100D8400270E4FF0070E0020E146B2FBF7FB924618
:100D940007FB1B25E9B2092D84BF7144C9B2303168
:100DA40057455A4600F101050CF8011B02D8102DD5
:100DB40055D10F201A0705D506AA15442D2205F88A
:100DC400102C851C13F0010F14BF30202020AA46DC
:100DD40003F002070AF1010B17B9C24541D3DA4601
:100DE400013D19F80500FFF72FFF002DF8D1D0457C
:100DF4001DD92020FFF728FF0AF1010AF7E72E4644
:100E0400002256F8047BB95C154601320029FAD158
:100E140003F0020A05F10109BAF1000F02D14545B8
:100E240008D34D463846FFF729FFA84507D835466D
:100E3400234632E72020FFF707FF4D46EAE720204C
:100E4400FFF702FF0135F0E72E4656F8040BC0B257
:100E5400FFF7FAFEEBE7102783E70A2781E7284626
:100E640093E70190DA46FFF7EFFE0198B2E707B087
:100E7400BDE8F08F0FB407B504A951F8040B019134
:100E8400FFF706FF03B05DF804EB04B07047000001
:100E9400034B044A5A6002F188325A60704700BF1B
:100EA4000020024023016745024A136943F080038E
:100EB4001361704700200240014BD860704700BFA7
:100EC40000200240084BDA68D10709D4DA685207D7
:100ED40008D4DB6813F0100F14BF032004207047FC
:100EE40001207047022070470020024010B50446DC
:100EF400FFF7E8FF012806D11CB1FFF7E3FF013C2F
:100F0400F8E7052010BD002C08BF052010BD000027
:100F140038B505464FF43020FFF7E8FF042812D116
:100F2400094C4FF43020236943F0020323616561C7
:100F3400236943F040032361FFF7D8FF41F6FD73B3
:100F440022691340236138BD0020024073B5002399
:100F540006464FF400500D460193FFF7C7FF0428DF
:100F64001AD10E4C4FF40050236943F0010323615E
:100F7400ABB23380FFF7BAFF042808D102360196DA
:100F8400019B2D0C1D804FF40050FFF7AFFF41F67D
:100F9400FE7322691340236102B070BD0020024039
:100FA40070B505464FF400500E46FFF79FFF042826
:100FB4000ED1084C4FF40050236943F00103236120
:100FC4002E80FFF793FF41F6FE73226913402361DD
:100FD40070BD00BF00200240002830B5154C00F45D
:100FE4004015B4BFE3696368B5F5401F82B206D10A
:100FF400656823F0706325F0706565600EE0C402D7
:1010040055BF440D03242401C0F303454CBFAC4039
:1010140002FA04F423EA040343F0706319B1410DA6
:1010240009018A401343034A0028B4BFD3615360C3
:1010340030BD00BF000001400D4B1A6842F00102B0
:101044001A6059680B4A0A405A601A6822F084727E
:1010540022F480321A601A6822F480221A605A68D4
:1010640022F4FE025A604FF41F029A60704700BFD8
:10107400001002400000FFF8830730B548D0541E2A
:10108400002A3FD00346CAB201E0013C3AD303F838
:10109400012B9D07F9D1032C2DD9CDB245EA0525A5
:1010A4000F2C45EA054536D9A4F1100222F00F0CA5
:1010B40003F1200EE6444FEA121C03F1100242E948
:1010C400045542E9025510327245F8D10CF101027F
:1010D40014F00C0F03EB021204F00F0C13D0ACF15C
:1010E400040323F003030433134442F8045B9342E0
:1010F400FBD10CF003042CB1CAB21C4403F8012B3D
:101104009C42FBD130BD64461346002CF4D1F9E770
:1011140003461446BFE71A46A446E0E7844610B4E3
:101124000E4C1CF8013B11F8010BE25C02F00302C7
:10113400012A225C08BF203302F00302012A05D0F1
:101144001B1A08D10028ECD110BC70472030181AA3
:10115400E7D010BC7047184610BC70474115000812
:10116400024A012312685C3200F002B80400002035
:10117400F0B4074610B33E468C4616F8015B01E016
:10118400A54216D01CF8014B002CF9D1DDB10C4658
:1011940016F8015B01E0002BF9D014F8013B9D42E5
:1011A400F9D14DB1002306F8013C38461660F0BC75
:1011B400704763B13746DEE72E46F6E71768002F1F
:1011C400D9D13846F3E728461560F0BC704716605D
:1011D40038463B70EBE700BF2DE9F04707460E4663
:1011E4004A4D304616F801CB15F80C4014F00804AB
:1011F400F7D1BCF12D0FE64658D0BCF12B0F04BF3C
:1012040096F800E0861C5BB1102B54D04FF0FF38E9
:10121400B8FBF3F803FB08FA99466FEA0A0A08E0F8
:10122400BEF1300F5AD00A234FF0050A9946DFF871
:10123400E0800025284607E0404515D829D001253F
:1012440009FB00C016F801EBAEF1300CBCF1090F3C
:1012540006D9AEF1410CBCF1190F08D8AEF1370C28
:1012640063450DDD002DE7DA4FF0FF35EAE7AEF117
:10127400610CBCF1190F03D8AEF1570C6345F1DCD6
:10128400002D0BDB04B140420AB16DB91160BDE819
:10129400F087D445D3DD4FF0FF35D3E722234FF059
:1012A400FF303B60002AF2D0711EEFE796F800E0B1
:1012B4000124861CA7E7BEF1300F21D1307800F05D
:1012C400DF00582816D14FF0100996F801E04FF0CE
:1012D4000F0A6FF070484B460236AAE7337803F0E2
:1012E400DF03582BEFD008234FF0070A6FF0604854
:1012F40099469EE799466FF070484FF00F0A98E7B9
:101304004FF00F0A6FF07048994692E741150008B4
:10131400999999198C4600B586461346034A714635
:1013240010685DF804EB6246FFF756BF0400002026
:1013340030782530336C5820200025303258200076
:1013440048454C5000454550524F4D004745545375
:10135400495A450025752042797465730A0052453F
:1013640041440052454144414C4C0045524153458F
:10137400414C4C00446F6E652E0A00575249544547
:1013840000496E76616C69642061646472210A00AC
:1013940030782530386C58202000535953494E4634
:1013A4004F00464C4153482F5352414D2F50414713
:1013B400452053697A65733A2025754B422F25756C
:1013C4004B422F25754B420A00426F6F746C6F615C
:1013D4006465722F4150502053697A65733A202016
:1013E4002575422825754B42292F25754B420A0045
:1013F400454550524F4D2F41505020426173652056
:10140400616464723A202030782530386C582F306B
:10141400782530386C780A00454D505459004150B5
:101424005020656D7074792E0A00415050204E4F43
:101434005420656D7074792E0A0045524153455FFE
:10144400414C4C005245424F4F5400233F202C0D39
:101454000A0020656D7074793A20656D7074792086
:10146400636865636B2061707020617265612E0A28
:101474002065726173655F616C6C3A20657261739B
:1014840065206170702E0A20656570726F6D3A2058
:10149400656570726F6D205B726561647C777269DB
:1014A40074657C72656164616C6C7C657261736582
:1014B400616C6C5D20454550524F4D206F70732E0A
:1014C4000A207265626F6F743A207265626F6F747E
:1014D4002073797374656D2E0A20726561643A20F5
:1014E4007265616420666C6173682F7372616D2F1D
:1014F4007065726970682E0A2068656C703A207392
:10150400686F772068656C702E0A20737973696E32
:10151400666F3A2073686F772073797374656D20F2
:10152400696E666F2E0A0052656164206572726F7F
:10153400722040202530386C780A000000202020DA
:10154400202020202020282828282820202020206F
:10155400202020202020202020202020208810103F
:10156400101010101010101010101010100404049B
:101574000404040404040410101010101010414159
:101584004141414101010101010101010101010147
:10159400010101010101010110101010101042425B
:1015A4004242424202020202020202020202020217
:1015B40002020202020202021010101020000000B7
:1015C4000000000000000000000000000000000017
:1015D4000000000000000000000000000000000007
:1015E40000000000000000000000000000000000F7
:1015F40000000000000000000000000000000000E7
:1016040000000000000000000000000000000000D6
:1016140000000000000000000000000000000000C6
:1016240000000000000000000000000000000000B6
:1016340000000000000000000000000000000000A6
:10164400561400080800002000000000F4020020E6
:101654005C030020C4030020000000000000000020
:101664000000000000000000000000000000000076
:101674000000000000000000000000000000000066
:101684000000000000000000000000000000000056
:101694000000000000000000000000000000000046
:1016A4000000000000000000000000000000000036
:1016B4000000000000000000000000000000000026
:1016C4000000000000000000000000000000000016
:1016D4000000000000000000000000000000000006
:1016E40000000000000000000000000000000000F6
:1016F40001000000000000000E33CDAB34126DE693
:10170400ECDE05000B0000000000000000000000FB
:1017140000000000000000000000000000000000C5
:1017240000000000000000000000000000000000B5
:1017340000000000000000000000000000000000A5
:101744000000000000000000000000000000000095
:04000005080002D11C
:00000001FF
