:020000040800F2
:1028000000400020DD2B0008A72E0008A92E00089C
:1028100000000000000000000000000000000000B8
:10282000000000000000000000000000AB2E0008C7
:102830000000000000000000AD2E0008392E000846
:10284000592C0008592C0008592C0008592C000854
:10285000592C0008592C0008592C0008A52E0008F6
:10286000592C0008592C0008592C0008592C000834
:10287000592C0008592C0008592C0008592C000824
:10288000592C0008592C0008592C0008592C000814
:10289000592C0008592C0008592C0008592C000804
:1028A000592C0008592C0008592C0008592C0008F4
:1028B000592C0008452E0008592C00089D2E0008B0
:0428C0005FF808F1C4
:1028C40002B4714649084900095C49008E4402BCBF
:1028D4007047C046002243088B4274D303098B42DD
:1028E4005FD3030A8B4244D3030B8B4228D3030CDC
:1028F4008B420DD3FF22090212BA030C8B4202D37E
:102904001212090265D0030B8B4219D300E0090AA5
:10291400C30B8B4201D3CB03C01A5241830B8B42AE
:1029240001D38B03C01A5241430B8B4201D34B0397
:10293400C01A5241030B8B4201D30B03C01A5241FC
:10294400C30A8B4201D3CB02C01A5241830A8B4281
:1029540001D38B02C01A5241430A8B4201D34B026A
:10296400C01A5241030A8B4201D30B02C01A5241CE
:10297400CDD2C3098B4201D3CB01C01A5241830982
:102984008B4201D38B01C01A524143098B4201D3BC
:102994004B01C01A524103098B4201D30B01C01AE7
:1029A4005241C3088B4201D3CB00C01A5241830861
:1029B4008B4201D38B00C01A524143088B4201D38E
:1029C4004B00C01A5241411A00D2014652411046EE
:1029D4007047FFE701B5002000F0FCF802BDC046D7
:1029E4000029F7D003B5FFF775FF0EBC4243891ADF
:1029F4001847C04603460B437FD4002243088B424A
:102A040074D303098B425FD3030A8B4244D3030B71
:102A14008B4228D3030C8B420DD3FF22090212BA36
:102A2400030C8B4202D31212090265D0030B8B42B2
:102A340019D300E0090AC30B8B4201D3CB03C01A9C
:102A44005241830B8B4201D38B03C01A5241430B77
:102A54008B4201D34B03C01A5241030B8B4201D367
:102A64000B03C01A5241C30A8B4201D3CB02C01AD2
:102A74005241830A8B4201D38B02C01A5241430A4A
:102A84008B4201D34B02C01A5241030A8B4201D339
:102A94000B02C01A5241CDD2C3098B4201D3CB01E0
:102AA400C01A524183098B4201D38B01C01A52418F
:102AB40043098B4201D34B01C01A524103098B4293
:102AC40001D30B01C01A5241C3088B4201D3CB007E
:102AD400C01A524183088B4201D38B00C01A524161
:102AE40043088B4201D34B00C01A5241411A00D211
:102AF40001465241104670475DE0CA0F00D049427A
:102B0400031000D34042534000229C4603098B42E9
:102B14002DD3030A8B4212D3FC22890112BA030A71
:102B24008B420CD3890192118B4208D389019211F3
:102B34008B4204D389013AD0921100E08909C30978
:102B44008B4201D3CB01C01A524183098B4201D37A
:102B54008B01C01A524143098B4201D34B01C01A65
:102B6400524103098B4201D30B01C01A5241C308DD
:102B74008B4201D3CB00C01A524183088B4201D34C
:102B84008B00C01A5241D9D243088B4201D34B0067
:102B9400C01A5241411A00D20146634652415B10A9
:102BA400104601D34042002B00D54942704763468A
:102BB4005B1000D3404201B5002000F00BF802BDC9
:102BC4000029F8D003B5FFF715FF0EBC4243891A5C
:102BD4001847C0467047C0461248854612480168E7
:102BE400090E124A914205D1114812490160124856
:102BF40012490160002103E0114B5B58435004313A
:102C04001048114B42189A42F6D3104A02E00023AE
:102C1400136004320E4B9A42F9D300F0BBF800F073
:102C2400F7F8FEE700400020040000001F00000049
:102C340018100240010000000000014000000000E4
:102C44002878000800010020300200203002002013
:102C5400F8160020FEE700008022044B52010028F1
:102C640001D09A6100E01A857047C046000400480C
:102C7400034B4022002801D01A8500E09A61704776
:102C84000004004810B5041C0548022103F05CFA56
:102C94000028F9D00248211C03F048FA10BDC046B0
:102CA4000030014010B5041C0948022103F04CFA1D
:102CB4000028F9D00648211C03F038FA0448012101
:102CC40003F042FA0028F9D0014803F031FA10BDAC
:102CD4000038004010B500F05DF8C0201C4A1D4BC0
:102CE4001D4953600B6A00061B021B0A03430B6257
:102CF400002393600733136000F010FC00F00AFD1A
:102D04008023164C5B01A3611548164B4360164B98
:102D14000360164B836000F015FB00F0EDFB4023CD
:102D240013482385134B8360134B0360134B436099
:102D3400134BC36000F0C0FA00F0B0FD1148124913
:102D4400124A134B01F0E8F900F01EFA10BDC04618
:102D540010E000E07FBB000000ED00E0000400484C
:102D6400400200205D2C0008A92C0008B53600089C
:102D740030020020752C0008892C000871360008E8
:102D8400C92E000820050020040100209401002021
:102D9400600100208020802210B552001B4980056C
:102DA40003F017FB0120011C03F016F9032003F0C4
:102DB400D1F962B602F0A4FF012002F0D1FF012094
:102DC40002F098FE03F04EF9041E012C1DD10020E0
:102DD40003F00CF8002003F013F8002002F0EAFFDF
:102DE400802080214002C90202F0C2FF201C02F0B0
:102DF400CFFF192003F020F90028FAD0022002F0B6
:102E0400E3FF02F0EBFF0828FBD110BD0028000807
:102E1400802108B50648090100F0D4FFFFF75AFFE6
:102E240000F02AFA00F024FD00F022FAFAE7C04686
:102E34000020000808B500F053F801F029F808BD97
:102E440008B51148114903F093FA002806D00E483A
:102E540000F098FD0C480D4903F0A7FA0A480C4904
:102E640003F086FA002803D00748094903F09DFAC5
:102E74000548084903F07CFA002803D002480549B4
:102E840003F093FA08BDC046004800400401040062
:102E9400000303000003010008B502F0E3F808BDD5
:102EA4007047FEE7FEE7FEE7FEE7072382B00190E6
:102EB400019A53430193019B5A1E0192002BFAD1AC
:102EC40002B0704707B50190019B5A1E0192002B76
:102ED40004D0FA208000FFF7E8FFF5E707BD000003
:102EE400034B1A68002A02DD1A68013A1A60704717
:102EF40038060020084B1A68002A01D1074A1A60D4
:102F040069461A681018884202D81860101C01E03B
:102F1400012040427047C0464C020020F8160020B1
:102F240001204042704780239B0100204B60704782
:102F340001207047002070470020704770B50E1CB8
:102F4400151C0C1CA31B9BB2AB420BDA2178064860
:102F540003F0E4F90448402103F004FA0028F9D00E
:102F64000134EFE7281C70BD0048004070B5061C12
:102F74000D1CAAB00AAC6C490522684603F029FA74
:102F840000218022201C03F02DFA201C311C2A1C55
:102F940003F0DBFA201C03F0D1FA0138235C0A2B7E
:102FA40002D100232354F8E70D2BFAD0201C6946E4
:102FB40003F0E0FA0024002811D0A20002ABD050A4
:102FC40069460020013403F0D5FA082CF3D1029CA1
:102FD4005649201C03F094FA002821D103E0002C68
:102FE40000D19FE0F3E7039C5149201C03F088FAC9
:102FF400002800D196E0201C4E4903F081FA0028F5
:1030040000D18FE0201C4C4903F07AFA002800D04C
:1030140088E000F0C1F9011C484803F0EBF981E0B5
:10302400201C474903F06CFA002860D100F0A8F88E
:10303400039C4449051C201C03F062FA011E0DD1B7
:103044000A22049803F088FB011CFA204000FFF7D1
:10305400D1FC011C012000F06DFF42E0201C3A4924
:1030640003F04EFA002805D18023384A1B02116868
:103074000B4309E0201C364903F042FA002805D12D
:10308400324A344B11680B4013602AE03249201C49
:1030940003F036FA011E05D104980A2203F05CFB02
:1030A40028601EE0201C234903F02AFA00281BD0C4
:1030B4002A49201C03F024FA011E06D10A2204988E
:1030C40003F04AFB00F012FF0BE02549201C03F03B
:1030D40017FA011E08D10A22049803F03DFB00F000
:1030E400F9FE204803F002FA00F05CF81AE0201C14
:1030F4001D4903F005FA002803D11C4803F0F6F932
:1031040010E0201C1A4903F0FBF900280AD11948E1
:1031140003F0ECF9BFF34F8F174A184BDA60BFF393
:103124004F8FFEE72AB070BDC275000858750008BD
:103134005B7500085F750008647500086A7500080F
:1031440071750008747500087C750008585C0040AF
:1031540086750008FF7FFFFF9175000897750008CA
:10316400A075000879750008A8750008AD750008F9
:10317400B5750008BC7500080400FA0500ED00E010
:10318400004870475002002010B5054C0020211C57
:10319400042200F099FD00236361A36110BDC046C1
:1031A4005002002013B50422002001A900F08CFD78
:1031B400064C01A9201C042203F0FCF8002804D0CA
:1031C4000020211C042200F0E9FD13BD5002002060
:1031D4008021034A8901938A4B4093827047C046F9
:1031E4000008004808B5024803F080F908BDC0464D
:1031F400C7750008F0B51B4C91B023681A4D68469A
:10320400002B1DD1194B2A68134004D50822013B19
:1032140052421343013301229A40D3B20022835411
:103224000132402AFBD1402100F050F82B680133D1
:103234002B605B0714D123685A42534123600FE08B
:103244002A68161C131C4036590702D1811AFF271D
:1032540001E00027811ACF540133B342F4D1E2E7ED
:1032640011B0F0BD700200206C0200200700008045
:1032740008B500F015FE08BD08B5FA2100220A4879
:1032840000F040FEFA2101228900084800F03AFECD
:10329400012107480A1C00F035FE0648642101227A
:1032A40000F030FE08BDC046E9310008D531000801
:1032B400D53D0008F931000810B5034B16C816C3F4
:1032C4001A1C0368136010BD7402002070B50D1C35
:1032D400061C094C0020A3689847E3680A20984715
:1032E400291C301C63689847E3680A209847A36840
:1032F4000120984770BDC0467402002038B5051CF3
:10330400054C002063689847281C23689847636825
:103314000120984738BDC0468402002038B5084CC7
:103324000020636898472368052098472368FF2096
:103334009847051C636801209847281C38BDC0467F
:103344008402002037B5134C231C26C826C3002052
:10335400636898472368502098476368012098471A
:10336400FA239B000193019D002D02D0019B013B98
:10337400F8E7281C63689847236801209847236866
:10338400281C9847636801209847FFF7C7FFC307C5
:10339400FBD437BD8402002038B50C4C0020636890
:1033A400984723689F2098472368FF2098472368FD
:1033B4000502FF20984723680543FF2098472D0204
:1033C4000543636801209847281C38BD8402002007
:1033D400F7B5051C171C0191FFF7A0FF012630402B
:1033E400FAD1104C6368984723680B209847280C3F
:1033F4002368C0B29847280A2368C0B29847236854
:10340400E8B298472368FF209847381CA3680199BD
:1034140098476368301C9847FFF780FF01231840E2
:10342400FAD1FEBD84020020F7B5051C0E1C0192E2
:10343400FFF774FFC307FBD4002E2EDD0620FFF731
:103444005DFF174C00206368984723680220984763
:10345400280C2368C0B29847280A2368C0B298474A
:10346400E8B223689847271C019B013518783B680C
:103474009847019B013E01330193EBB2002B01D02D
:10348400002EF1D1636801209847FFF747FFC30777
:10349400FBD40420FFF732FFCEE70020FEBDC04678
:1034A40084020020F8B5051CFFF738FF01263040E0
:1034B400071EF9D10620FFF721FF0E4C381C636864
:1034C4009847236820209847280C2368C0B298475F
:1034D400280A2368C0B298472368E8B29847301C8A
:1034E400636898470420FFF709FFFFF717FFC30736
:1034F400FBD4F8BD8402002010B5074C002063689B
:1035040098472368AB2098476368012098470A20AE
:10351400FFF7CBFC10BDC04684020020F7B5802025
:103524000121800202F04CFD80200121C00202F042
:1035340047FD80200121000302F042FD0120011C0F
:1035440002F04AFD684602F08DFBC0231B010024F3
:103554000326022700936B46424D6946281C1F71BF
:103564005E719C71DC7102F041FB281C0A2104226B
:1035740002F084FB281C0B21042202F07FFB802331
:103584009B016A46009301236946374856711371BB
:103594009471D47102F02AFBC02390205B01009344
:1035A4006B466946C0051F715E719C71DC7102F047
:1035B4001DFB5F2300936B4690206A461C719C712F
:1035C40001236946C0055671D37102F00FFBE02355
:1035D4001B0200936B46281C69461F715E719C7127
:1035E40002F004FB80235B016A4600930123281C3C
:1035F400694613715671947102F0F8FA281C221C62
:103604000D2102F03BFB281C221C0E2102F036FB8C
:10361400281C221C0F2102F031FB382300936B4637
:10362400281C69461F715E719C7102F0DFFA402309
:103634006A46281C009369463F3B13715671947186
:1036440002F0D4FA281C311C221C02F017FB281C9F
:10365400221C042102F012FB281C0521221C02F06A
:103664000DFBF7BD000400480008004870B5061CB7
:103674000D1C0D4C0021201C02F00CFAE660201CED
:103684000121656002F006FA08480321012202F0D4
:1036940052FD8020800002F011FA0028F9D0802029
:1036A400800002F01BFA70BD30000240003001407F
:1036B400F8B50E1C071C144C144D201C002102F0FC
:1036C400E9F9281C002102F0E5F9E760201C666096
:1036D40001216E6002F0DEF9281C012102F0DAF902
:1036E4000B480321012202F026FD8020800102F014
:1036F400E5F90028F9D08020800102F0EFF980205C
:10370400800202F0EBF9F8BD440002405800024088
:10371400003800408020F0B5C00191B0012102F0D2
:1037240067FC80200121400102F056FC0120011CAD
:1037340002F046FC0120011C02F04EFC6846002405
:1037440002F0A7FC6B461C8082236A465B00538010
:10375400E023DB0093800223D38080239B005381EA
:1037640001250723394E6946301C15819481D48183
:10377400138202F09DFC8021301C490102F0CCFC34
:10378400301C334E291C334F02F0BCFC301C02F0B9
:10379400DDF8381C02F0DAF805A802F06DF92E4BBA
:1037A400301C059380230A93C02310269B0105A98E
:1037B4000E93079409940B940C940D940F9402F0B7
:1037C4003DF9264B05A9381C06930A94079602F086
:1037D40035F9684602F05DFC6A46214B214F13809F
:1037E40082235B005380E023DB00938080239B00D3
:1037F40053810723381C694615811382D48096812E
:10380400D48102F055FC8021381C490102F084FC6B
:10381400291C154D381C02F075FC281C02F096F882
:1038240005A802F029F9114B281C059380230A935B
:10383400C02305A99B01079609940B940C940D943D
:103844000E930F9402F0FAF811B0F0BD0038004066
:1038540044000240580002400C380040000100209F
:1038640000C0FFFF00300140300002400C30014036
:10387400812238B5084C9200A358151C002B09D09E
:10388400022B05D1FF33FF33201CE158FFF76EFBF9
:103894000023635138BDC04690020020802070B5DB
:1038A400C00292B0012102F0A3FB0120011C02F02E
:1038B40087FB01A802F01EFD6A461D230024012592
:1038C4001370284B284E0793284B68460133FF3367
:1038D40054709570089302F0E3F9301C02F036F846
:1038E40080235B000A93803B0C93603B0F93C023BF
:1038F400301C9B0107A9109309940B940D940E940A
:10390400119402F09BF8301C194E291C02F0C2F8E5
:10391400301C02F029FC174B301C01930C2301A925
:103924000593029403940494069402F087FC301CDB
:103934002A1C114902F0FFFC301C2A1C0F4902F01A
:10394400FAFC301C2A1C0E4902F0F5FC301C2A1C1F
:10395400402102F0E7FC301C291C02F0D6FC12B016
:1039640070BDC046244800406C0002409002002014
:103974000048004020A107000401040000030300E4
:1039840000030100224BF7B5071C0025984200D123
:10399400204D0021281C02F07DF88026281CFB699C
:1039A400BB8C02F087F876000190311C281C02F0D1
:1039B4007FF88123184C9B00E358002B1BD1A119DD
:1039C400321C201C02F005FD019BF61A80239B008B
:1039D400E6500F4B9F420ED1231CFF335A783F2AE7
:1039E40004D1812302229B00E25004E0232A02D165
:1039F4009B78232BF5D08022601C52000021FF30DD
:103A040002F0F0FC281C012102F044F8F7BDC04686
:103A1400004800406C00024090020020802008B55D
:103A24000004012102F0E4FA802002F0F5F908BD57
:103A34001F2307B501A8037000234370013383706B
:103A440002F02EF907BD0000122301480B807047D5
:103A5400D9750008042301480B807047D575000808
:103A64001A2301480B8070472001002052008A1855
:103A740091420BD0030F092B01D8303300E03733C8
:103A84000B70002300014B700231F1E77047000016
:103A940010B5044C0A1C0448211C00F030FD201C05
:103AA40010BDC0463E060020EB75000810B5044C5E
:103AB4000A1C0448211C00F022FD201C10BDC04635
:103AC4003E0600200376000810B5044C0A1C044886
:103AD400211C00F014FD201C10BDC0463E06002031
:103AE4001676000810B5044C0A1C0448211C00F08A
:103AF40006FD201C10BDC0463E06002021760008AD
:103B040038B50A4B18680A4B1D680A4B1B68C01865
:103B140000280AD0084C0822A11CFFF7A7FF211C8B
:103B2400281C12310422FFF7A1FF38BDACF7FF1F98
:103B3400B0F7FF1FB4F7FF1F200100200821054A3A
:103B440013689BB20B431360136804399BB20B4395
:103B540013607047405C00400421044A13689BB220
:103B64008B431360BF231B0213607047405C00400B
:103B740010B5254C072800D020702078C0B2052845
:103B84003ED8FEF79DFE030C12161F2A1F4B1B681E
:103B9400002B02D1FFF7E0FF32E0052331E0FFF70D
:103BA400DBFF04230122237027E002236370013327
:103BB40027E06378013BDBB263706378002B21D18B
:103BC40004331EE01021124A13689BB20B431360A6
:103BD40005232370DB18637014E06378013BDBB2C8
:103BE40063706278D2B2002A0CD1102008490B68A5
:103BF4009BB283430B6006232370044B1A6001E0DD
:103C04000623237010BDC0463C0600209804002003
:103C1400405C00400020704780235B0113608023D8
:103C24001B0100200B607047002070470020704784
:103C34000020704710B50C1C10031903221CFFF759
:103C4400C7FB002010BD70B50E1C1D1C1403201CE6
:103C5400FFF728FC2903321C201CFFF7E5FB00209A
:103C640070BD704770477047704770470020074B1E
:103C74009A881B68904205D2C158013104D004309F
:103C840080B2F7E7012040427047C0469C04002000
:103C940010B5041CFFF7EAFF421C094B012A01D8A6
:103CA400988804381B68C018C21A07D4021F918868
:103CB400A14201D1408802E0101CF5E7014810BD83
:103CC4009C040020FFFF0000F8B5012398430E1C5C
:103CD400071C0C1C1340D518B81B2B1B2018F318F9
:103CE40080B2002B04DDFFF7D3FF20800234F3E71A
:103CF400F8BD000071B5134CFFB0A28800209208F3
:103D04006946FFF7E1FF01F0FFFE206801F038FF8C
:103D14000025A3889B089D4210DA23686E00A9B28F
:103D2400F01801F049FF6A462368981C6B105B0089
:103D34008019D15A01F040FF0235EAE701F0F4FEA0
:103D44007FB071BD9C040020F8B5134DAB889B086F
:103D5400013B83421FDD0E1C071CFFF787FF041C79
:103D6400431C04D1FFF7C6FFFFF780FF041C381C77
:103D7400FFF78EFFB0420ED001F0C6FE2B68391C4F
:103D8400E01801F019FF2868311C0230001901F015
:103D940013FF01F0C9FEF8BD9C040020F8B501230F
:103DA400071C0E1C0C1C1340D518B81B2B1B201809
:103DB400F31880B2002B04DD2188FFF7C5FF02341D
:103DC400F3E7F8BD014B1860998070479C0400200C
:103DD400F8B500252E1C2D4B1A681C1C96420ADAD5
:103DE4001B69301C9847002803D00123B3401D43AE
:103DF400ADB20136EFE72A1C5B8B658300259A433D
:103E0400228323689D4240DA281C23699847071EB1
:103E14001FD0238B01262B41334209D0311C636907
:103E2400281C9847A268AB00D65000226168CA508B
:103E3400638B2B41DB0726D56368A9005A181368E6
:103E440001331360E26893421DDD0223A2685350DC
:103E540019E0A368AE009B59012B07D16369281CA4
:103E640002219847A3689F5163689F51A3689B5997
:103E7400022B08D16369281C032198470023A268F8
:103E84009351626893510135BBE7F8BDA404002047
:103E9400024A1368013313607047C046C00400200F
:103EA40070B50B4D00262C1C08346B689E420EDA4C
:103EB4002B686268934207D3A268D3186360E368EF
:103EC400002B01D02368984701361034EDE770BD0C
:103ED400C0040020032805DC034B0130000118183E
:103EE400002343607047C046C0040020032805DC5B
:103EF400034B013000011818012343607047C0468A
:103F0400C004002070B50A4C6368032B0CDC1D014F
:103F140065192E1CA8605D1C280101510021201880
:103F2400F1604260656001E001235B42181C70BDD2
:103F3400C0040020032803DC0130024B0001C150FF
:103F44007047C046C0040020031C10B5041CFC3399
:103F54001B691B699847E3780020A37010BD08B55E
:103F64008378C37004238370FC300369DB6898474B
:103F7400002008BD08B5031CFC33DB68DB69002B9B
:103F840000D09847002008BD002110B5041C0A1C6D
:103F9400182300F0DDFC201C80210022582300F0AF
:103FA400D7FC0021201C0B1C402200F0E8FC8021DF
:103FB4004022201C002300F0E2FC0123A370231CF8
:103FC400FC33E0681B69C0B25B689847002010BDF1
:103FD40013B56946041C00F075FA6B4619781F2363
:103FE4000B40012B0DD0002B06D0022B0ED1201C30
:103FF400694600F008FA0EE0201C694600F0F6F865
:1040040009E0201C694600F0DFF904E07F23201C4E
:10401400994300F00DFE002016BD0000F8B5041C05
:104024000D1E39D14378022B2BD1426B466AB24222
:1040340006D9921B4263A16A92B200F0A9F835E056
:10404400876B311C381CFEF7CBFC0D1E0AD1B7421E
:1040540008D3E36B9F4205D2201C2A1C00F098F879
:10406400E56323E0231CFC33DB68DB68002B04D00E
:10407400A278032A01D1201C9847201C00F0A4F840
:1040840014E0042B12D10A4E316800290ED0C9B2B3
:1040940000F026FE356009E0031CFC33DB685B6935
:1040A400002B03D08278032A00D198470020F8BD62
:1040B4000805002010B5041C002921D14378032BE6
:1040C40028D1031C9033DA69D9688A420AD9521A72
:1040D400DA618A4200D90A1C92B2201C196900F0E4
:1040E40060F817E0031CFC33DB681B69002B03D06A
:1040F4008278032A00D19847201C00F05BF809E07D
:10410400031CFC33DB689B69002B03D08278032AF1
:1041140000D19847002010BDF7B5041C251C171CBE
:104124001E1C0191FFF77AFC019BFC356B61EF606B
:104134002E61FFF7E5FC201C00F0EEFB2B691B68E9
:104144009847201CFFF774FC201C00F0F3FDF7BD1A
:1041540010B5041CFC34E3681B68984723699B680A
:104164009847002010BD08B5031CFC33DB685B686E
:104174009847002008BD10B5131C0C1C82634263D1
:10418400022200214270221C00F0FCFC002010BD21
:1041940010B50C1C131C0021221C00F0F3FC0020A1
:1041A40010BD10B50C1C131C0021221C00F0AFFC28
:1041B400002010BD08B5002104230A1C43700B1C09
:1041C40000F0E0FC002008BD08B5002105230A1C0E
:1041D40043700B1C00F09BFC002008BD28235943AE
:1041E4004018A830006880B27047000073B5041C02
:1041F40048780D1C092800D9DBE0FEF761FBADD13E
:10420400DAC2DA5E05DA9D764B88180A0138062888
:1042140000D9CEE0FEF754FB04131DCDCDCDCD0067
:10422400231CFC335B6901AE1B68311C207B98475F
:10423400EB88011C402B2FD1383B33802CE0261C0B
:10424400FC36F36801A9207B1B6A9847011CB06106
:1042540022E0D8B2052800D9ABE0221CFC32E36886
:104264005269FEF72DFB0306090C0F14D8B25268ED
:104274000AE0D8B2926807E0D8B2D26804E0D8B2B3
:10428400126901E05269D8B201A9904703E0D8B29B
:1042940001A993699847011C01AE3288002A00D114
:1042A4008BE0E888002800D187E0031C904200D905
:1042B400131C9AB23380201C5EE08B88002B78D1CB
:1042C400CB88002B75D14D887F331D40A378032BF9
:1042D4006FD03B4B2571201C1D60FFF76BFF022341
:1042E400002D00D10123A37067E08978354D297032
:1042F40001295ED8A378022B02D0032B07D058E003
:10430400002949D0012103232170A37010E0002962
:1043140006D102232170A370201CFFF724FF3BE089
:104324002178012938D0201CFFF71DFF297821703E
:10433400201CFFF70DFF2FE0CA8800210191012AFC
:104344001DD1A378022B04D0032B18D1201C211CCF
:1043540012E0201C01A90FE00021A3780191023B87
:10436400012B0CD801230193A3688B4201D00323B2
:104374000193201C022201A9FFF7FDFE1DE0201C71
:1043840019E04B88012B18D1A360231CFC33DB6894
:10439400201C9B68291C9847201CFFF70BFF0CE08E
:1043A400A378023B012B04D84B88012B05D10023B1
:1043B400EAE7201C002100F03BFC002076BDC0464B
:1043C400080500200C05002070B58378041C0E1C21
:1043D400032B11D10B79012B0ED8031CFC33DB68A2
:1043E4009B689847F388051C002B0AD1002808D144
:1043F400201CFFF7DFFE04E0201C002100F018FC65
:104404000025281C70BD37B500220D1C0192041C28
:104414006B788888C1B2012B11D093422AD0032B28
:104424004ED1A378022B2BD0032B20D16B88002BE9
:1044340012D14B0610D0201C00F0FAFB0CE0A3783C
:10444400022B1DD0032B12D16B88002B04D14B06F9
:1044540002D0201C00F020FC231CFC33DB68201C51
:104464009B68291C9847201CFFF7A4FE28E0201C09
:10447400111C23E0A278022A02D0032A04D01BE0F4
:10448400201C4B061AD11BE02823020609D57F22E3
:104494001140594361188B7E002B07D001230193EF
:1044A40004E05943611890318B78F5E7201C01A989
:1044B4000222FFF760FE03E0201C191C00F0B8FB89
:1044C40000203EBD037C0B70437C4B70C37C827C1C
:1044D4001B02D3184B80437D027D1B02D3188B80B3
:1044E400C37D827D1B02D3189BB2CB80C36301239F
:1044F4004370704708B5002100F09AFB08BD30B541
:10450400041E19D02578231ADBB2002D01D0013402
:10451400F8E75B00023313800B7003234B70013BFD
:104524000478002C08D0CC5400245A1CD2B2023394
:104534000130DBB28C54F3E730BD0000014B18604E
:104544007047C046405C0040014B18607047C0464D
:10455400445C004007239843014B18607047C046F1
:10456400505C0040024B8000C018006880B2704765
:10457400005C00400B1C054A800080180168044A56
:104584001140194389B201607047C046005C004085
:104594008F89FFFF084B8000C0180268074B134047
:1045A4001022114200D053402022114200D0534027
:1045B400034A134303607047005C0040BF8F000050
:1045C40080800000094B8000C0180268084B13402B
:1045D40080225201114200D05340802292011142A4
:1045E40000D05340034A134303607047005C00400B
:1045F4008FBF000080800000044B8000C018026858
:10460400034B1340034A134303607047005C0040AC
:104614000F0E000080810000044B8000C018026867
:10462400034B1340034A134303607047005C00408C
:104634000F0F000080C00000044B8000C018026807
:10464400034B1340034A134303607047005C00406C
:104654000F0F0000C0800000064B8000C0180368E4
:104664005B0405D50268044B1340044A13430360FA
:104674007047C046005C00400F0F000080C000007F
:10468400064B8000C01803685B0605D50268044B1E
:104694001340044A134303607047C046005C004063
:1046A4000F0F0000C0800000054BC0001B689BB2C8
:1046B400C018044BC0180123994301807047C046B9
:1046C400505C004000600040054BC0001B689BB27A
:1046D400C018044BC0180123994301807047C04699
:1046E400505C004004600040044BC0001B689BB257
:1046F400C018034BC01801807047C046505C00408E
:10470400026000400C4BC0001B689BB218180B4B96
:10471400C0183E2908D94B09CA0601D1013B9BB2F6
:10472400074A9B02134304E04B08CA0700D5013330
:104734009B0203807047C046505C00400660004006
:104744000080FFFF054BC0001B689BB2C018044BE0
:10475400C01800888005800D7047C046505C00403A
:1047640002600040054BC0001B689BB2C018044B9C
:10477400C01800888005800D7047C046505C00401A
:104784000660004030B5094DC0002B68084C9BB250
:10479400C3181B190124A14319802B68A2439BB29F
:1047A400C018044BC018028030BDC046505C0040A5
:1047B400006000400460004030B500291FD1204C47
:1047C400C00021681F4B89B20918C9183E2A08D9AC
:1047D4005309D50601D1013B9BB21B4D9B022B43D0
:1047E40004E05308D50700D501339B020B802368EE
:1047F4009BB21818154BC0183E2A11D819E001298C
:104804001DD10F49C0000B680E4C9BB2C3181B1975
:104814001A800B689BB2C0180C4BC01802800EE0C3
:104824005309D20601D1013B9BB2074A9B021343B1
:1048340004E05308D20700D501339B02038030BD46
:10484400505C0040026000400080FFFF06600040B2
:10485400054BC0001B689BB2C018044BC0180088ED
:104864008005800D7047C046505C004002600040E7
:10487400054BC0001B689BB2C018044BC0180088CD
:104884008005800D7047C046505C004006600040C3
:10489400002907D1094B8000C0180268084B134057
:1048A400084A08E0012908D1044B8000C0180268B6
:1048B400034B1340044A134303607047005C0040F9
:1048C4000F0F0000C080000080C0000070B5051C00
:1048D40001325210002A0AD0054B0C1AE4186B78E6
:1048E4002E781B0233432B53013A0235F2E770BD95
:1048F40000600040031C30B501325210002A07D07A
:10490400044D0C1A64191C5B013A1C800233F5E750
:1049140030BDC0460060004010B5031C00240120D7
:104924001C7198709C60D860FFF708FE201CFFF78C
:1049340005FE201CFFF708FE201CFFF70BFEBF201E
:10494400024B00021860FFF7F9FD10BD10050020AE
:1049540070B57F2528240D406C430E0601D518340C
:1049640000E090340419002A02D1A272A38004E06A
:104974000122E3801B0CA2722381002070BDB0B51C
:104984007F25282480270D4065430F402C1C002FD1
:1049940005D01834451904190120687604E0451936
:1049A4009034903504196F70E2607F221140E370F7
:1049B400217002D16162E16121620022226162619F
:1049C400A261A270032B13D8181CFDF779FF020C07
:1049D4000609081C8021890008E0081C002105E064
:1049E400081CC02101E0081C8021C900FFF7C2FD9A
:1049F400A37A2078002B18D16378A188002B07D0E4
:104A0400FFF752FE2078FFF73BFE2078202126E0B6
:104A1400FFF75AFEA1892078FFF774FE2078FFF78C
:104A24001BFEC021207889012AE0FFF7E5FD2078EC
:104A3400E1882289FFF7A6FE65782078002D11D140
:104A4400FFF70AFE2078FFF71BFE2078FFF7F4FD3E
:104A5400C02120788901FFF7B5FD291C2078FFF7D4
:104A640099FD0FE0FFF7F8FD2078FFF709FE2078A5
:104A7400FFF7D2FD20780021FFF78CFD002120787C
:104A8400FFF7A0FD0020B0BD4AB270B52823002A6C
:104A940004DA7F2421404B43183301E04B43903325
:104AA400C418A67A65782078002E0BD1002D04D086
:104AB400FFF7E6FD2078311C14E0FFF7CDFD2078E8
:104AC400291C20E0002D10D1FFF7C6FD2078FFF748
:104AD400D7FD2078FFF7B0FD2078291CFFF772FD81
:104AE400291C2078FFF756FD0FE0FFF7B5FD20786D
:104AF400FFF7C6FD2078FFF78FFD20780021FFF730
:104B040049FD00212078FFF75DFD002070BD73B5DD
:104B14007F240C402821051C614369180E1CA03613
:104B240032600A1C0020A8329831736010604A6811
:104B34000190934204D90192019A9B1A736001E097
:104B44000193706028236343EB181A1C98329278FF
:104B54009033002A05D10199187889B2FFF7D2FD64
:104B640005E0019A1878597892B2FFF725FE2821BA
:104B74004C43C0212D19903528788901FFF722FD77
:104B8400002076BDF0B57F24071C00202140573C4F
:104B94004C433C19A262626A85B003900E1C2176D4
:104BA400E3622063934204D90392039A9B1AE3625B
:104BB40001E00393E062282575437D192A1CEB1C50
:104BC400DB7F18320192039A002B0BD1019BA06A60
:104BD400998892B2FFF77AFE0399287E89B2FFF78B
:104BE40083FD1AE0019B287E597892B2FFF7E4FD19
:104BF400287EFFF7B7FC430601D5298C01E0019B11
:104C0400D988039AA06A92B2FFF760FE28237343FF
:104C1400FB18187E597EFFF73BFE28214E43BF192F
:104C2400387E0831FFF7B6FC002005B0F0BD000067
:104C34004AB208B52823002A04DA7F2211404B43E4
:104C4400183301E04B439033C118087800280BD186
:104C54000D480E4B026813400D4A53400D4A13434E
:104C6400036001238B700CE001234A788B70002AC7
:104C740003D01021FFF78EFC03E080214901FFF7E8
:104C8400A1FC002008BDC046005C0040BFBF00007E
:104C940010100000808000004AB238B52823002A92
:104CA40004DA7F2421404B43183301E04B43903313
:104CB400C41865782078002D08D0FFF7E1FC20782F
:104CC4003021FFF767FC0023A37007E0FFF7C4FC63
:104CD400C02120788901FFF775FCA570002038BD3C
:104CE40010B501710B480C4B02680C4C1A4022435E
:104CF40002600B480B4C02681A40224302600A4AC5
:104D04001068034009480343136080231943084B88
:104D1400196010BD005C00400F0F0000808000008F
:104D2400045C004081800000085C00408280000038
:104D34004C5C00408021044A090213680B43136051
:104D4400012383707047C046585C00400023F0B5CF
:104D540087B004AAD380B84B1A6805AB91B2198006
:104D6400120400D465E10F2219881140019100D08A
:104D740084E01E881023B14D1E4011D12A68B04B27
:104D8400B04C13402B60207EFFF7DCFCA36A206349
:104D94001818AD4BA0621B68201C5B68311C42E1F3
:104DA4002B6804AA9BB2D380D3881B051BD5A54CC2
:104DB400231C90331878FFF7D5FC231CA833186004
:104DC400261C231C10369433021C1988301CFFF750
:104DD40091FD2A689D4B201C13402B609A4B1B6845
:104DE4009B689847B7E704ABDB881BB2002BB2DAA9
:104DF4002A68964B934C13402B60231C90331878ED
:104E0400271CFFF7AFFCA837021E38600BD0261C06
:104E1400231CA036943319883068FFF76BFD326881
:104E24003B68D3183360884B201C1B6800211B6827
:104E34009847874B9C341A682168864B92B2D218E3
:104E44003E2909D94B099BB2C90601D1013B9BB24A
:104E540081499B020B4306E04B089BB2C90701D56D
:104E640001339BB29B0213802A687C4B1340C022FF
:104E7400920153407A4A13432B606CE7019B04AAC6
:104E84009E006E4BF61833689BB2D380D3881BB256
:104E9400002B68DA32686D4B6A4D13403360282367
:104EA400019A5343EB18029398330393029F9B7820
:104EB40090373878002B0BD1FFF754FC041E2AD00E
:104EC400029BB988A0331868221CFFF713FD22E067
:104ED400FFF748FB031C38785B0407D5FFF7B8FCE1
:104EE400041E0FD0029BF988A03307E0FFF7C0FC33
:104EF400041E07D0039A029B1188A0331868221C51
:104F0400FFF7F8FC2823019A00215343EB18903350
:104F14001878FFF7BDFC2821019B594369180A1C26
:104F2400A8321368E31813600B1CA0331A68121913
:104F34001A605B68002B04D0081C983040688442D7
:104F44000BD2414B01991A6828234B43EB18903339
:104F54001978281C1368984705E0903109789BB2AA
:104F6400281CFFF7D4FD04ABDB881B0600D4F2E653
:104F74002827019C334D7C433268314B2C19134054
:104F8400221C33601832E31CDB7F0392019A2E1C2F
:104F940001320292207E002B0CD1FFF7D3FB021EBC
:104FA40020632AD0029B5F43039BE8599988FFF74B
:104FB4008DFC22E0FFF7D6FA031C207E5B0609D5A0
:104FC400FFF746FC021E20630FD0029B5F43039B46
:104FD400D98807E0FFF74CFC021E206305D0029B32
:104FE400218C5F43E859FFF771FC2823019A0121C2
:104FF4005343F318187EFFF74BFC2824019F6743A3
:10500400F719387EFFF79EFB029B38635C432B59EC
:105014001A182A5134196368397E002B05D1301CC3
:10502400094B1B685B68984795E6301CFFF7AAFD9F
:1050340091E607B0F0BDC046445C0040005C00400F
:105044000F8F000020050020740100208F0F000046
:10505400505C0040066000400080FFFF8FBF0000EE
:1050640080800000F7B56B469D1D00232C4C2B80DF
:1050740023682C4E9BB22B80802331681B022A8824
:105084000B401A4201D0FFF761FE2B8832681340AF
:105094005B050BD5244B254F2360254B381C1B681F
:1050A4001B699847381C0021FFF71AFE2A883168CB
:1050B4000A40930401D51F4B23602B880B40DB046B
:1050C40009D51D4B19482360194B1B689B699847E8
:1050D4000020FEF74DFD2B88326813401B0508D5D0
:1050E400164B12482360124B1B685B699847FEF706
:1050F40025FD2B88326813409B0506D5104B0B48C1
:1051040023600B4B1B68DB6898472B88326813407D
:10511400DB0504D50B4B07202360FEF729FDF7BD03
:10512400445C004010050020FFFB00002005002027
:1051340074010020FFDF0000FFEF0000FFF7000014
:10514400FFFD0000FFFE000070B50E4C051C237B24
:105154000D4E002B08D1A368002B05D03378002B0B
:1051640002D10221FFF764FD8121281CFFF760FDB5
:105174003178022904D1281C221C1F23FFF7C7FC05
:1051840070BDC046841600208016002010B5041C93
:105194000020074B1870074B1870074B1B681B68DF
:1051A4009847201C0221054A1F23FFF7B0FC10BDBD
:1051B400B4160020801600203C0100208416002034
:1051C400002208B5054B02211A70054B01321A70F2
:1051D400044A1F23FFF79BFC08BDC046B4160020F9
:1051E40080160020841600200022014B1A7070479C
:1051F400B4160020094A10B511730021041C084B91
:105204001360084B197081310D23FFF7BBFC201C80
:105214000221054A1F23FFF77AFC10BDA4160020C3
:1052240055534253B41600208416002010B50B4B7E
:10523400041C1B78022B04D00ED3042B0CD80021A1
:1052440008E0074B074A597B00F032F9002803DADB
:10525400201C0121FFF7CEFF10BDC046B41600206C
:105264008416002093160020F8B52C4E041C3578C3
:10527400002D02D0012D45D04FE0294F294D7B68E8
:1052840002216B60BB68AB60FEF7A8FF3A1C1F28C5
:105294000AD1254B3968994206D1797B012903D873
:1052A400BB7B013B0F2B08D9507B0521202200F04A
:1052B400EBF802221D4B1A7005E0201C1C4A00F07A
:1052C400F7F8002803DA201CFFF73EFF25E03378C7
:1052D400013B022B21D9174B201C198800291AD015
:1052E400BA680B1E934200D9131CAA68201CD21A58
:1052F400AA6000222A730432327081210E4AFFF719
:1053040041FC0AE0064B0A4A597B00F0D1F8002818
:1053140003DA201C291CFFF76DFFF8BDB41600202A
:1053240084160020A4160020555342438016002002
:1053340093160020B61600208006002010B5094CF4
:105344002378022B05D18121FFF772FC00232370FF
:1053540007E049B2002904DA012B02D00121FFF74A
:1053640049FF10BD80160020202301480B807047A0
:105374005376000810B5041C812100229823FFF7FE
:10538400E7FA201C02210022D823FFF7E1FA201CAF
:10539400812140220223FFF7F2FA022140220B1C52
:1053A400201CFFF7ECFA201CFFF7F0FE002010BDD4
:1053B40010B5041C8121FFF767FB0221201CFFF7B5
:1053C40063FB201CFFF710FF002010BDF8B560241C
:1053D4000B78061C0D1C1C402ED0202C40D14A7882
:1053E400FE2A02D0FF2A15D020E04C88002C1DD1C3
:1053F400CF88012F1AD15BB2002B17DA1A4B1B6826
:105404009B6998471949C0B2087000280ED0301C17
:105414003A1C1EE04A88002A08D1CC88002C05D109
:105424005BB2002B02DBFFF7CBFE1AE0301C291C19
:10543400FFF760F8022414E04B780A2B07D00B2BFB
:105444000AD0012B0DD10979FFF778FF09E0012279
:105454000749FEF790FE04E04A88054B1A7000E005
:105464000024201CF8BDC0463C0100201505002086
:105474001405002008B5FFF7D9FE002008BD08B5C3
:10548400FFF7F2FE002008BD30B5074C074D237826
:105494001202D80001334155DBB228184260042BB4
:1054A40000D10023237030BDF0160020C816002060
:1054B400F0B5C84F85B0386013781E2B00D188E052
:1054C400161C0C1C1E2B0DD8122B58D005D8002BE3
:1054D4001CD00021032B28D004E21A2B7DD01B2BD7
:1054E40077D0FFE1282B00D1DBE006D8232B00D1B5
:1054F4008BE0252B00D1B3E0F4E12F2B00D1E9E1BF
:105504005A2B76D02A2B00D0ECE147E1B24B9B68B2
:10551400002B02D0B04B587BFCE0B04B081C1B683E
:105524009B689847002854D080E00020AC4A8B1830
:10553400013118701229F8D17023AA4CAA491370AA
:10554400643BD3710978237899420FD0A74DD900D1
:105554004F5D691897704D79013315730979DBB282
:105564005173042B01D0237000E020701222A04B51
:105574001A803279122A00D9AAE11A80A8E1537854
:10558400DB070ED42421954B4C431B68D9690C19B5
:10559400227931790532131C8A4200D90B1C9BB243
:1055A40001E00723934C924A1380002B00D18FE132
:1055B400013B9BB2E15C8A4AD154F6E78E4B8F4A99
:1055C4001B6812689BB29B188D4A1268934200D9DB
:1055D4008FE00025864B1D80A0E10823844A1380B8
:1055E400884A013B9BB2D15C7D4AD154002BF7D150
:1055F4006EE108237E4A1380834A013B9BB2D15C4F
:10560400774AD154002BF7D162E100270022744E6F
:10561400BB1901371A700C2FF8D1704B201C1B6872
:1056240003A95B6802AA9847051E03D0201C022127
:105634003A2271E00823F370039B013B1A0E327186
:105644001A0C7271F3711A0A02233372029BB2713B
:105654001A0C7272F3721A0A654BB2721F805DE102
:105664005E4B674F1B68694E081C5B68391C321C13
:105674009847051EDAD13A68594B013A110E197050
:10568400110C5970DA70110A32689970110E19717F
:10569400110C5971DA71110A08229971544B1A804C
:1056A4003CE15B4F3B78002B3AD14B4D2B7B7F2B5E
:1056B40000D82FE7494B081C1B689B6898470028B3
:1056C400B4D1B378317A1A06F3784C481B041343E7
:1056D40072791343327912021343F279464E12025D
:1056E4000A43944632609918454A0360126891420D
:1056F40003D9201C052121220EE002223A70434ADC
:1057040012685343036063465343AA6833609A4262
:1057140006D0687B05212022FFF7B6FEFF25FDE0B9
:105724008023334A5B011380334A15689D4200D9B4
:105734001D1C364B314E1F68284B391C1B683068C2
:105744000093FDF7C7F8391C0190281CFDF7C2F837
:10575400009A83B21769201C2149019AB84700288E
:1057640003DA201C04211122D6E71A4B1C4A1868BC
:1057740081212B1CFFF706FA3368EB1833601E4BAC
:105784001A68501B1860234B9A68551B9D600028AB
:1057940000D09DE003221E4B1A7099E01C4B1B782D
:1057A400002B52D10C4B1B7B7F2B00D9B2E60B4D47
:1057B400081C2B689B689847002800D036E72B68A4
:1057C400201CDB689847051E26D0201C02212722B6
:1057D400A2E7C046EC160020841600203C010020FD
:1057E40080060020C0160020F0160020C8160020F5
:1057F400B616002073760008C4160020E8160020B0
:10580400B8160020827600087A760008BC160020BC
:10581400B4160020A4160020B378317A1A06F3785F
:1058240040481B0413437279134332791202134321
:10583400F2793D4E12020A4399188C463B490360A3
:10584400096832608C454FD953E7374B1D68802374
:105854005B019D4200D91D1C354B324E1F68354BF0
:10586400391C1B6830680093FDF734F8391C01902B
:10587400281CFDF72FF8009A83B25769201C2E4983
:10588400019AB847002803DA201C0421032243E7C5
:105894003368EB183360244B1A68541B1C60274B85
:1058A4009A68551B9D60264A002C05D11068211C5E
:1058B400FFF7A0FC251C31E08023251C5B019C42E2
:1058C40000D91D1C1068ABB202211B4AFFF71FF957
:1058D400002523E053789B0700D46FE6081C24229C
:1058E400052119E7201C15E7114909684B434A4370
:1058F400144903608B683260934201D0487B09E706
:105904000121114A117080225201934200D9131CC3
:105914009BB238680221084AFFF7F9F868B205B06B
:10592400F0BDC046E8160020C4160020B8160020BA
:10593400BC1600203C01002080060020A416002094
:10594400EC16002084160020B416002002682C4BAC
:10595400134003600023036043608360C360294BEA
:10596400984201D1284A27E0284B984201D1264A7F
:1059740029E0274B984201D1234A2BE0254B98423A
:1059840001D1214A2EE0244B984201D11E4A31E034
:10599400224B984204D1F0211B4A090453682CE09D
:1059A4001F4B984204D1F021174A0905536824E09B
:1059B4001C4B984203D11C4A53680F211DE01B4B1A
:1059C400984203D1184A5368F02116E0184B9842C4
:1059D40004D1154AF021536809010EE0154B984291
:1059E40004D1114AF0215368090206E0124B98428F
:1059F40005D10D4AF021536809030B4353607047E6
:105A0400FEFF000008000240000002401C000240AB
:105A14003000024044000240580002406C00024042
:105A24008000024008040240000402401C040240BA
:105A340030040240440402405804024002680D4B02
:105A440010B51A408C680B6A23430C6923434C69D4
:105A540023438C692343CC6923434C6A23438C6AD4
:105A6400234313430360CB6843600B6883604B6834
:105A7400C36010BD0F80FFFF002303604360836099
:105A8400C360036143618361C361036243628362F0
:105A940070470000002903D001220368134302E089
:105AA4000268024B134003607047C046FEFF0000CB
:105AB40041607047406880B270470000C30001D560
:105AC400044B00E0044B1B680340581E8341D8B2CA
:105AD4007047C0460004024000000240C30001D5E4
:105AE400024B00E0024B58607047C046000402407D
:105AF400000002400121034A13688B4318431060DD
:105B04007047C04600200240044B1A69120603D5B0
:105B1400034A5A60034A5A607047C0460020024054
:105B240023016745AB89EFCD8021024A13690B43FA
:105B340013617047002002400120074BDA680242DB
:105B440009D1DA680018D20605D4D86804231840AD
:105B5400421E9041181A70470020024010B5041CE0
:105B6400FFF7EAFF012807D1002C03D0FFF7E4FF79
:105B7400013CF7E7043002E0002C00D1052010BD01
:105B840070B5061CB0200003FFF7E8FF042810D10D
:105B940002254022B020074C000323692B432361D4
:105BA4006661236913432361FFF7D8FF2369AB437D
:105BB400236170BD00200240F8B5061CB02000032C
:105BC4000F1CFFF7CBFF04280CD10125B020064C95
:105BD400000323692B4323613780FFF7BFFF236949
:105BE400AB432361F8BDC04600200240F7B5002254
:105BF4000B68019301239340019E1E409E422DD1C8
:105C04000C79631E012B16D85700BC460327654642
:105C1400AF408368BB4383604B798768AB403B43A9
:105C240083608388B34383808E798788331C934051
:105C34003B439BB2838003235600B340DB43B44011
:105C440007681F40076007683C430460C46823403A
:105C5400C360CB79C468B3402343C3600132102AC4
:105C6400C8D1F7BD044B01220360002342710371C4
:105C74008371C3717047C046FFFF0000072310B54E
:105C84000F240B409B009A409C40131CC9088900B8
:105C94004018016AA1430162016A0B43036210BD0B
:105CA400827870B50378002A1DD003249908234014
:105CB400DC00FF23104A890089181A1CC025A24061
:105CC400AD004E599643427892011A40131CA340EA
:105CD40033434B511F230278134001229A40131C73
:105CE400054A136006E01F2213401E3A9A40131C13
:105CF400024AD36770BDC04600E100E004E100E061
:105D04000121114B1A680A431A6058680F4A02406D
:105D14005A6018680E4A02401A6018680D4A024018
:105D24001A6058680C4A02400F205A60DA6A8243AB
:105D3400DA62186B094A02401A635A6B8A435A633F
:105D440000229A607047C046001002400CB8FF0859
:105D5400FFFFF6FEFFFFFBFFFFFFC0FFACFEF0FFFF
:105D64000022024B1A7018707047C046021002409D
:105D7400054B10B5054A5C6822405A605A681143C5
:105D84000843586010BDC04600100240FF7FC2FFA8
:105D9400064B002804D080211A6849040A4302E013
:105DA4001968034A0A401A607047C046001002404E
:105DB400FFFFFFFE0F21034AD36A8B431843D062CF
:105DC4007047C046001002400321034A53688B43C6
:105DD400184350607047C04600100240024B586898
:105DE4000C2318407047C04600100240F021034ABB
:105DF40053688B43184350607047C04600100240FC
:105E0400034A044B51680B40184350607047C04626
:105E140000100240FFF8FFFF8021044B1A6B8A43F5
:105E24001A631A6B104318637047C046001002408F
:105E3400F8B50C235A4D041C68681840FCF740FD63
:105E44002121212107212121092121211F00554B35
:105E540018E0C02368686A688002000F5B02861C31
:105E64001A4201D1504807E04D4B4E48D96A0F23DE
:105E740019400131FCF72EFD7043206004E04B4BC8
:105E840000E04B4B0020236021686B680A1C494EDC
:105E94001B061B0FF35CDA40131C62606A68520530
:105EA400520FB25CD340A3602A6BD20501D4424A9C
:105EB40006E03B4A5268520401D45A0800E09A08AA
:105EC400E2602A6B520601D43C4A01E080221202AD
:105ED40022612A6BD20602D4354A626100E0616114
:105EE40003222F6B2E4E174201D1A36112E0376BB0
:105EF4001740012F01D1A1610CE0376B1740022F2D
:105F040002D18022120204E0366B3240032A01D10E
:105F1400274AA261C0222F6B9202174201D1E3618A
:105F240019E01F4E376B802617407602B74201D125
:105F3400E16110E01A4E376B80261740B602B74273
:105F440002D18022120205E0154E366B16409642AD
:105F540001D1174AE261C0222F6B1203104E17427F
:105F640015D08027336BFF021340BB4201D121625D
:105F74000EE08021336B090313408B4202D180234E
:105F84001B0204E0336B1340934201D1084B23629C
:105F94002B6B1B0602D4054B636200E06062F8BD04
:105FA400001002400024F40000093D00006CDC02F3
:105FB40000127A00B8010020809FD50012800000F2
:105FC400044B5A69002902D01043586101E082430E
:105FD4005A61704700100240044B9A69002902D0AC
:105FE4001043986101E082439A61704700100240B7
:105FF400044BDA69002902D01043D86101E08243DE
:10600400DA61704700100240044BDA68002902D0BC
:106014001043D86001E08243DA6070470010024008
:10602400044B1A69002902D01043186101E082432D
:106034001A617047001002404109094A01D11368EE
:1060440008E0012901D1136A04E0022901D1536A4D
:1060540000E0536B1F221040C340012018407047DA
:1060640000100240002307B501931120FFF7E4FF5D
:10607400019B01330193A023019ADB019A4201D0D1
:106084000028F2D01120FFF7D7FF431E9841C0B279
:106094000EBD0023E02203804380D200C38003812D
:1060A40043818381C3810733828003827047000068
:1060B400C12310B504889B01CA891C400B88134373
:1060C400CA8813430A8913434A8913438A891343A9
:1060D400234303808288094B13408A881343042294
:1060E40083800B8A0382038893434A881343038083
:1060F400828B034B1340838310BDC046FFF0FFFF28
:10610400FFF7FFFF40220388002901D0134300E07A
:1061140093430380704700008288034B13408380BD
:106124008388194381807047FFEFFFFF0173704735
:10613400007BC0B270478388002A02D01943818053
:1061440001E08B438380704700890840411E8841E9
:10615400C0B270470321034A13688B43184310608D
:106164007047C0460000014008B52C4B984207D147
:1061740080200121C001FFF747FF8020C00148E0D3
:10618400274B984207D1802001218002FFF748FF66
:10619400802080021FE0234B984207D180200121F8
:1061A400C002FFF73DFF8020C00214E01E4B98425E
:1061B40007D1802001210003FFF732FF8020000374
:1061C40009E01A4B98420AD1802001214003FFF7CD
:1061D40027FF802040030021FFF722FF1CE0144B1F
:1061E400984205D120200121FFF70EFF202010E066
:1061F400104B984205D140200121FFF705FF4020B4
:1062040007E00D4B984207D180200121FFF7FCFEE7
:1062140080200021FFF7F8FE08BDC0460038014089
:106224000044004000480040004C00400050004042
:106234000014014000180140001C01400122F0B587
:106244000D1C03688BB0934303604268224B041C0B
:1062540013408A68134343600268204B1A40CB689A
:1062640049680B4329690B431343036082681C4B41
:1062740013406A69134383606846FFF7D9FD194BDD
:10628400069E9C4208D0184B079E9C4204D0174B94
:10629400089E9C4200D0029E23682F681B0400D5F0
:1062A4007600391C301CFCF715FB391C051C301C0E
:1062B400FCF796FB00237F08B9425B41ED18236885
:1062C4001B0404D50A4B2A07520F1D401543ADB2D7
:1062D400A5810BB0F0BDC046FFCFFFFFF3E9FFFF80
:1062E400FFFCFFFF0038014000440040004800402C
:1062F400F0FF000096239B0103600C22002302613F
:1063040043608360C36043617047012203680029CE
:1063140001D0134300E0934303607047C905C90DDE
:10632400018570478368002A02D01943816001E027
:106334008B4383607047012310B58CB2C9B28B4084
:10634400240A191C022C01D1043002E0032C00D1D0
:1063540008300368002A02D01943016001E08B432E
:10636400036010BDC0690840411E8841C0B2704737
:10637400012310B58AB2CCB2120AA340012A01D17A
:10638400026804E0022A01D1426800E082681340F6
:10639400C2690020834207D00123090C8B401A40B4
:1063A400101C411E8841C0B210BD0123090C8B4052
:1063B4000362704730B50024944208D0035D651C25
:1063C4000C5DA34201D0181B02E02C1CF4E7002052
:1063D40030BD002310B5934203D0CC5CC4540133C8
:1063E400F9E710BD031C8218934202D019700133DF
:1063F400FAE770470FB40B4B13B51C68002C05D09B
:10640400A369002B02D1201C00F078FB05AB201CF3
:10641400A168049A019300F02BFD16BC08BC04B0DB
:106424001847C0462C02002070B5051C0E1C00281D
:1064340004D08369002B01D100F060FBAC68A38910
:106444001B0702D52369002B19D1281C211C00F03D
:10645400E9F9002813D00120404245E03178002BAF
:106464001BDAA269934211DA221C281C00F082F97B
:10647400013042424241D0B20028ECD10136A36837
:106484003278013BA360002AE8D10CE0236819703C
:10649400236819780A2903D1E6E723681970236869
:1064A40001332360EAE7002B17DAA269934208DB81
:1064B4000A2322681370236819780A2911D1281C29
:1064C40001E0281C0A21221C00F054F90130424248
:1064D4004241D0B2002806D0BDE70A2322681370D7
:1064E4002368013323600A2070BD000008B5034B04
:1064F400011C1868FFF798FF08BDC0462C02002055
:10650400F0B500240C4B1E68035DF2185578032285
:106514002A40012A00D120330A5DB5186F7803257B
:106524003D40012D00D120329B1A02D10134002AB2
:10653400EAD1181CF0BDC046C80100200023C25C8B
:106544000133002AFBD1581E7047031C30B5002AC2
:1065540007D00C7801335D1E013A2C700131002CF8
:10656400F5D19A18934203D0002119700133F9E749
:1065740030BD0000F8B5174B071C1D680E1CAC6D30
:10658400002C1FD1502000F0A3FBA8658460AB6DE4
:10659400046044601C61DC60AB6D9C615C61AB6D4C
:1065A400DC629C62AB6D5C631C63AB6DDC639C63FF
:1065B400AB6D5C641C64AB6DDC649C64AB6D1C777C
:1065C400AB6D5C62381C311CAA6D012300F004F829
:1065D400F8BDC0462C020020F0B5041E0CD114688E
:1065E400201E09D126E03778002F0CD00136B8429E
:1065F400F9D1002B04D02C1C651C20780E1CF2E76A
:106604001560237015E0002808D1106012E00778A7
:10661400B74207D00130002FF9D11D1C6B1C2E7816
:10662400081CF4E7002E02D00021297000E0331C7E
:106634001360201CF0BD0000F0B51E1C444B87B055
:106644001B68059002930B1C039101921C78029A1B
:106654005D1C121950780822104001D02B1CF5E75C
:106664002D2C04D19D1C5C780123009304E0009040
:106674002B2C01D15C789D1C002E02D0102E0AD147
:1066840060E0302C5CD120222B789343582B52D1DC
:1066940010266C780235009F311C7B1E9F412D4BC8
:1066A400FF18381CFCF79CF9381C0491311CFCF7CA
:1066B40011F90022071C131C02990919497848078B
:1066C40001D5303C07E00320084017D037210128CA
:1066D40000D02031641AB44210DA511C0BD0BB42F2
:1066E40007D802D1049A944203DC73430122E318CD
:1066F40001E0012252422C780135DDE7181C511CBF
:106704000BD10098059A431E9841124BC0182223BE
:106714001360019B002B0AD117E00099002900D0D7
:106724005842019B002B10D0039B002A00D06B1E03
:10673400019A136009E03024002EACD10826AAE7A0
:106744000A26A8E7302CA6D19DE707B0F0BDC046C5
:10675400C8010020FFFFFF7F38B5051C0C1C131C6B
:10676400034A291C1068221CFFF766FF38BDC04687
:106774002C02002070B5051C0E1C141C002804D02B
:106784008369002B01D100F0B9F9234B9C4201D15C
:106794006C6808E0214B9C4201D1AC6803E0204BBB
:1067A4009C4200D1EC68A369A360A3891B070AD5A6
:1067B4002369002B07D023682269F6B2981A63690B
:1067C40098420FDB08E0281C211C00F02BF800285D
:1067D400F1D0012040421DE0281C211C00F020F9CA
:1067E4000028F6D1A3680130013BA36023685A1C3A
:1067F40022601E706369984205D0A389301CDB07B0
:1068040008D50A2E06D1281C211C00F009F90028FD
:10681400DFD1301C70BDC0468C770008AC7700080F
:10682400CC770008354B70B51D68061C0C1C002D78
:1068340005D0AB69002B02D1281C00F05FF9304B66
:106844009C4201D16C6808E02E4B9C4201D1AC689B
:1068540003E02D4B9C4200D1EC68A3899AB2110746
:1068640023D4D10607D409220120326037321343DE
:10687400A381404240E0530713D5616B002908D03F
:10688400231C4433994202D0301C00F02BFA00231D
:1068940063632422A3899343A38100236360236950
:1068A40023600822A3891343A3812369002B0BD1FE
:1068B400A023A2899B00134080229200934203D01C
:1068C400301C211C00F0ACF90123A289134005D02F
:1068D4000023A36063695B42A36103E0910700D4D2
:1068E4006369A36000202369834205D1130603D59D
:1068F40040231A43A281013870BDC0462C020020F7
:106904008C770008AC770008CC770008F7B58A8943
:10691400051C0C1C13075ED44B68002B02DC0B6CAB
:10692400002B1ADDE76A002F17D000232E682B6096
:1069340080235B011A4001D0626D15E0281C216A96
:106944000123B847021C431C0ED12B68002B0BD02B
:106954001D2B01D0162B02D12E6000205EE04021B9
:10696400A3890B43A38159E0A3895B0706D5636818
:10697400D21A636B002B01D0236CD21A0023281C7B
:10698400216AE76AB847A389421C06D12A68002A0B
:1069940003D01D2A01D0162A19D10022626022696F
:1069A4002260DB0405D5431C02D12B68002B00D1E7
:1069B4006065616B2E600029CFD0231C443399425B
:1069C40002D0281C00F08EF90020606326E04022EB
:1069D4001343A38122E00F69002FBED00B680F6020
:1069E400DB1B01930023920700D14B69A360019B39
:1069F400002BB2DD281C216A3A1C019BA66AB04711
:106A0400002806DC40220120A38940421343A381CD
:106A140004E0019B3F181B1A0193E8E7FEBD000048
:106A240038B50B69051C0C1C002B01D100201CE09F
:106A3400002804D08369002B01D100F05FF80B4BD0
:106A44009C4201D16C6808E0094B9C4201D1AC68BE
:106A540003E0084B9C4200D1EC680C22A35E002B9F
:106A6400E4D0281C211CFFF751FF38BD8C770008A7
:106A7400AC770008CC77000808B5024900F0AEF8FE
:106A840008BDC046256A0008002310B5041C036035
:106A94004360836081814366C28103614361836192
:106AA400191C08225C30FFF79DFC054B24626362CD
:106AB400044BA362044BE362044B236310BDC04642
:106AC400C5730008ED7300082574000851740008AC
:106AD40070B568254B1E5D430E1C291C743100F0F3
:106AE40047F9041E08D000212A1C016046600C30BE
:106AF400A0606832FFF776FC201C70BD836913B573
:106B0400002B28D18364C3640365134B134A1B68A9
:106B140082620193984201D101238361041C00F035
:106B24001FF86060201C00F01BF8A060201C00F01F
:106B340017F80421E06000226068FFF7A5FFA06851
:106B440009210122FFF7A0FFE06812210222FFF7CA
:106B54009BFF0123A36113BDF07700087D6A000841
:106B6400F8B51D4B061C1D68AB69002B02D1281C0F
:106B7400FFF7C4FF4835AC686B68013B05D40C22B1
:106B8400A75E002F10D06834F7E72B68002B06D1DE
:106B9400301C0421FFF79CFF2860002801D02D68D9
:106BA400E9E70C23336016E00123201C5B42E381F8
:106BB4000233A38167662760A76067602761676106
:106BC400A7615C30391C0822FFF70CFC201C6763AA
:106BD400A763A764E764F8BDF0770008F7B5041C61
:106BE400071C002601914834002C16D06368A56860
:106BF4000093009B013B00930DD4AB89012B08D972
:106C04000E22AB5E013304D0381C291C019B98472B
:106C140006436835EDE72468E6E7301CFEBD000056
:106C2400F0B58B8991B09B0706D50B1C47330B60DD
:106C34000B6101234B6145E00C1C0E23C95E061C4D
:106C4400002904DA8023A5891D4010D10CE001AA93
:106C540000F028FC0028F5DBF023029D1B021D40F8
:106C6400194BED186B425D418027FF0001E00025C0
:106C74004027301C391C00F07BF800280CD1A38974
:106C84009A051FD402221343A381231C4733236094
:106C940023610123636115E080220C4BB362A38955
:106CA40020601343A38120616761002D0AD00E2365
:106CB400E15E301C00F008FC002803D00122A38907
:106CC4001343A38111B0F0BD00E0FFFF7D6A00080B
:106CD40008B5034B011C186800F04AF808BDC0460B
:106CE4002C02002030B500293ED004390B68002B5B
:106CF40000DAC9181D4A1368141C002B02D14B601A
:106D0400116031E099420DD208680A189A4203D101
:106D14001368C3180B6053684B60216024E08A42F7
:106D240003D8131C5A68002AF9D11D685C198C42D7
:106D34000BD10968691858181960904214D1106869
:106D44005268091819605A600EE08C4202D90C236B
:106D5400036009E008680C18944203D1146852686F
:106D6400001908604A60596030BDC0461C05002007
:106D7400032370B5CC1C9C430834051C0C2C01D295
:106D84000C2405E0002C03DA0C2300202B6042E0E5
:106D94008C42F9D3204A1368101C191C002913D003
:106DA4000A68121B0DD40B2A02D90A608B181FE043
:106DB4008B4202D15A6802601BE04A685A600B1C7D
:106DC40017E00B1C4968E9E7144E3368002B03D124
:106DD400281C00F0E3FA3060281C211C00F0DEFAC5
:106DE400031C421CD0D00322C61C964386420AD1FF
:106DF4001C60181C07210B301A1D8843821A0AD004
:106E04005142995007E0311A281C00F0C7FA431C7C
:106E1400BAD0331CECE770BD1C0500201805002017
:106E2400936810B5013B9360002B05DA9469A34283
:106E340008DBCBB20A2B05D01368581C10601970FC
:106E4400C8B201E0FFF796FC10BDF8B5061C0F1C94
:106E5400141CD518AC4208D02178301C3A1CFFF71A
:106E6400DFFF0134431CF5D100E00020F8BD000031
:106E7400F0B59FB0061C0F1C02920593002804D0A5
:106E84008369002B01D1FFF739FE794B9F4201D171
:106E9400776808E0774B9F4201D1B76803E0764BEF
:106EA4009F4200D1F768BB891B070AD53B69002BB9
:106EB40007D0002306AD6B6120336B761033AB76BD
:106EC4003DE0301C391CFFF7ADFC0028F1D0012057
:106ED4004042CAE0059A111D12680591002A7EDB22
:106EE4000992013423782E2B00D189E0217863485C
:106EF400032200F00FFB002808D0604B0134C01AB5
:106F040040238340181C2B68184328602178631C95
:106F14005B4806220293297600F0FCFA002800D18F
:106F240091E0584B002B00D084E00722059B0733E7
:106F34009343083305936B69039A9B186B61029C16
:106F44002378002B04D1029BE31A049311D003E0AD
:106F5400252BF8D00134F3E7049B301C391C029A2A
:106F6400FFF773FF431C7BD06A69049B9446634418
:106F74006B612378002B73D00122002352426A6094
:106F840002A95432521801342B60EB60AB601370C9
:106F9400AB6521783C48052200F0BCFA002809D0F2
:106FA400394B0134C01A01238340181C2B68184341
:106FB4002860EEE72B68DA0604D55322202102A8C4
:106FC400121811701A0704D553222B2102A8121883
:106FD400117022782A2A00D17CE7099B05E05242ED
:106FE400EA60022213432B607BE72278303A092AB5
:106FF40004D80A214B4301349B18F6E7099371E73F
:1070040063782A2B09D1059B02341A1D1B6805924B
:10701400002B0DDA01235B420AE0002301342278BD
:10702400303A092A04D80A214B4301349B18F6E765
:1070340007935BE705AB0093301C291C3A1C134BE8
:1070440000E000BF07E005AB0093301C291C3A1C8C
:107054000E4B00F08BF80390039B013300D06AE7DA
:10706400BB895B0600D532E70B981FB0F0BDC04664
:107074008C770008AC770008CC770008FA77000812
:10708400FE77000800000000F47700084F6E000847
:10709400F7B5171C01930A698B6800900C1C934286
:1070A40000DA131C221C3B6043321278002A01D000
:1070B40001333B6023689B0602D53B6802333B6087
:1070C400062523681D401ED0231C43331B785A1EFB
:1070D4009341226892061CD53020E1184031C870D3
:1070E400211C5A1C45310978A21840320233D17050
:1070F4000FE0221C0123009801991932089EB04721
:10710400431C0ED00135E3683A689B1A9D42F0DBBC
:10711400DAE7221C009801994332089DA847431CD2
:1071240002D10120404220E006232068E1683A6849
:1071340003400025042B03D18D1AEB43DB171D40BC
:10714400A3682269934201DD9B1AED180027AF4220
:107154000ADA221C0123009801991A32089EB047CA
:10716400431CDED00137F2E70020FEBDF0B58BB042
:1071740006920A1C43320793059004920A7E0C1C63
:10718400109B6E2A00D1A8E011D8632A22D009D816
:10719400002A00D1B2E0582A00D0C2E045310A707A
:1071A4007C4A4FE0642A1DD0692A1BD0B9E0732AB7
:1071B40000D1A7E009D86F2A29D0702A00D0B0E006
:1071C400202209680A43226037E0752A1FD0782AF2
:1071D40033D0A6E00E1C1A684236111D19601368DC
:1071E4003370A1E021681A68080606D4490604D55C
:1071F400111D19600023D55E02E0111D1960156888
:10720400002D3BDA2D23049A6D42137036E0216879
:107214001A68080606D4490604D51568111D1960B4
:10722400ADB202E0111D196015685A4B227E03931A
:107234000A276F2A1DD108271BE0221C782145321A
:107244001170554A19680392081D226818600D6868
:10725400100602D4500600D5ADB2D30702D52023C0
:107264001A4322601027002D03D1202322689A4359
:107274002260231C002243331A7002E00A27454B84
:1072840003936368A360002B03DB0422216891430A
:107294002160002D02D1049E002B0ED0049E281CD8
:1072A400391CFBF79DFB039B013E5B5C281C337080
:1072B400391CFBF70FFB051EF1D1082F09D12368F8
:1072C400DB0706D563682269934202DC3023013E62
:1072D4003370049B9B1B23612BE009681A68080622
:1072E40007D4490605D5111D19601368A28A1A80AE
:1072F40004E0111D1960136862691A600023049E7A
:10730400236116E01A68111D196016680021301CEB
:10731400626800F0FFF8002801D0801B6060636899
:1073240003E0261C42363270012323610023049AB1
:107334001370079B05980093211C069B09AAFFF76D
:10734400A7FE431C02D10120404221E02369059895
:107354000699321C079DA847431CF4D023689B0759
:1073640005D4099BE068984212DA181C10E0002545
:10737400E368099A9B1A9D42F3DA221C01230598BB
:1073840006991932079EB047431CDCD00135EFE75C
:107394000BB0F0BD057800081678000838B5002356
:1073A400064C051C081C2360FBF7A4FD431C03D1F9
:1073B4002368002B00D02B6038BDC046F416002093
:1073C40038B50C1C0E25495F00F0B0F8002803DB2B
:1073D400636D1B18636503E0A289024B1340A3810C
:1073E40038BDC046FFEFFFFFF8B51E1C8B89051C96
:1073F4000C1C171CDB0505D50E23C95E00220223D5
:1074040000F074F8A289054B281C1340A3813A1C90
:107414000E23E15E331C00F01FF8F8BDFFEFFFFF01
:1074240038B50C1C0E25495F00F060F8A389421C96
:1074340003D1054A1340A38104E08022520113437F
:10744400A381606538BDC046FFEFFFFF08B50E237A
:10745400C95E00F015F808BD38B5051C0020074CBE
:107464002060081C111C1A1CFBF768FD431C03D187
:107474002368002B00D02B6038BDC046F4160020D2
:1074840038B50023064C051C081C2360FBF748FD97
:10749400431C03D12368002B00D02B6038BDC046A9
:1074A400F416002038B50023064C051C081C111CDA
:1074B4002360FBF738FD431C03D12368002B00D065
:1074C4002B6038BDF416002038B50023064C051C8B
:1074D400081C2360FBF72CFD431C03D12368002BFD
:1074E40000D02B6038BDC046F416002038B5051C0A
:1074F4000020074C2060081C111C1A1CFBF71AFD05
:10750400431C03D12368002B00D02B6038BDC04638
:10751400F4160020C9B28218904204D003788B423A
:1075240002D00130F8E700207047000038B5051C90
:107534000020074C2060081C111C1A1CFBF7FCFCE3
:10754400431C03D12368002B00D02B6038BDC046F8
:10755400F41600205244007374610074657374005F
:107564006A65646563002530386C580A0057520018
:1075740066726571006F6B0070756C6C75705F6F0F
:107584006E0070756C6C75705F6F66660064656222
:107594007567007A745F7374617274007A745F73D0
:1075A400746F7000544553540054455354204F4B4A
:1075B400005245424F4F5400446F6E652E003F20E9
:1075C4002C230048656C6C6F2C20776F726C642ED2
:1075D4000004030904120100020000004083042097
:1075E400570002010203014D6173732053746F72DB
:1075F40061676520696E204653204D6F64650053B2
:10760400544D6963726F656C656374726F6E696300
:1076140073004D534320436F6E666967004D5343B7
:1076240020496E7465726661636500008002021F02
:1076340000000053544D20202020206D6963726F98
:10764400534420466C617368202020312E30300969
:10765400022000010104C03209040000020806509F
:1076640005070581024000000705020240000000F2
:1076740000000300808300060000000000000000FA
:1076840000000000000000202020202020202020D6
:1076940028282828282020202020202020202020BE
:1076A40020202020202020881010101010101010EE
:1076B4001010101010101004040404040404040432
:1076C40004101010101010104141414141410101BA
:1076D4000101010101010101010101010101010196
:1076E40001011010101010104242424242420202A4
:1076F4000202020202020202020202020202020266
:107704000202101010102000000000000000000011
:107714000000000000000000000000000000000065
:107724000000000000000000000000000000000055
:107734000000000000000000000000000000000045
:107744000000000000000000000000000000000035
:107754000000000000000000000000000000000025
:107764000000000000000000000000000000000015
:107774000000000000000000000000000000000005
:1077840000000000000000000000000000000000F5
:1077940000000000000000000000000000000000E5
:1077A40000000000000000000000000000000000D5
:1077B40000000000000000000000000000000000C5
:1077C40000000000000000000000000000000000B5
:1077D40000000000000000000000000000000000A5
:1077E400000000000000000043000000CC01002065
:1077F400232D302B2000686C4C0065666745464796
:107804000030313233343536373839414243444518
:107814004600303132333435363738396162636487
:047824006566000095
:10782800FF0000004D3A0008593A0008B13A000834
:10783800953A0008653A0008CD3A0008E93A000888
:107848001A03000000000000000000000000000013
:1078580000000000000000000000000040010020BF
:10786800193C00081D3C00082D3C0008313C00086C
:10787800393C00084B3C0008353C00082F760008CE
:10788800673C0008693C00086B3C00086D3C000838
:107898006F3C000878010020B9400008214000082A
:1078A800D53F0008793F00088D3F0008633F000876
:1078B8004D3F000879530008B5530008D15300081C
:1078C80000000000000000007954000883540008FC
:1078D800000000006D5300080000000001020304CE
:1078E80001020304060708098A7600080000000060
:1078F8008C770008AC770008CC77000800000000FF
:10790800000000000000000000000000EC77000804
:10791800000000000000000000000000000000005F
:10792800000000000000000000000000000000004F
:10793800000000000000000000000000000000003F
:10794800000000000000000000000000CC01002042
:0400000508002BDDE7
:00000001FF
