:020000040800F2
:1000000000200020611000089111000893110008E1
:1000100095110008971100089911000800000000D0
:100020000000000000000000000000009B1100081C
:100030009D110008000000009F1100087D110008BC
:10004000A5100008A5100008A5100008A5100008BC
:10005000A5100008A5100008A5100008A5100008AC
:10006000A5100008A5100008A51000086D110008D3
:10007000A5100008A5100008A5100008A51000088C
:10008000A5100008A5100008A51000080000000039
:10009000000000000000000000000000A5100008A3
:1000A000A5100008A5100008A5100008A51000085C
:1000B000A5100008A5100008A5100008A51000084C
:1000C000A5100008A5100008A5100008A51000083C
:1000D000A510000845110008A5100008A51000088B
:1000E000A5100008A5100008A510000800000000D9
:1000F0000000000000000000000000000000000000
:1001000000000000000000000000000000000000EF
:100110000000000000000000A5100008F115000814
:1001200000000000000000000000000000000000CF
:1001300000000000000000000000000000000000BF
:1001400000000000000000000000000000000000AF
:10015000000000000000000000000000000000009F
:10016000000000000000000000000000000000008F
:10017000000000000000000000000000000000007F
:10018000000000000000000000000000000000006F
:10019000000000000000000000000000000000005F
:1001A000000000000000000000000000000000004F
:1001B000000000000000000000000000000000003F
:1001C0000000000000000000000000005FF808F1DF
:1001D00081F0004102E000BF83F0004330B54FEAF8
:1001E00041044FEA430594EA050F08BF90EA020F65
:1001F0001FBF54EA000C55EA020C7FEA645C7FEAF8
:10020000655C00F0E2804FEA5454D4EB5555B8BF1A
:100210006D420CDD2C4480EA020281EA030382EA8B
:10022000000083EA010180EA020281EA0303362D1D
:1002300088BF30BD11F0004F4FEA01314FF4801CF0
:100240004CEA113102D0404261EB410113F0004F02
:100250004FEA03334CEA133302D0524263EB4303B9
:1002600094EA050F00F0A780A4F10104D5F1200E57
:100270000DDB02FA0EFC22FA05F2801841F10001B2
:1002800003FA0EF2801843FA05F359410EE0A5F186
:1002900020050EF1200E012A03FA0EFC28BF4CF0B7
:1002A000020C43FA05F3C01851EBE37101F000456D
:1002B00007D54FF0000EDCF1000C7EEB00006EEB7A
:1002C0000101B1F5801F1BD3B1F5001F0CD3490804
:1002D0005FEA30004FEA3C0C04F101044FEA44525B
:1002E00012F5800F80F09A80BCF1004F08BF5FEAE2
:1002F000500C50F1000041EB045141EA050130BDC2
:100300005FEA4C0C404141EB010111F4801FA4F164
:100310000104E9D191F0000F04BF01460020B1FAB9
:1003200081F308BF2033A3F10B03B3F120020CDAF1
:100330000C3208DD02F1140CC2F10C0201FA0CF0CF
:1003400021FA02F10CE002F11402D8BFC2F1200C34
:1003500001FA02F120FA0CFCDCBF41EA0C019040EA
:10036000E41AA2BF01EB0451294330BD6FEA040433
:100370001F3C1CDA0C340EDC04F11404C4F120021E
:1003800020FA04F001FA02F340EA030021FA04F330
:1003900045EA030130BDC4F10C04C4F1200220FA87
:1003A00002F001FA04F340EA0300294630BD21FAC5
:1003B00004F0294630BD94F0000F83F4801306BF8B
:1003C00081F480110134013D4EE77FEA645C18BF7F
:1003D0007FEA655C29D094EA050F08BF90EA020F16
:1003E00005D054EA000C04BF1946104630BD91EA0E
:1003F000030F1EBF0021002030BD5FEA545C05D111
:100400004000494128BF41F0004130BD14F580044F
:100410003CBF01F5801130BD01F0004545F0FE41C3
:1004200041F470014FF0000030BD7FEA645C1ABFF8
:10043000194610467FEA655C1CBF0B46024650EA2F
:10044000013406BF52EA033591EA030F41F400215B
:1004500030BD00BF90F0000F04BF0021704730B5E1
:100460004FF4806404F132044FF000054FF00001B6
:1004700050E700BF90F0000F04BF0021704730B577
:100480004FF4806404F1320410F0004548BF40424C
:100490004FF000013EE700BF42004FEAE2014FEAA1
:1004A00031014FEA02701FBF12F07F4393F07F4F7C
:1004B00081F06051704792F0000F14BF93F07F4FAE
:1004C000704730B54FF4607401F0004521F00041F1
:1004D00020E700BF50EA010208BF704730B54FF077
:1004E00000050AE050EA010208BF704730B511F07C
:1004F000004502D5404261EB41014FF4806404F1B4
:1005000032045FEA915C3FF4DCAE4FF003025FEA35
:10051000DC0C18BF03325FEADC0C18BF033202EBBD
:10052000DC02C2F1200300FA03FC20FA02F001FA17
:1005300003FE40EA0E0021FA02F11444C1E600BFB6
:1005400070B54FF0FF0C4CF4E06C1CEA11541DBF69
:100550001CEA135594EA0C0F95EA0C0F00F0DEF834
:100560002C4481EA030621EA4C5123EA4C5350EA19
:10057000013518BF52EA033541F4801143F480136A
:1005800038D0A0FB02CE4FF00005E1FB02E506F0FB
:100590000042E0FB03E54FF00006E1FB03569CF050
:1005A000000F18BF4EF0010EA4F1FF04B6F5007F56
:1005B00064F5407404D25FEA4E0E6D4146EB0606C8
:1005C00042EAC62141EA55514FEAC52040EA5E5051
:1005D0004FEACE2EB4F1FD0C88BFBCF5E06F1ED8FB
:1005E000BEF1004F08BF5FEA500E50F1000041EB32
:1005F000045170BD06F0004646EA010140EA0200DF
:1006000081EA0301B4EB5C04C2BFD4EB0C0541EA00
:10061000045170BD41F480114FF0000E013C00F315
:10062000AB8014F1360FDEBF002001F0004170BD39
:10063000C4F10004203C35DA0C341BDC04F1140452
:10064000C4F1200500FA05F320FA04F001FA05F2DE
:1006500040EA020001F0004221F0004110EBD370AB
:1006600021FA04F642EB06015EEA430E08BF20EAD7
:10067000D37070BDC4F10C04C4F1200500FA04F37A
:1006800020FA05F001FA04F240EA020001F000410C
:1006900010EBD37041F100015EEA430E08BF20EA7F
:1006A000D37070BDC4F1200500FA05F24EEA020EC7
:1006B00020FA04F301FA05F243EA020321FA04F0F6
:1006C00001F0004121FA04F220EA020000EBD370AD
:1006D0005EEA430E08BF20EAD37070BD94F0000FAD
:1006E0000FD101F00046400041EB010111F4801FE1
:1006F00008BF013CF7D041EA060195F0000F18BF92
:10070000704703F00046520043EB030313F4801FCD
:1007100008BF013DF7D043EA0603704794EA0C0F87
:100720000CEA135518BF95EA0C0F0CD050EA41069D
:1007300018BF52EA4306D1D181EA030101F000411A
:100740004FF0000070BD50EA410606BF1046194642
:1007500052EA430619D094EA0C0F02D150EA01364E
:1007600013D195EA0C0F05D152EA03361CBF10468F
:1007700019460AD181EA030101F0004141F0FE412E
:1007800041F470014FF0000070BD41F0FE4141F4B2
:10079000780170BD70B54FF0FF0C4CF4E06C1CEAB2
:1007A00011541DBF1CEA135594EA0C0F95EA0C0F67
:1007B00000F0A7F8A4EB050481EA030E52EA033522
:1007C0004FEA013100F088804FEA03334FF0805543
:1007D00045EA131343EA12634FEA022245EA111570
:1007E00045EA10654FEA00260EF000419D4208BF21
:1007F000964244F1FD0404F5407402D25B084FEACE
:100800003202B61A65EB03055B084FEA32024FF479
:1008100080104FF4002CB6EB020E75EB030E22BFD6
:10082000B61A754640EA0C005B084FEA3202B6EB96
:10083000020E75EB030E22BFB61A754640EA5C0045
:100840005B084FEA3202B6EB020E75EB030E22BFD5
:10085000B61A754640EA9C005B084FEA3202B6EBD6
:10086000020E75EB030E22BFB61A754640EADC0095
:1008700055EA060E18D04FEA051545EA16754FEAF7
:1008800006164FEAC30343EA52734FEAC2025FEA15
:100890001C1CC0D111F4801F0BD141EA00014FF0A4
:1008A00000004FF0004CB6E711F4801F04BF014375
:1008B0000020B4F1FD0C88BFBCF5E06F3FF6AFAE91
:1008C000B5EB030C04BFB6EB020C5FEA500C50F121
:1008D000000041EB045170BD0EF0004E4EEA1131A4
:1008E00014EB5C04C2BFD4EB0C0541EA045170BDAB
:1008F00041F480114FF0000E013C90E645EA060EEF
:100900008DE60CEA135594EA0C0F08BF95EA0C0F1C
:100910003FF43BAF94EA0C0F0AD150EA01347FF464
:1009200034AF95EA0C0F7FF425AF104619462CE73B
:1009300095EA0C0F06D152EA03353FF4FDAE10469E
:10094000194622E750EA410618BF52EA43067FF4EF
:10095000C5AE50EA41047FF40DAF52EA43057FF47F
:10096000EBAE12E74FEA410212F5001215D211D593
:100970006FF47873B3EB625212D94FEAC12343F09C
:10098000004343EA505311F0004F23FA02F018BF1E
:10099000404270474FF00000704750EA013005D1E7
:1009A00011F0004008BF6FF0004070474FF00000AA
:1009B000704700BF4A0011D212F5001211D20DD5B6
:1009C0006FF47873B3EB62520ED44FEAC12343F055
:1009D000004343EA505323FA02F070474FF00000FF
:1009E000704750EA013002D14FF0FF3070474FF0AE
:1009F000000070474FEA4102B2F1E04324BFB3F573
:100A0000001CDCF1FE5C0DD901F0004C4FEAC00285
:100A10004CEA5070B2F1004F40EB830008BF20F069
:100A20000100704711F0804F21D113F13872BCBF23
:100A300001F00040704741F480114FEA5252C2F178
:100A40001802C2F1200C10FA0CF320FA02F018BFC1
:100A500040F001004FEAC1234FEAD32303FA0CFC14
:100A600040EA0C0023FA02F34FEA4303CCE77FEAA3
:100A7000625307D150EA01331EBF4FF0FE4040F4ED
:100A80004000704701F0004040F0FE4040F400009C
:100A9000704700BF80F0004002E000BF81F00041DD
:100AA00042001FBF5FEA410392EA030F7FEA226C14
:100AB0007FEA236C6AD04FEA1262D2EB1363C1BFA4
:100AC000D218414048404140B8BF5B42192B88BF13
:100AD000704710F0004F40F4000020F07F4018BF36
:100AE000404211F0004F41F4000121F07F4118BF56
:100AF000494292EA030F3FD0A2F1010241FA03FCFE
:100B000010EB0C00C3F1200301FA03F100F00043E5
:100B100002D5494260EB4000B0F5000F13D3B0F1AD
:100B2000807F06D340084FEA310102F10102FE2A1C
:100B300051D2B1F1004F40EBC25008BF20F001008C
:100B400040EA03007047490040EB000010F4000F3A
:100B5000A2F10102EDD1B0FA80FCACF1080CB2EBCD
:100B60000C0200FA0CF0AABF00EBC250524218432C
:100B7000BCBFD0401843704792F0000F81F40001D1
:100B800006BF80F400000132013BB5E74FEA4103A4
:100B90007FEA226C18BF7FEA236C21D092EA030F10
:100BA00004D092F0000F08BF0846704790EA010F8A
:100BB0001CBF0020704712F07F4F04D1400028BFB7
:100BC00040F00040704712F100723CBF00F5000099
:100BD000704700F0004343F0FE4040F400007047CF
:100BE0007FEA226216BF08467FEA2363014642027B
:100BF00006BF5FEA412390EA010F40F4800070478E
:100C00004FF0000304E000BF10F0004348BF404233
:100C10005FEA000C08BF704743F0964301464FF06F
:100C200000001CE050EA010208BF70474FF00003CB
:100C30000AE000BF50EA010208BF704711F000430C
:100C400002D5404261EB41015FEA010C02BF8446DC
:100C50000146002043F0B64308BFA3F18053A3F53B
:100C60000003BCFA8CF2083AA3EBC25310DB01FA82
:100C700002FC634400FA02FCC2F12002BCF1004F06
:100C800020FA02F243EB020008BF20F00100704797
:100C900002F1200201FA02FCC2F1200250EA4C00EB
:100CA00021FA02F243EB020008BF20EADC70704731
:100CB0004FF0FF0C1CEAD0521EBF1CEAD15392EA3F
:100CC0000C0F93EA0C0F6FD01A4480EA010C40021B
:100CD00018BF5FEA41211ED04FF0006343EA501075
:100CE00043EA5111A0FB01310CF00040B1F5000FB7
:100CF0003EBF490041EAD3715B0040EA010062F166
:100D00007F02FD2A1DD8B3F1004F40EBC25008BF4F
:100D100020F00100704790F0000F0CF0004C08BF6D
:100D200049024CEA502040EA51207F3AC2BFD2F13A
:100D3000FF0340EAC250704740F400004FF0000348
:100D4000013A5DDC12F1190FDCBF00F00040704782
:100D5000C2F10002410021FA02F1C2F1200200FAC0
:100D600002FC5FEA310040F1000053EA4C0308BF87
:100D700020EADC70704792F0000F00F0004C02BFD8
:100D8000400010F4000F013AF9D040EA0C0093F053
:100D9000000F01F0004C02BF490011F4000F013BAD
:100DA000F9D041EA0C018FE70CEAD15392EA0C0F1B
:100DB00018BF93EA0C0F0AD030F0004C18BF31F086
:100DC000004CD8D180EA010000F00040704790F05C
:100DD000000F17BF90F0004F084691F0000F91F000
:100DE000004F14D092EA0C0F01D142020FD193EAC6
:100DF0000C0F03D14B0218BF084608D180EA01004E
:100E000000F0004040F0FE4040F40000704740F029
:100E1000FE4040F4400070474FF0FF0C1CEAD052F7
:100E20001EBF1CEAD15392EA0C0F93EA0C0F69D053
:100E3000A2EB030280EA010C49024FEA402037D0BE
:100E40004FF0805343EA111143EA10130CF00040B5
:100E50008B4238BF5B0042F17D024FF4000C8B42A5
:100E600024BF5B1A40EA0C00B3EB510F24BFA3EB85
:100E7000510340EA5C00B3EB910F24BFA3EB910355
:100E800040EA9C00B3EBD10F24BFA3EBD10340EAAF
:100E9000DC001B0118BF5FEA1C1CE0D1FD2A3FF6F5
:100EA00050AF8B4240EBC25008BF20F001007047AA
:100EB0000CF0004C4CEA50207F32C2BFD2F1FF034D
:100EC00040EAC250704740F400004FF00003013A7E
:100ED00037E792F0000F00F0004C02BF400010F422
:100EE000000F013AF9D040EA0C0093F0000F01F036
:100EF000004C02BF490011F4000F013BF9D041EA58
:100F00000C0195E70CEAD15392EA0C0F08D142028A
:100F10007FF47DAF93EA0C0F7FF470AF084676E75D
:100F200093EA0C0F04D14B023FF44CAF08466EE736
:100F300030F0004C18BF31F0004CCAD130F0004204
:100F40007FF45CAF31F000437FF43CAF5FE700BF5C
:100F50004FF0FF3C06E000BF4FF0010C02E000BF85
:100F60004FF0010C4DF804CD4FEA410C7FEA6C5C68
:100F70004FEA430C18BF7FEA6C5C1BD001B050EA0B
:100F8000410C0CBF52EA430C91EA030F02BF90EAF6
:100F9000020F0020704710F1000F91EA030F58BFB5
:100FA000994208BF90422CBFD8176FEAE37040F017
:100FB000010070474FEA410C7FEA6C5C02D150EAB5
:100FC000013C07D14FEA430C7FEA6C5CD6D152EA70
:100FD000033CD3D05DF8040B704700BF8446104635
:100FE00062468C461946634600E000BF01B5FFF734
:100FF000B7FF002848BF10F1000F01BD4DF808ED04
:10100000FFF7F4FF0CBF012000205DF808FB00BFD4
:101010004DF808EDFFF7EAFF34BF012000205DF82E
:1010200008FB00BF4DF808EDFFF7E0FF94BF01207B
:1010300000205DF808FB00BF4DF808EDFFF7CEFF7C
:1010400094BF012000205DF808FB00BF4DF808EDBB
:10105000FFF7C4FF34BF012000205DF808FB00BF8C
:10106000002103E00A4B5B584350043109480A4B06
:1010700042189A42F6D3094A02E0002342F8043BA0
:10108000074B9A42F9D300F00EF800F041F8704790
:101090004262000800000020B4000020B4000020DC
:1010A00044040020FEE710B500F00AFF00214FF0D5
:1010B000006000F0A9FC4FF4803000F023FF01F045
:1010C0002DF80128044621D1002000F065FF002002
:1010D00000F076FF002000F069FF0020214600F0BC
:1010E0003DFF4FF480304FF4802100F027FF204671
:1010F00000F02EFF392000F0FDFF0028FAD002207A
:1011000000F038FF00F040FF0828FBD110BD0000C0
:1011100045F6BF5208B5094BF0215A60084A82F8DB
:10112000231000229A6007221A6000F051FB00F0A1
:101130008BF800F077F900F06FFAFCE710E000E0C0
:1011400000ED00E008B5084840F2244101F0F3F852
:1011500048B1054800F042FBBDE80840024840F2B3
:10116000244101F007B908BD0038014008B500F07E
:1011700013F9BDE80840012000F012BE08B500F0E8
:101180001BF8024A13680133136008BDB400002045
:101190007047FEE7FEE7FEE7FEE7704770477047DF
:1011A00082B00190019A034B1A601A68002AFCD1A0
:1011B00002B07047A8010020034B1A6812B11A68E8
:1011C000013A1A60704700BFA8010020074B1A6857
:1011D0000AB9074A1A606A461B68184490429DBFC4
:1011E000024A106018464FF0FF307047B8000020E8
:1011F000440400204FF0FF3070474FF400534B6021
:101200000020704701207047002070470020704781
:1012100070B50E4615460C46A31B9BB2AB420BDACB
:10122000064814F8011B01F07CF80448402101F045
:101230007CF80028F9D0EFE7284670BD003801405F
:10124000004870474801002030B5042093B00121C8
:1012500000F020FF40F20120012100F01BFF0120DF
:10126000014600F00BFF684600F0F2FD84230025E4
:101270006946ADF800304348032301248DF803503C
:101280008DF8023000F096FD0B2301A88DF8043094
:101290008DF805408DF806408DF8074000F07EFB84
:1012A000394800F0C1FC07A800F054FD374B364820
:1012B0000793374B07A9089340230A9380230C9385
:1012C0004FF480730D934FF480630E9320230F939C
:1012D0004FF40053109309950B95119500F01CFDE8
:1012E00022460221284800F04DFD022000F058FD62
:1012F0002146254800F03BFD264800F08FFB28469C
:1013000000F068FE02A800F0DBFB224800F086FB3C
:101310004FF46023029505951E48022502A9049307
:101320008DF80C408DF80D408DF8185000F0A4FB9E
:10133000184829462246072300F0F8FB07210B46F0
:101340002A46144800F0F2FB124800F0D4FB114882
:10135000214600F0C7FB0F48214600F0BAFB0D48BC
:1013600000F0CEFB0028FAD10A4800F0CDFB094876
:1013700000F0CFFB0028FAD10648012100F0CDFB98
:1013800013B030BD00080140080002404C24014069
:10139000C8000020002401402DE9F8431C4A1D4BE1
:1013A00017461E461568D3F800900024DFF87080B9
:1013B00038F80400FFF728FC01462846FFF770FBC9
:1013C00008EB040305465888FFF71EFC0146484613
:1013D000FFF766FB0434802C8146E7D10E4C3D605C
:1013E000236830600133642B23600ED12946FFF758
:1013F00013FD0A49FFF75CFC054A00231360054A08
:10140000C8F88000136000232360BDE8F88300BFA4
:10141000C0000020BC000020C400002000002040CC
:10142000C800002070B54FF0005086B0012100F0D8
:101430003DFE0420012100F02DFE0121082000F0D6
:1014400029FE01A800F004FD00240223102501A9B3
:1014500012488DF80630ADF804508DF8074000F0C2
:10146000A9FC8DF807500E4D01A94FF4604628469F
:10147000ADF8046000F09EFC02A86E6100F0AEFBC7
:10148000204602A903940594029400F091FB2046A3
:10149000012100F0A9FB06B070BD00BF00080140AB
:1014A000000C01400000000010B54D4C4FF46042AC
:1014B0006428626126DCFEF7DDFF0022494BFFF75E
:1014C00069F90022484BFFF73BF837A3D3E9002323
:1014D000FFF760F936A3D3E90023FFF731F836A30D
:1014E000D3E90023FFF72CF835A3D3E90023FFF756
:1014F00051F9FFF75FFA81B2002000F085FB4FF44D
:1015000000434CE0B0F5FA7F22DCFEF7B3FF002287
:10151000344BFFF73FF924A3D3E90023FFF73AF94F
:1015200023A3D3E90023FFF70BF823A3D3E9002378
:10153000FFF706F824A3D3E90023FFF72BF9FFF701
:1015400039FA81B2002000F05FFB4FF4804326E0BF
:10155000FEF790FF0022234BFFF71CF91CA3D3E9F1
:101560000023FEF7EDFF10A3D3E90023FFF712F9E4
:101570000FA3D3E90023FEF7E3FF0FA3D3E9002372
:10158000FEF7DEFF14A3D3E90023FEF7D9FFFFF730
:1015900011FA81B2002000F037FB4FF400532361B1
:1015A00010BD00BFAFF300806666666666660A40DF
:1015B0000000000000FEAF40F7470A2673101440F9
:1015C0001F85EB51B81EF13FA245B6F3FDD4F03FA5
:1015D0009A9999999999C93FA4703D0AD7A3F03F68
:1015E000000C014000408F4000001440AFF3008029
:1015F00008B50748012100F0A9FD38B104480121D0
:1016000000F0AFFD034A13680133136008BD00BF4B
:10161000001400404C01002010B5084C94F808312B
:1016200003F0FF024BB1012A04D1D4F80411204683
:1016300000F08AF9002384F8083110BD340300203B
:101640002DE9F041074692B00C20012100F022FD67
:1016500044F20100012100F01DFD0120014600F0CF
:101660000DFD01A800F0F4FB03A800F021FE4D4B96
:101670009F4214D003F570439F421FD0A3F57443DB
:101680009F422ED126238DF80830474B474D0793B4
:10169000474B484C03934FF00808042325E02723C9
:1016A0008DF80830444B454D07934FF41653039380
:1016B000434C4FF400684FF4806316E0042001218E
:1016C00000F0CEFB25238DF808303E4B3E4D0793AE
:1016D0003E4B3B4C0893364B4FF08008039340231E
:1016E00003E000252C46A8462B460126ADF8043021
:1016F0002046182301A98DF807308DF8066000F008
:1017000059FB482301A920468DF80730ADF8048025
:1017100000F050FB02A88DF809608DF80A608DF882
:101720000B6000F03BF9284600F07EFA4FF480731E
:101730000A93802300240C9328464FF4405307A9B2
:10174000109309940B940D940E940F94119400F03F
:10175000E3FA3146284600F00AFB384600F006FD61
:101760000C230DEB03013846ADF81630ADF81040F0
:10177000ADF81240ADF81440ADF8184000F042FD4D
:101780003846324640F2244100F0A9FD3846324640
:10179000402100F0BDFD3846314600F094FD12B006
:1017A000BDE8F08100480040044400406C00024065
:1017B00020A107000008014004480040300002401A
:1017C000000C014004380140580002403002002063
:1017D0000148FFF735BF00BF00380140F8B50546A6
:1017E0001D4B1E4F98420ABF1D4C00241D4B4FF04D
:1017F0000001204608BF3B6000F0B9FA20462B8864
:10180000AB8800F0C9FA4FF480710646204600F01C
:10181000C1FA154B93F8082192B94FF4807218461B
:10182000396800F0B7FD0C4A76429542F6B208BF1F
:101830000122C0F80461C0F8005108BF80F80821F7
:10184000386800214FF4807200F0AFFD2046BDE8FB
:10185000F840012100F08BBA00380140300300202D
:1018600058000240300200203403002010B5FFF77A
:10187000E7FC0068FEF710FEBDE8104002460B468C
:10188000014801F0A1BA00BF4C530008000000005D
:10189000F0B585B002AA03AB2549013001F0E4FAA6
:1018A0000299244801F090FA0399234801F08CFA38
:1018B0000298FFF7F9FD0025FFF7C2FC0068FEF76C
:1018C000EBFD00221D4BFEF73BFEFFF74BF80446F5
:1018D0002846FEF7E1FD064602980F46FEF7CAFDD0
:1018E00011A3D3E90023FEF755FF02460B4630460D
:1018F0003946FEF773FCFFF77DF80546FEF7CCFD91
:10190000009402460B460E4801F05EFA4FF47A70DE
:10191000FFF746FC039B9C42CEDC0020FFF7C4FD92
:1019200005B0F0BDAFF30080000000000020AC4027
:1019300053530008585300086F53000800408F406D
:1019400088530008AFF3008007B50378562B0CD0FE
:1019500004D84D2B0CD04F2B0DD018E06F2B0AD094
:10196000762B02D06D2B12D102E0FFF77FFF0EE045
:10197000FFF78EFF0BE0074901AA013001F074FA6E
:101980000548019901F020FA0198FFF78DFD03B099
:101990005DF804FB555300086B530008C27810B57E
:1019A00003780AB3164A03F16043D4684278E443EB
:1019B000C4F30224C4F1040102FA01F10F22E2404F
:1019C000847803F5614322400A431201D2B283F8BE
:1019D000002303780122590903F01F0302FA03F3DD
:1019E000084A42F8213010BD5A09012103F01F03B3
:1019F000994002F12003034A42F8231010BD00BFB2
:101A000000ED00E000E100E021F0604121F07F0105
:101A1000014B08439860704700ED00E008B5134B98
:101A2000984207D14FF40070012100F04BFB4FF4B6
:101A3000007014E00E4B984207D14FF480600121F2
:101A400000F040FB4FF4806009E00A4B98420BD154
:101A50004FF40040012100F035FB4FF4004000211D
:101A6000BDE8084000F02EBB08BD00BF00240140C7
:101A700000280140003C0140436810B523F4702267
:101A80000B6822F4807213430A7943EA022343600D
:101A90008A68CB6884681A43084B234013434A7909
:101AA00043EA42038360C36A23F470020B7C013B68
:101AB000DBB242EA0353C36210BD00BFFDF7F1FF82
:101AC00000230360037143718360C36001230374C7
:101AD0007047836811B143F0010301E023F0010373
:101AE00083607047836811B143F4807301E023F48D
:101AF000807383607047836843F008038360704796
:101B00008068C0F3C0007047836843F004038360BB
:101B100070478068C0F380007047836811B143F458
:101B2000A00301E023F4A00383607047092970B586
:101B30000CD9A1F10A04C66804EB44040725A540AA
:101B400026EA0505A3402B43C36009E0056901EBC4
:101B500041060724B44025EA0404B340234303614B
:101B6000062A0BD8013A446B02EB82021F239340F2
:101B700024EA030391401943416370BD0C2A0BD83A
:101B8000073A046B02EB82021F23934024EA03030B
:101B900091401943016370BD0D3AC46A02EB8202A1
:101BA0001F23934024EA030391401943C16270BD8F
:101BB00040F6FE7330B5084D83402A6822EA0304DC
:101BC00091E80C001A438B681343CA68134383409F
:101BD00023432B6030BD00BF00740040002303602E
:101BE00043608360C3607047064A012319B11168DE
:101BF00083400B4303E01168834021EA0303136031
:101C0000704700BF0074004082B000230193054B71
:101C10000193019B083318440190019B196002B0A5
:101C2000704700BF007400404FF6FE730268134017
:101C300003600023036043608360C360284B9842C5
:101C400001D1284A27E0284B984201D1254A2AE0B1
:101C5000264B984201D1234A2DE0254B984201D1D1
:101C6000204A30E0234B984201D11E4A33E0224BF8
:101C7000984204D11B4A536843F470032EE01F4B73
:101C8000984204D1174A536843F0706326E01C4B16
:101C9000984204D11B4A536843F00F031EE01A4BCD
:101CA000984204D1174A536843F0F00316E0174BEB
:101CB000984204D1134A536843F470630EE0144B06
:101CC000984204D10F4A536843F4704306E0114B25
:101CD000984204D10B4A536843F470235360704711
:101CE00008000240000002401C0002403000024098
:101CF00044000240580002406C0002408000024054
:101D000008040240000402401C0402403004024067
:101D100044040240580402408A6810B50C6A036803
:101D200014430A6923F4FF4314434A6923F0700300
:101D300014438A691443CA6914434A6A14438A6A79
:101D4000224313430360CB6843600B6883604B6896
:101D5000C36010BD0023036043608360C360036100
:101D600043618361C361036243628362704719B157
:101D7000036843F0010303E04FF6FE73026813406B
:101D80000360704703680AB1194301E023EA0101C7
:101D90000160704741607047406880B27047000042
:101DA000C3004CBF014B024B586070470004024017
:101DB00000000240CA78F0B5D40648BF8C780D8880
:101DC00002F00F0348BF234315F0FF0F1DD0016839
:101DD00000240126A64006EA0507B74211D14FEAC2
:101DE000840E0F2606FA0EF621EA0601282A03FAC7
:101DF0000EF641EA060101D1476102E0482A08BF18
:101E000007610134082CE4D10160FF2D1FD941681E
:101E1000002404F108070126BE4006EA0507B74280
:101E200011D14FEA840E0F2606FA0EF621EA0601BA
:101E3000282A03FA0EF641EA060101D1476102E0C1
:101E4000482A08BF07610134082CE2D14160F0BD87
:101E50004FF6FF730380022383700423C37070471F
:101E6000002830B5154C00F44015B4BFE369636831
:101E7000B5F5401F82B206D1656823F0706325F086
:101E8000706565600EE0C40255BF440D0324240153
:101E9000C0F303454CBFAC4002FA04F423EA040348
:101EA00043F0706319B1410D09018A401343034A9D
:101EB0000028B4BFD361536030BD00BF00000140B3
:101EC0000E4B1A6842F001021A6059680C4A0A4027
:101ED0005A601A6822F0847222F480321A601A68FA
:101EE00022F480221A605A6822F4FE025A604FF4EB
:101EF0001F029A600022DA62704700BF00100240A1
:101F00000000FFF80C4BB0F5803F1A6822F48032D5
:101F10001A601A6822F480221A6003D0B0F5802F6C
:101F200004D070471A6842F4803202E01A6842F422
:101F3000A0221A60704700BF00100240034A536895
:101F400023F4741319430843506070470010024093
:101F5000014B1860704700BF60004242044AD36AD8
:101F600023F4803323F00F0319430843D0627047F2
:101F700000100240034A536823F0030318435060E3
:101F8000704700BF00100240024B586800F00C0080
:101F9000704700BF00100240034A536823F0F0036B
:101FA00018435060704700BF00100240034A536856
:101FB00023F4E06318435060704700BF00100240F4
:101FC000034A536823F4605343EAC00050607047EB
:101FD00000100240034A536823F440431843506002
:101FE000704700BF001002401E4A10B5536803F04E
:101FF0000C03042B03D0082B03D01B4B12E01B4B0C
:1020000010E053685168C3F38343C90341BFD16AE9
:10201000164C01F00F0101314CBFB4FBF1F1144932
:1020200002334B4303605368124CC3F30313E15C68
:102030000368CB4043605168C1F30221615C23FA1D
:1020400001F181605168C1F3C221615CCB40C36082
:1020500052680949C2F381328A5CB3FBF2F303612F
:1020600010BD00BF0010024000127A000024F400EE
:1020700000093D000400002000000020044B5A69C4
:1020800009B1104301E022EA00005861704700BF27
:1020900000100240044B9A6909B1104301E022EAA2
:1020A00000009861704700BF00100240044BDA69DD
:1020B00009B1104301E022EA0000D861704700BF77
:1020C00000100240044BDA6809B1104301E022EA33
:1020D0000000D860704700BF00100240044B1A692E
:1020E00009B1104301E022EA00001861704700BF07
:1020F000001002404209012A074B01D11B6803E08E
:10210000022A0CBF1B6A5B6A00F01F0023FA00F072
:1021100000F00100704700BF0010024007B5002327
:1021200001933120FFF7E6FF019B01330193019BEF
:10213000B3F5A06F01D00028F3D03120FFF7DAFF0C
:10214000003018BF012003B05DF804FB038A8289C8
:1021500011EA030092B203D0114214BF0120002003
:102160007047C94389B201827047000008B5204B0F
:1021700098420BD14FF480400121FFF7A3FFBDE847
:1021800008404FF480400021FFF79CBF194B984254
:1021900007D14FF400300121FFF7A0FF4FF40030CA
:1021A0001FE0154B984207D14FF480200121FFF723
:1021B00095FF4FF4802014E0104B984207D14FF464
:1021C00000200121FFF78AFF4FF4002009E00C4BAB
:1021D00098420BD14FF480100121FFF77FFF4FF49D
:1021E00080100021BDE80840FFF778BF08BD00BFA0
:1021F000003801400044004000480040004C0040CE
:102200000050004070B50E460446038ACA889BB24F
:1022100023F440531343038282890989B38892B21D
:102220000B43718922F4B0520B4322F00C0213438A
:102230009BB28381838AB2899BB223F4407386B0B8
:102240001343838201A8FFF7CFFE039B049D174A27
:102250003168944218BF1D46A38919226A431BB2F4
:10226000002BB4BF4D008D00B2FBF5F56426B5FB25
:10227000F6F00001010906FB1153A28912B2002AEF
:10228000ADBF1A01D90032313232B5BFB1FBF6F21F
:10229000B2FBF6F302F0070203F00F03B4BF1043E2
:1022A000184380B2208106B070BD00BF00380140E5
:1022B0004FF4165303600C2200238380C3800381F4
:1022C000428183817047838919B19BB243F40053E3
:1022D00003E023F400531B041B0C8381704710B5EB
:1022E000C1F34214012301F01F01012C03FA01F391
:1022F00001D10C3003E0022C0CBF1030143012B1AD
:102300000268134302E0026822EA0303036010BD7F
:10231000838A9BB20AB1194301E023EA0101818259
:102320007047C1F30801818070470388194214BFC8
:10233000012000207047012310B5C1F3421401F0C1
:102340001F029C4203FA02F201D1838903E0022CAE
:102350000CBF038A838A9BB21340028892B23BB1BE
:10236000090A01238B40134214BF0120002010BD35
:10237000184610BD090A01238B40DB439BB2038042
:1023800070470000024B0146186800F05BB800BFC0
:102390007400002010B5431E0A44914204D011F885
:1023A000014B03F8014FF8E710BD03460244934286
:1023B00002D003F8011BFAE77047000030B500298E
:1023C0003CD051F8042C0B1F1D49002AB8BF9B18A4
:1023D0000A680C4612B95A600B6030BD93420DD2A8
:1023E00019685818904201BF5A5852181A6042682A
:1023F00023605A6030BD994203D80A4651680029CB
:10240000F9D1146815199D420AD11B682344D018CC
:102410008842136012D10868034413604B680CE0D3
:1024200002D90C23036030BD1C681819884201BF13
:1024300008684968001918605960536030BD00BFD2
:102440009801002070B5CC1C24F0030408340C2C37
:1024500038BF0C24002C064603DA0C23336000201E
:1024600070BD8C42F9D3204A136810461946A1B1B9
:102470000A68121B0ED40B2A03D90A608B188C50E1
:102480001FE08B420BBF5A684A6802605A6018BF4F
:102490000B4616E00B464968E9E7144D2B681BB95B
:1024A000304600F0D1FC28603046214600F0CCFCDC
:1024B000421C0346D1D0C51C25F0030585420AD134
:1024C0001C6003F10B001A1D20F00700821A0AD0CD
:1024D0005142995070BD3046E91A00F0B5FC013008
:1024E000BBD02B46ECE770BD980100209401002082
:1024F0002DE9F0471E4688B0149F002BB8BF06F1A7
:102500000043129927F02007B6BF1E4600232D2353
:10251000462F1446109DDDF84CA00B7003D0452FBC
:1025200003D1013501E0032300E002238DE82804F4
:1025300006AB039307AB04932246334600F0B8FD85
:10254000472F804602D1119BDB0726D5462F08EB8B
:10255000050911D198F80030302B0AD120463146B8
:1025600000220023FEF74AFD18B9C5F10105CAF89B
:102570000050DAF80030994420463146002200230A
:10258000FEF73CFD08B1CDF81C90079B4B4504D2EB
:102590005A1C079230221A70F7E74046079B159A9B
:1025A000C8EB0303136008B0BDE8F087034673B5BA
:1025B0000029B8BF494203F8022BB4BF2D222B22B9
:1025C000092942701ADD0DF1070426460A2291FB03
:1025D000F2F502FB1511092D01F1300104F8011D7E
:1025E0002946F3DC3031651E04F8011CB5421A4659
:1025F0000AD215F8012B03F8012BF7E71A4630240D
:10260000214402F8024B5970101A02B070BD00004C
:102610002DE9F04F91B08B4615461E461A9F044691
:1026200001F0CAFBD0F800A0504600F08CFC00235B
:102630000E933B680990073323F0070303F1080268
:102640009BF818803A60D3E90023CBE91223DBE939
:10265000120100F0D1FB0128DBE9120119D100229F
:102660000023FEF7D5FC10B12D238BF84330A04B8F
:10267000A04FB8F1470F88BF1F460323CBF8103097
:10268000DBF8003023F00403CBF800304FF00009F2
:10269000A1E000F0B1FBDBF8003048B9964A974F53
:1026A000B8F1470F88BF17460322CBF81020E9E79F
:1026B000DBF80420DBE91201571CCDE90A0101D146
:1026C000062209E0B8F1670F02D0B8F1470F05D133
:1026D000002A40F0C7810122CBF80420DBF8042057
:1026E00043F480638DE80C00CBF800300DF1330328
:1026F00002930DAB03930EAB059300230693CDF825
:102700001080DDE90A232046FFF7F2FE08F0DF0320
:10271000472B07460AD10D9BD81C03DBDBF80420AE
:10272000934237DDA8F102085FFA88F8B8F1650F27
:102730000D9915D8013942460BF150000D91FFF764
:1027400035FF0E9A81468318012ACBF8103003DC3E
:10275000DBF80020D10738D50133CBF8103034E056
:10276000B8F1660F18D10029DBF8043009DDCBF889
:1027700010101BB9DBF80020D20721D501330B4420
:102780001CE01BB9DBF80020D00701D5023315E0AF
:10279000012313E04FF067080D9B0E9A934207DB6D
:1027A000DBF80020CBF81030D10709D5013305E064
:1027B000002BD4BFC3F1020301231344CBF8103024
:1027C0000D9B4FF00009CBF858309DF8333013B112
:1027D0002D238BF843300096204659460FAA2B46EE
:1027E00000F05CF9013002D14FF0FF3052E1DBF82C
:1027F00000305A0505D4204629463A46DBF8103009
:1028000008E1B8F1650F40F2D080DBE91201002247
:102810000023FEF7F3FB50B320462946384A012334
:10282000B0470130E0D00E9B0D9A9A4209DBDBF8ED
:102830000030D80705D4DBF800309F0700F1108185
:1028400007E1204629465246099BB0470130CBD0CC
:1028500000270E9B013B9F42EDDA204629460BF1F3
:102860001A020123B0470130BED00137F1E70D9BBA
:10287000002B29DC20462946214A0123B04701309C
:10288000B2D00D9B2BB90E9B1BB9DBF80030D907DA
:10289000D1D5204629465246099BB0470130A3D0E6
:1028A0004FF000080D9B20465B429845294608DA08
:1028B0000BF11A020123B047013095D008F101084D
:1028C000F0E73A460E9BA5E0DBF858200E9B9A42B3
:1028D000A8BF1A46002A914602DC4FF000081CE00F
:1028E000204629463A464B46B0470130F5D17BE7B2
:1028F00097530008935300089F5300089B53000808
:102900006B550008204629460BF11A020123B047F7
:1029100001303FF469AF08F10108DBF85830B9F134
:10292000000FB4BF1A46C9EB03029045EADB07EB80
:1029300003080D9A0E9B9A4210DBDBF80030DA0791
:102940000CD40E9A1744C8EB07030D9FD21B934279
:10295000A8BF1346002B1F4608DC0EE02046294680
:102960005246099BB0470130EBD13DE7204629464E
:102970004246B04701303FF437AF4FF000080AE05D
:10298000204629460BF11A020123B04701303FF4DB
:102990002BAF08F101080D9A0E9B002FA3EB020349
:1029A000A8BFDB1B9845EBDB45E70E9A012A01DC4B
:1029B000DB0736D5204629463A460123B047013089
:1029C0003FF412AF204629465246099BB0470130DA
:1029D0003FF40AAFDBE9120100220023FEF70EFBF1
:1029E000E8B90E9B204629467A1C013B1DE0204693
:1029F00029460BF11A020123B04701303FF4F4AE2F
:102A000001370E9B013B9F42F1DB204629464B4696
:102A10000BF15002B04701307FF40DAFE4E6002720
:102A2000EFE7204629463A460123B0470130ECD172
:102A3000DAE6204629460BF119020123B04701309E
:102A40003FF4D2AE0137DBF80C300F9A9B1A9F424D
:102A5000EFDBDBF80C000F9B9842B8BF184619E07B
:102A60000027F0E743F480638DE80C00CBF80030DA
:102A70000DF1330302930DAB03930EAB05930023CB
:102A80000693CDF810802046DDE90A23FFF730FDDC
:102A9000074640E611B0BDE8F08F00BF2DE9F843CE
:102AA00091461F468A680B6906469342B8BF134693
:102AB000C9F8003091F843200C46DDF8208012B1AF
:102AC0000133C9F800302368990642BFD9F80030B5
:102AD0000233C9F80030256815F006051CD094F8BB
:102AE00043302268003318BF012392061FD5E11836
:102AF000302081F843005A1C94F8451022440233D8
:102B000082F8431013E03046394604F119020123DC
:102B1000C047013007D00135E368D9F800209B1A7F
:102B20009D42F0DBDBE74FF0FF30BDE8F883304635
:102B3000394604F14302C0470130F4D02268D9F885
:102B40000050E36802F00602042A08BF5D1B2269F8
:102B5000A3680CBF25EAE57500259342C4BF9B1A04
:102B6000ED184FF00009A9450ADA3046394604F15C
:102B70001A020123C0470130D5D009F10109F2E75B
:102B80000020BDE8F88300002DE9FF410C46174600
:102B9000227E98466E2A06460A9B01F1430100F008
:102BA000B08012D8632A23D00AD8002A00F0BD8052
:102BB000582A40F0CC8084F84520DFF804E257E042
:102BC000642A1ED0692A1CD0C1E0732A00F0B180AB
:102BD00009D86F2A2ED0702A40F0B980226842F0BE
:102BE000200222603FE0752A24D0782A3BD0AEE054
:102BF0001A6804F14205111D1960136884F8423007
:102C0000A9E020681A6810F0800F02D0101D18602B
:102C100008E010F0400F02F10400186002D0B2F991
:102C2000003000E01368002B3EDA2D225B4284F86E
:102C3000432039E020681A6810F0800F02D0101D80
:102C4000186007E010F0400F02F10400186001D096
:102C5000138800E01368227EDFF864E16F2A0CBF5E
:102C600008220A221CE07822DFF858E184F8452087
:102C70002268186812F0800F00F104051D6003D16E
:102C8000550601D5038800E00368D00744BF42F031
:102C9000200222601BB9226822F02002226010224A
:102CA000002084F8430002E0DFF814E10A2265689E
:102CB000002DA8BF2068A560A4BF20F004002060FC
:102CC00003B965B10D46B3FBF2F002FB10331EF8F9
:102CD000033005F8013D03460028F4D100E00D461D
:102CE000082A0BD12368DA0708D5236962689A425B
:102CF000DEBF302305F8013C05F1FF35491B21619A
:102D00002EE025681A6815F0800F606903D0151D44
:102D10001D60136808E015F0400F02F104051D6006
:102D2000136801D0188000E01860002323610D466D
:102D300016E01A68111D196015680021284662689E
:102D400001F050F808B1401B6060636804E004F1D2
:102D5000420584F8422001232361002384F8433094
:102D6000CDF800803046214603AA3B46FFF796FE89
:102D7000013002D14FF0FF301FE0304639462A467D
:102D80002369C0470130F5D023689B0705D4E0686C
:102D9000039B9842B8BF18460FE00025E368039AEA
:102DA0009B1A9D42F3DA3046394604F11902012399
:102DB000C0470130DED00135F0E704B0BDE8F08156
:102DC000A3530008B45300080FB40A4B13B51C6892
:102DD00024B1A36913B9204600F066FF05AB204675
:102DE000A168049A019301F0C7FC02B0BDE810404D
:102DF00004B070477400002031F0004310B51BD0C0
:102E00000F4AA1F58014944210D901F1FF410C4AF8
:102E100001F5E001914209D9B3F5801F08D3094AB1
:102E2000934207D1B0FA80F0400910BD042010BDD4
:102E3000032010BD002010BD0028E6D1022010BDE7
:102E4000FFFFDF7F0000F07F38B5064C002305460A
:102E500008462360FEF7BAF9431C02D1236803B188
:102E60002B6038BD400400200EB430B59CB01FACC0
:102E70004FF4017254F8045BADF8142002900690F0
:102E800000F061F80B4B03900B9300230F93149306
:102E90004FF6FF73ADF81630074B079002A918687C
:102EA0002A462346019401F0F1FA1CB0BDE83040F7
:102EB00003B07047DF2E00087400002010B50C46E8
:102EC000B1F90E1001F0B0FE0028ABBF636DA3890D
:102ED0001B1823F48053ACBF6365A38110BD002091
:102EE00070472DE9F0411D468B890746DB050C46EE
:102EF000164605D5B1F90E100022022300F060FF3E
:102F0000A389384623F48053A381B4F90E103246C6
:102F10002B46BDE8F04100F01FB810B50C46B1F9E2
:102F20000E1000F04DFF431CA38915BF606523F40C
:102F3000805343F48053A38118BFA38110BDB1F91E
:102F40000E1000F01BB8034613F8012B002AFBD12A
:102F5000181A01387047000038B5074C05460020A4
:102F60002060084611461A46FEF752F9431C02D16A
:102F7000236803B12B6038BD4004002038B5064CEF
:102F80000023054608462360FEF734F9431C02D1AE
:102F9000236803B12B6038BD400400202DE9F74FB2
:102FA00003690C698046A3427EDB013C01F11407F2
:102FB0004FEA840E00F1140606EB0E0357F8245076
:102FC000019356F824300135B3FBF5F507EB0E09F4
:102FD000BDB34FF0000A3846B446D34650F8043B20
:102FE0009AB21B0C02FB05A26B4303EB124392B295
:102FF000C2EB0B0BBCF800204FEA134A5A441FFAED
:1030000083FBDCF800304845CBEB134303EB224352
:1030100092B242EA03424FEA234B4CF8042BDDD92B
:1030200056F80E306BB9019B043BB3421A4602D8E6
:10303000C8F8104005E01268043B002AF8D1013CB2
:10304000F3E7404601F0EDF800282BDB3046013570
:103050004FF0000E57F8042B036891B2C1EB0E0E2F
:10306000120C99B27144C2EB134303EB214389B2B2
:103070004FEA234E4F4541EA034340F8043BE9D968
:1030800056F8242006EB840362B9043BB3421A4687
:1030900002D8C8F8104005E01268043B002AF8D1B5
:1030A000013CF3E7284600E0002003B0BDE8F08FC4
:1030B0002DE9F04F456A95B08246219CCDE9022367
:1030C00045B91020FFF75EF9CAF824004560856015
:1030D0000560C560DAF82430196859B15A680123CF
:1030E00093404A608B60504600F0BFFEDAF824300F
:1030F00000221A60039BA24A002BBDBF012323605C
:10310000039B0023BCBF23F000430393039FA8BF8E
:10311000236027F000431B0D1B0593421DD142F293
:103120000F73209A1360029B43B9964A964BC7F3DC
:103130001300002814BF1846104600E09248229B56
:10314000002B00F06985C37813B100F1080300E09B
:10315000C31C229A136000F05FBDDDE90245002226
:10316000204629460023FDF749FF804658B1209AA2
:1031700001231360229B002B00F03C8583481860DC
:10318000013800F049BD13AB009312AB01935046D8
:1031900022462B4601F0C0F8C7F30A5607905EB1ED
:1031A000C5F3130343F07F51204641F44011A6F2CA
:1031B000FF36CDF844801DE0139B129E1E446FF431
:1031C00082639E42A1BF029A06F2124322FA03F0E2
:1031D0006F4BB7BF6F4B9B1B029A9B1BAABF9F40B5
:1031E00002FA03F03843FDF735F90123A1F1F87134
:1031F000013E11930022684BFCF7EEFF5AA3D3E97E
:103200000023FDF79DF95AA3D3E90023FCF7E6FF5D
:10321000044630460D46FDF72DF957A3D3E90023A8
:10322000FDF78EF902460B4620462946FCF7D6FFED
:1032300004460D46FDF796FB2946834600222046AC
:103240000023FDF7E5FE58B15846FDF713F9024695
:103250000B4620462946FDF7D1FE08B90BF1FF3B8E
:10326000BBF1160F0DD84D4B03EBCB03D3E9000197
:10327000DDE90223FDF7EAFE30B10BF1FF3B00234D
:1032800000E00123109300E01090129B9E1B731E20
:103290000A9345BF5B420993002300234CBF0A9366
:1032A0000993BBF1000F07DB0A9BCDF834B05B44F8
:1032B0000A9300230B9308E0099BCBEB03030993CC
:1032C000CBF100030B9300230D931E9B092B29D8F0
:1032D000052BC4BF043B1E931E9BC8BF0025A3F152
:1032E0000203D8BF0125032B21D8DFE803F0020E2B
:1032F0000410002300E001230C931F9B002B20DC13
:103300000123069305931A4619E0002300E00123E8
:103310000C931F9B5B4406930133012B0593B8BFAD
:10332000012311E0012500231E930C9501E00123E8
:103330000C934FF0FF3306930593002212231F9244
:1033400002E01F9B06930593DAF824400022626096
:10335000042101F114029A4222D862684900013224
:103360006260F6E7AFF3008061436F63A787D23FE7
:10337000B3C8608B288AC63FFB799F501344D33F64
:103380000000F07FC5530008CE5300086C550008BC
:103390000EFCFFFFEEFBFFFF0000F83F4854000863
:1033A0005046616800F02CFDDAF8243020601B687C
:1033B0000893059B0E2B00F24781002D00F04481FD
:1033C000DDE90223BBF1000FCDE90E2331DDB14A67
:1033D0000BF00F034FEA2B1602EBC303F006D3E901
:1033E00000450CD5DDE90E01AB4B06F00F06D3E925
:1033F0000823FDF7CFF90327CDE9020100E00227FA
:10340000DFF8948276B1F10708D5D8E90023204689
:103410002946FDF795F804460D460137761008F168
:103420000808EFE7DDE9020122462B46FDF7B2F975
:103430001BE0CBF10004DCB1DDE90E01954B04F09B
:103440000F0203EBC203D3E90023FDF779F8924D95
:10345000241102274CB1E20704D5D5E90023013736
:10346000FDF76EF864100835F4E7CDE9020100E0DD
:103470000227109BDBB1DDE90245002220462946E8
:10348000864BFDF7C5FD90B1059B83B1069B002BD4
:1034900040F3D680294620460022814BFDF750F8A4
:1034A0000BF1FF36CDE902010137069D01E05E46D2
:1034B000059D3846DDE90289FCF7DCFF42464B46B4
:1034C000FDF73EF8774B0022FCF788FECDE90201BC
:1034D000039BA3F150740394CDB9404649460022A2
:1034E000714BFCF779FE029A234680468946FDF728
:1034F000ADFD002840F0408240464946029A04F162
:103500000043FDF785FD002840F0308298E0614BD4
:103510000C996A1E03EBC203002947D0D3E90023AC
:1035200000206249FDF736F9DDE90223FCF754FE7D
:10353000CDE90201089C49464046FDF713FA0746CB
:10354000FCF798FF02460B4640464946FCF744FE0E
:10355000DDE90223303704F8017B80468946FDF718
:1035600057FD002840F0378342464B4600204B4928
:10357000FCF732FEDDE90223FDF74AFD002840F0AA
:10358000D080089BE31AAB425ADADDE9020100223F
:10359000434BFCF7D5FF0022CDE90201404B4046EA
:1035A0004946FCF7CDFF80468946C4E7D3E90001D0
:1035B000DDE90223FCF7C4FF089BCDE902015C1999
:1035C0001D4649464046FDF7CDF90746FCF752FF38
:1035D00002460B4640464946FCF7FEFD303705F8EB
:1035E000017BA5428046894623D100222F4BDDE98D
:1035F0000201FCF7F3FD02460B4640464946FDF743
:1036000025FD002840F08D80DDE9022300202749B8
:10361000FCF7E2FD02460B4640464946FDF7F8FC42
:1036200070B114F8013C621E302B40F0D482144675
:10363000F7E700221A4BFCF783FF80468946C0E774
:10364000DDE90E23CDE90223139B002BC0F28A8013
:10365000BBF10E0F00F386800E4B03EBCB03D3E9D7
:1036600000671F9B002B23DA059B002B20DC40F01A
:103670007C81304600220C4B3946FCF761FFDDE9C6
:103680000223FDF7D9FC059D2E46002840F06F81EE
:1036900074E100BF48540008105500080000F03FD6
:1036A0000000244000001C40000014400000E03FE7
:1036B000089CDDE9028932463B4640464946FDF713
:1036C00069F8FDF74FF90546FCF7D4FE32463B4654
:1036D000FCF736FF0B46024649464046FCF77CFDA8
:1036E00005F1300E089B04F801EBC3EB040E059BBB
:1036F0009E452AD102460B46FCF770FD32463B46FA
:1037000080468946FDF7A2FC70B9404649463246DC
:103710003B46FDF773FC002800F05E82EB0703D404
:103720005AE2B34600E01C4614F8012C631E392A05
:1037300007D1089A9342F6D13023137013460BF148
:10374000010B1A7801321A7046E20022A34BFCF7F3
:10375000F7FE0022002380468946FDF74FFC002833
:10376000A9D039E20C9A002A32D01E9A012A0ADC2A
:10377000119A12B103F2334302E0129BC3F13603F4
:103780000B9D099C18E0059B5D1E0B9BAB42B7BFD0
:103790000B9B5D1BEA1A0D9BBEBF0B959B180D93EF
:1037A000059BB8BF0025002BB9BF099B059A099C52
:1037B000059BBCBF9C1A0023099A50461A440992E3
:1037C0000A9A01211A440A9200F0F1FB064602E02F
:1037D0000B9D099C0C9E64B10A9B002B09DDA34242
:1037E000A8BF2346099AE41AD21A09920A9AD31A50
:1037F0000A930B9B002B20DD0C9BC3B1002D10DD29
:1038000031462A46504600F06BFC0646079A314680
:10381000504600F0D5FB07460799504600F025FBBF
:1038200007970B9B5A1B08D05046079902E0504659
:1038300007990B9A00F054FC07905046012100F0C4
:10384000B6FB0D9B0546002B0ADD29461A4650465D
:1038500000F046FC1E9B0546012B04DD00271BE003
:103860001E9B012B13DC029B8BB9039BC3F3130339
:103870007BB9039B23F000473F0D3F0557B1099BE0
:103880000127013309930A9B01330A9302E00027C1
:1038900000E0029F0D9B43B12B6905EB8303186980
:1038A00000F038FBC0F1200000E001200A9B184422
:1038B00010F01F0008D0C0F12003042B02DDC0F17E
:1038C0001C0002E008D018461C30099B0444034445
:1038D00009930A9B03440A93099B002B05DD50467C
:1038E00007991A4600F04AFC07900A9B002B05DD59
:1038F000294650461A4600F041FC0546109BEBB1A4
:103900000798294600F08DFC002817DA002350465E
:1039100007990A2200F0C0FA0C9B0BF1FF3B0790BD
:10392000002B00F06B813146002350460A2200F044
:10393000B3FA069B0646002B33DC68E1059B002B9F
:1039400026DC1E9B022B23DD059B0693069B73B989
:1039500029460522504600F09FFA05460798294659
:1039600000F05FFC002809DC01E000252E461F9BCB
:10397000089C6FEA030B08E0B3462E46089B089AA2
:103980005C1C312313700BF1010BB14600260FE1D3
:103990000C9B23B9059B0693089F079CC9E0059BD8
:1039A0000693002C05DD31465046224600F0E6FB2A
:1039B0000646AFB17168504600F022FA04463269FB
:1039C00006F10C01023292000C30FEF7E3FC504687
:1039D0002146012200F0D2FB814602E00000244093
:1039E000B146089F079C29462046FFF7D7FA314683
:1039F000099000F13008204600F013FC4A4605907B
:103A00002946504600F029FCC26803463AB91946D7
:103A10002046079300F005FC079B024600E00122C8
:103A200050461946079200F020FA079A92B91E9B59
:103A300083B9029B03F0010363B9B8F1390F3B4628
:103A400007943ED0059B7C1C002BC4BF099B03F14F
:103A500031083DE0059B002B04DA002AC446079498
:103A600008DC21E024D11E9B13BB029B03F0010361
:103A7000F3B9F2E72146012250460597CDF80880B8
:103A800000F07CFB2946079000F0CBFB0028DDF816
:103A900008C0059B03DC07D118F0010F04D0B8F172
:103AA000390F0ED008F1010C7C1C87F800C07FE0B4
:103AB000002A07F101020EDDB8F1390F3B460794E9
:103AC00003D1392201371A7057E0144608F1010872
:103AD00087F800806CE0089B1746D31A02F8018C27
:103AE000069A93423AD021460A220023504600F01B
:103AF000D3F94E450446314650464FF00A024FF086
:103B0000000304D100F0C8F9064681466BE700F0D7
:103B1000C3F9494606460A225046002300F0BCF984
:103B2000814660E7214650460A22002300F0B4F99E
:103B3000044620462946FFF731FA089B00F1300879
:103B400007F8018B069AFB1A9342EBDB089BB14600
:103B5000012AACBF9B1801331F46002621460122D3
:103B6000504600F00BFB2946079000F05AFB002856
:103B700003DC15D118F0010F12D03C4614F8013CBB
:103B8000621E392B09D1089B9A4204D10BF1010B1B
:103B90003123089A02E01446F0E70133137007E07E
:103BA0003C4614F8013C621E302B01D11446F8E764
:103BB0005046294600F059F9B9F1000F0CD02EB14A
:103BC0004E4503D05046314600F04FF95046494625
:103BD00000F04BF900E0B3465046079900F045F974
:103BE0000023209A23700BF101031360229B1BB169
:103BF0001C6001E00A480FE008980DE0069B002BCE
:103C00003FF7CAAE1E9B022B3FF7A0AEC4E61E9B39
:103C1000022B3FF79BAEC4E615B0BDE8F08F00BFA6
:103C20006B550008AFF30080014900F0A7B800BF52
:103C3000B151000810B5044600230360436083605F
:103C400081814366C28103614361836119465C30AF
:103C50000822FEF7AAFB054B24626362044BA362B1
:103C6000044BE362044B236310BD00BFBD2E00086C
:103C7000E32E00081B2F00083F2F000870B56823B3
:103C80004D1E5D430E4605F17401FEF7DBFB044655
:103C900040B1002180E842000C30A06005F16802CC
:103CA000FEF783FB204670BD836910B5044633BB25
:103CB0008364C3640365124B124A1B688262984294
:103CC00004BF0123836100F01FF86060204600F00C
:103CD0001BF8A060204600F017F80421E0600022E5
:103CE0006068FFF7A7FFA06809210122FFF7A2FF84
:103CF000E06812210222FFF79DFF0123A36110BD9E
:103D000038540008293C0008F8B51B4B07461E68CC
:103D1000B36913B93046FFF7C7FF4836B468736814
:103D2000013B04D4B4F90C5075B16834F8E733683A
:103D30002BB938460421FFF7A1FF306008B136687F
:103D4000ECE70C233B60F8BD4FF6FF73E3810123E2
:103D5000A38165662560A560656025616561A561D3
:103D600004F15C0029460822FEF71FFB6563A5638A
:103D7000A564E5642046F8BD385400082DE9F843F1
:103D80008046894600F14804002694B1A56867681A
:103D9000013F0CD4AB89012B07D9B5F90E300133A3
:103DA00003D040462946C84706436835F0E72468F3
:103DB000EBE73046BDE8F883004870477800002004
:103DC00038B5074C054600202060084611461A46C3
:103DD000FDF71AFA431C02D1236803B12B6038BDEA
:103DE0004004002010B5C9B202449042034605D0F9
:103DF0001C7801308C42F8D1184610BD002010BD4F
:103E000070B5456A04460E463DB91020FEF7BAFA71
:103E10006062456085600560C560656AEB6843B1B6
:103E2000636ADB6853F8260078B1026843F82620FD
:103E300017E020460421212200F0C0FA636AE860FE
:103E4000DB68002BECD1002070BD012101FA06F5E2
:103E50006A1D2046920000F0B1FA0028F3D04660B7
:103E6000856000230361C36070BD70B5446A064677
:103E70000D463CB91020FEF785FA706244608460FC
:103E80000460C4603DB1736A6A68DB6853F822104D
:103E9000296043F8225070BD2DE9F04106460C46DA
:103EA0000F69984601F1140E0023DEF8000001337B
:103EB00085B2010C02FB0585514301EB1541ADB202
:103EC0004FEA1148BB4205EB01414EF8041BECDB05
:103ED000B8F1000F1BD0A3689F4212DB6168304627
:103EE0000131FFF78DFF0546226904F10C01023212
:103EF00092000C30FEF74EFA21463046FFF7B5FF30
:103F00002C4604EB87030137C3F814802761204651
:103F1000BDE8F081030C1B0413B90004102300E07A
:103F2000002310F07F4F04BF0002083310F0704FE1
:103F300004BF0001043310F0404F04BF800002337F
:103F4000002803DB420003D5581C70471846704711
:103F500020207047036813F007020BD0D90722D442
:103F60009A074BBF5B089B08036003604CBF0120AE
:103F70000220704799B209B91B0C102213F0FF0FF1
:103F800004BF1B0A0832190704BF1B090432990732
:103F900004BF9B080232D90702D45B0805D0013266
:103FA000036010467047002070472020704710B50E
:103FB0000C460121FFF724FF01224461026110BD7C
:103FC0002DE9F74F14460A69236988469A42BEBF15
:103FD0000B46A0461C46D8F81070D4F81090D8F8BC
:103FE0000830D8F8041007EB09069E42C8BF01311B
:103FF000FFF706FF00F114052B4605EB860C634521
:1040000003D2002243F8042BF9E704F1140208F16B
:10401000140102EB890301EB87070093009B0192D7
:104020009A4257D2B2F800B0BBF1000F23D08946B4
:10403000AE464FF0000859F8044BBEF800A0A3B2FA
:104040000BFB03A34FEA144ADEF8004043444FEA57
:1040500014480BFB0A84F24604EB13449BB243EA78
:1040600004434F454FEA14484AF8043B01D9D64669
:10407000E1E7CEF80480019B0432B3F802A0BAF164
:10408000000F21D02C4689462B684FF00008B9F864
:1040900000E0B4F802B09BB20AFB0EBEA346F044A7
:1040A00043EA08434BF8043B59F8043BB4F804E0F6
:1040B0001B0C0AFB03E3B94503EB18434FEA134813
:1040C00001D25C46E3E763600435A7E75CF8043D92
:1040D00013B9013E002EF9DC066103B0BDE8F08F94
:1040E00012F003032DE9F04106460F46154607D0AE
:1040F000214A013B52F823200023FFF7CDFE07465B
:10410000AD1035D0746A3CB91020FEF73BF97062EF
:10411000446084600460C460D6F82480D8F8084005
:104120007CB9304640F27121FFF741FF0023C8F807
:1041300008000446036004E06D1019D0206870B1D7
:104140000446EB07F8D5394622463046FFF738FFDC
:10415000804639463046FFF788FE4746ECE7304652
:1041600021462246FFF72CFF002320600360E7E78B
:104170003846BDE8F08100BF385500082DE9F0470A
:104180000C460746164623694FEA621A0AEB0309F2
:104190004968A36809F101059D4202DD01315B0018
:1041A000FAE73846FFF72CFE804600F114010023A1
:1041B000534504DA002241F823200133F8E72AEAC4
:1041C000EA73206901EB830316F01F0204F1140166
:1041D00001EB800E14D0C2F1200C00200E689A462C
:1041E0009640304343F8040B51F8040B714520FA14
:1041F0000CF0F3D3CAF8040048B109F1020506E057
:10420000043B51F8042B714543F8042FF9D3013DC9
:104210003846C8F810502146FFF727FE4046BDE853
:10422000F08703690A6910B59B1A11D19200143006
:10423000143183180A4453F8044D52F8041D8C427B
:1042400002D007D3012010BD8342F4D8002010BD56
:10425000184610BD4FF0FF3010BD2DE9F84307465A
:104260000C46084611461546FFF7DBFF061E08D12F
:1042700038463146FFF7C4FD012303614661BDE8BE
:10428000F883BCBF23462C4638466168BABF1D463A
:1042900001260026FFF7B4FD2B69C660266905F1EB
:1042A000140904F1140101EB860709EB830800F1FE
:1042B00014054FF0000C51F8042B59F8044B93B23D
:1042C0009C44A3B2240CC3EB0C03C4EB124202EBDC
:1042D00023429BB24FEA224CC84543EA02428E4633
:1042E00045F8042BE7D8BE450ED25EF8043B9AB2DF
:1042F00062441B0C03EB224392B242EA03424FEAB0
:10430000234C45F8042BEEE755F8043D0BB9013E6C
:10431000FAE70661BDE8F8832DE9F3411C46012167
:104320001546089F099EFFF76BFDC4F31302C4F303
:104330000A5480460CB142F480120192EDB102A8F9
:1043400040F8085DFFF706FE009B50B1019AC0F1EE
:10435000200102FA01F10B43C240C8F81430019267
:1043600001E0C8F81430019B002B14BF0225012581
:10437000C8F81830C8F8105009E001A8FFF7EAFDA6
:10438000019B0125C8F81430C8F81050203034B112
:10439000A4F2334404443C60C0F1350009E0A0F2CB
:1043A000324008EB850338601869FFF7B3FDC0EBB6
:1043B00045103060404602B0BDE8F08138B502FBE0
:1043C00001F42146FEF73EF8054618B100212246C9
:1043D000FDF7EBFF284638BD38B54B1C144602D11B
:1043E0004FF0FF3038BD9389CDB223F02003938185
:1043F000536B526883B1A36B9A4207DA23685A1E43
:10440000226003F8015C636801331FE0214600F07D
:1044100051FD0028F2D0E3E72169236851B18B42B6
:1044200008D913F8010CA84204D1013B01322360E2
:10443000626038BDE36304F1440363630323A36351
:104440002346226403F8465F236001236360284605
:1044500038BD10B50C46496B69B104F1440399426B
:1044600001D0FDF7ABFF236C00206063636013B1E4
:10447000E36B236010BD23694FF0FF3023600023FE
:104480006360A38943F02003A38110BD2DE9F047A9
:1044900007460C469046ADF5247D019300234693D4
:1044A00047939C4B0DF10C0AA2939B4BCDF820A196
:1044B000A39398F80050002D00F0248197490B68D1
:1044C00089462B445B7803F0080303F0FF02EBB14D
:1044D0006368002B10DD2368D9F800101A780A44AD
:1044E000527815070ED5479A013301324792626818
:1044F0002360013A6260EBE7A39B38462146984768
:104500000028E8D008F10106B046D2E7252D08F1D1
:1045100001064FD14592439298F801302A2B03D1DE
:104520001023439308F1020631783546A1F1300398
:10453000092B06F1010606D8459B0A2202FB03134C
:10454000303B4593F0E7DFF8DC8103224046FFF77C
:1045500049FC40B135460123C8EB000003FA00F2E4
:10456000439B134343936E1C2D78672D0FD8652D05
:1045700078D25B2D54D005D8002D00F0C580252DB4
:1045800018D071E0632D57D0642D3FD06CE0702DB2
:1045900032D007D86E2D55D03AD8692D64D100237A
:1045A00044933BE0752D31D0782D29D0732D5BD10C
:1045B00002233FE06368002B0DDD23681A78AA42CE
:1045C00040F0A080013362682360479B013A0133C9
:1045D0006260479398E7A39B384621469847002896
:1045E000EBD04698002800F08F80A38913F0400F8D
:1045F00018BF4FF0FF3089E0439B43F02003439303
:10460000439B43F400734393102302E00A2300E02A
:1046100008236E2D449301DD04230BE0032309E0FE
:104620003146504600F012FB0646439B43F04003E0
:104630004393012349931BE0439B43F0400343937F
:104640000023F7E7439AD0063FF55EAF12F0010F63
:10465000019A479B02F104010191126814BF138073
:10466000136051E70523E5E7032349930A234493A5
:104670006368002B03DD439B590611D518E0A39B0B
:104680003846214698470028F5D0AAE7479A0132D4
:1046900047926268013A002A626013DD01332360A9
:1046A0002368D9F800101A780A4452781207EDD41A
:1046B000499B022B0DDC384643A9224601AB00F092
:1046C00063F919E0A39B3846214698470028E7D0B4
:1046D00087E7042B06DC384643A9224601AB00F0ED
:1046E000B1F909E00E4B002B3FF40EAF384643A959
:1046F000224601ABAFF30080012803D002287FF4EB
:1047000003AF6EE7469801E04FF0FF300DF5247DD2
:10471000BDE8F087D943000853440008B0000020EA
:104720000000000044550008936810B5013B002BC1
:10473000936009DA9469A34202DBCBB20A2B03D15E
:10474000BDE8104000F0F0BB1368581C10601970F1
:10475000C8B210BDF8B506460F461446D518AC428F
:1047600008D0304614F8011B3A46FFF7DDFF431C22
:10477000F5D100E00020F8BD2DE9F0439DB00D46D5
:1047800090460393064618B183690BB9FFF78CFA7C
:10479000754B9D4201D1756808E0744B9D4201D173
:1047A000B56803E0724B9D4208BFF568AB891C07F2
:1047B0000AD52B6943B10023099320238DF82930B2
:1047C00030238DF82A3041E03046294600F000FCC5
:1047D0000028F0D04FF0FF30C2E0039A0134111DE1
:1047E00012680391002ABBBF524243F002030792B2
:1047F0000792B8BF049323782E2B7BD0DFF88081FB
:10480000217840460322FFF7EDFA38B1049AC8EB4D
:10481000000040238340134304930134217855481A
:10482000062204F101088DF82810FFF7DBFA0028B2
:1048300000F08580504B002B78D1039B073323F089
:10484000070308330393099B3B44099343461C46E3
:1048500013F8012B1AB9B4EB08090ED002E0252A8F
:10486000F5D1F8E73046294642464B46FFF772FF3E
:10487000013070D0099B4B4409932378002B6AD0F8
:1048800000234FF0FF3204930793059206938DF8AF
:1048900053301A9304F101084446DFF8E890217878
:1048A00048460522FFF79EFA08F10108049B30B143
:1048B000C9EB00000122824013430493ECE7D806C1
:1048C00044BF20228DF85320190744BF2B228DF8B6
:1048D000532022782A2A80D0234607991C46227822
:1048E0000133303A092A03D80A2000FB0121F5E7F9
:1048F000079180E763782A2B0AD1039B02341A1DA3
:104900001B680392002BB8BF4FF0FF33059375E788
:10491000611C00220C4623780131303B092B03D85F
:104920000A2000FB0232F5E7059267E703AB00932C
:10493000304604A92A46114BFDF76AFE07E003AB97
:104940000093304604A92A460C4BFEF71DF9421C81
:1049500007467FF478AFAB895B063FF53BAF09981C
:104960001DB0BDE8F08300BFD4530008F453000825
:10497000145400084E550008112600085547000839
:1049800044550008485500082DE9F04115468A684D
:1049900080460C4632B98A69002A0CBF01224FF0CA
:1049A000FF328A6022680026D1065FBF1A68111D97
:1049B00019601768A069F8B923680136DA065EBF86
:1049C0002B681B783B702A686B6802F101022A6031
:1049D000A26803F1FF3302F1FF326B6058BF013769
:1049E000A260EAB1002BE5DCD4F8803140462946CC
:1049F00098470028DED013E0012807D12B686269B0
:104A00001B78D35C002BD7D1C6B109E0022807D1AF
:104A10002B680B4A1B78126813445B781B07CBD5B5
:104A2000236813F0100305D1E2680132E260A26945
:104A300002B13B70236900201E442661BDE8F0816D
:104A4000B00000202DE9F04F0C469A46724B87B01B
:104A50008346164693E8070003AB83E807006F4BD5
:104A6000A1696F4A04F11C09032918BF1A46A368FB
:104A700000925A1EB2F5AE7F82BF6FF4AE7503EBA3
:104A8000050840F25D134F4688BFA360236898BFB6
:104A90004FF0000843F4506323600023326803A9F9
:104AA00051F82300117802220193FFF79BF9019B33
:104AB000002835D0012B0BD162682AB90822626028
:104AC000226842F400722260226822F4A0620BE0A5
:104AD000022B0AD1226802F4C061B1F5007F1FD118
:104AE0001021616042F480722260A268511EA160B0
:104AF000B2B132687D1C511C316012783A70726814
:104B0000013A002A72600ADCD4F880215846314606
:104B100001939047002841D12F46019B00E02F468A
:104B20000133032BBAD163680BB90A23636063684E
:104B30003C496069C91A00F089F83D460027A3681E
:104B40006BB3316860690A78805C40B3302A2268B0
:104B50000AD1100508D50137B8F1000F0BD0013389
:104B600008F1FF38A36006E022F4106222600B789F
:104B7000013505F8013C7368013B002B736003DDD0
:104B800033680133336005E0D4F88031584631464C
:104B9000984720B9A368013BA360D0E700272368AA
:104BA000D9050DD54D4509D915F8011C05F1FF387A
:104BB000D4F87C3158463246984745464D4527D073
:104BC000226812F010021BD12A70636858464946C9
:104BD000009EB0472268DAF8003012F0200F07D1AB
:104BE000D20705D51A1DCAF800201B68188004E0FA
:104BF0001A1DCAF800201B681860E3680133E360DF
:104C0000C9EB05053D44276900203D44256100E0CE
:104C1000012007B0BDE8F08F40530008BD4D0008EB
:104C2000B14C00086555000838B5074C0546002012
:104C30002060084611461A46FCF7E8FA431C02D1E8
:104C4000236803B12B6038BD40040020F0B50A781A
:104C5000441E5E2A13BF4B1C8B1C4A78002108BFE0
:104C6000012100F1FF0504F8011FAC42FBD10AB994
:104C7000581EF0BDC1F10104E7B2875419785E1CDB
:104C80002D2905D05D290ED079B10A463346F3E7C8
:104C90005D785D2DF9D09542F7DB02330132AA42EF
:104CA0008754FBDBEAE73046F0BD1846F0BD000054
:104CB0002DE9F0470F46404CD4F800903D4615F8DA
:104CC00001EB09EB0E04667806F0080404F0FF0619
:104CD0000CB12F46F2E774462D2C03D1BD1C7C7815
:104CE000012603E02B2C04BF7C78BD1C13B1102BD4
:104CF0000AD15AE0302C56D12C7804F0DF04582C1D
:104D00004CD16C7810230235002E14BF4FF00048B0
:104D10006FF00048B8FBF3FA0027BE4603FB1A8881
:104D200009EB040C9CF801C01CF0040F01D0303CCE
:104D30000BE01CF0030C1BD0BCF1010F0CBF4FF0BB
:104D4000370C4FF0570CCCEB04049C4210DAB7F14F
:104D5000FF3F0AD0D64506D801D1444503DC03FB0A
:104D60000E4E012701E04FF0FF3715F8014BD7E752
:104D70007C1C73460AD1002E4FF0220114BF4FF065
:104D800000436FF0004301602AB911E00EB1CEF18B
:104D900000036AB107B1691E116009E03024002BDD
:104DA000B2D10823B0E70A23AEE7302CACD1A3E799
:104DB0001846BDE8F08700BFB00000202DE9F0479D
:104DC0000E463B4CD4F80090354615F801EB09EB44
:104DD0000E04677807F0080404F0FF070CB12E46B4
:104DE000F2E774462D2C03D1B51C7478012703E03B
:104DF0002B2C04BF7478B51C13B1102B0AD151E0D1
:104E0000302C4DD12C7804F0DF04582C43D16C7831
:104E1000102302354FF0FF38B8FBF3F803FB08FA14
:104E200000266FEA0A0AB64609EB040C9CF801C09A
:104E30001CF0040F01D0303C0BE01CF0030C1BD025
:104E4000BCF1010F0CBF4FF0370C4FF0570CCCEBFF
:104E500004049C4210DAB6F1FF3F0AD0C64506D8DA
:104E600001D1544503DC03FB0E4E012601E04FF057
:104E7000FF3615F8014BD7E7741C734603D1222384
:104E80000360334602E00FB1CEF100036AB106B110
:104E9000691E116009E03024002BBBD10823B9E75B
:104EA0000A23B7E7302CB5D1ACE71846BDE8F08748
:104EB000B00000202DE9F0410C46496B04F1440399
:104EC00099421AD14FF48061FDF7BCFA18B94FF03E
:104ED000FF30BDE8F0814FF48063A36394F846305F
:104EE000606380F8FF3394F8453000F2FD30437082
:104EF00094F844300370206012E0A66B77003A46C5
:104F000000F0CCF905460028E1D000EB0608404649
:104F100029463246FDF73EFAC4F800806563A76370
:104F20000020BDE8F081000070B50D46144606462D
:104F300018B183690BB9FEF7B7FE224B9C4201D131
:104F4000746808E0204B9C4201D1B46803E01F4B19
:104F50009C4208BFF468A369A360A3891A0709D516
:104F600023693BB123682069EDB2181A636998423E
:104F70000FDB08E03046214600F02AF80028F1D087
:104F80004FF0FF3070BD3046214600F011F9002887
:104F9000F6D1A3680130013BA36023685A1C22604C
:104FA0001D706369984204D0A389DB0707D50A2DD9
:104FB00005D13046214600F0FBF80028E0D1284614
:104FC00070BD00BFD4530008F45300081454000807
:104FD000314B70B51D6806460C4625B1AB6913B957
:104FE0002846FEF761FE2D4B9C4201D16C6808E01B
:104FF0002B4B9C4201D1AC6803E02A4B9C4208BF7A
:10500000EC68A3899AB211071DD4D50602D40922EF
:10501000326038E0500712D5616B41B104F14403AE
:10502000994202D03046FDF7C9F900236363A38992
:1050300023F02403A3810023636023692360A389F1
:1050400043F00803A38123694BB9A38903F42073B8
:10505000B3F5007F03D03046214600F0D3F8A38992
:1050600013F0010205D00022A26062695242A261DF
:1050700003E0990758BF6269A26022694AB903F048
:10508000800080B230B143F04003A3814FF0FF3085
:1050900070BD002070BD00BF74000020D453000814
:1050A000F4530008145400088A892DE9F04105469C
:1050B00010070C4657D44B68002B02DC0B6C002BFE
:1050C00018DDE66AB6B102F48052002392B22F686E
:1050D0002B600AB1626D10E0216A28460123B047B7
:1050E000411C024609D12B683BB11D2B01D0162B68
:1050F00046D12F600020BDE8F081A3895B0705D56C
:105100006368D21A636B0BB1236CD21AE66A002370
:105110002846216AB047461CA38905D12A681AB1DE
:105120001D2A01D0162A19D1002262602269D904F1
:10513000226004D5421C01D12B6803B96065616B04
:105140002F600029D6D004F14403994202D02846AA
:10515000FDF734F900206063BDE8F08143F04003BF
:10516000A381BDE8F0810F69002FC3D093070E68BB
:105170000CBF4B690023C7EB06080F608B6012E081
:10518000A3894FF0FF3043F04003A381BDE8F081D5
:105190002846216A3A464346A66AB0470028EFDD12
:1051A0000744C0EB0808B8F1000FF1DCA2E70000EB
:1051B00038B50B6905460C46DBB118B183690BB9EC
:1051C000FEF772FD0C4B9C4201D16C6808E00B4B62
:1051D0009C4201D1AC6803E0094B9C4208BFEC68DB
:1051E000B4F90C302BB128462146BDE83840FFF712
:1051F0005BBF002038BD00BFD4530008F453000843
:1052000014540008F0B58B8991B09D0706460C46F2
:1052100025D4B1F90E10002908DAA389002513F06E
:10522000800F14BF40274FF480670DE001AA00F003
:105230005BF80028F1DB029D4FF4806705F47045B0
:10524000A5F500514D424D4130463946FDF7FAF87B
:1052500060B9A3899A051DD443F00203A38104F128
:105260004703236023610123636113E00A4BB362A8
:10527000A389206043F08003A381206167614DB161
:105280003046B4F90E1000F041F818B1A38943F08C
:105290000103A38111B0F0BD293C0008F8B5074611
:1052A00015460E4621B91146BDE8F840FDF7CAB8CB
:1052B0001AB9FDF783F82846F8BD00F037F8A84280
:1052C0000ED238462946FDF7BDF8044650B13146A6
:1052D0002A46FDF75FF838463146FDF76FF801E0E2
:1052E0003046F8BD2046F8BD38B5074C00230546CA
:1052F000084611462360FBF780FF431C02D1236858
:1053000003B12B6038BD00BF4004002038B5064C07
:105310000023054608462360FBF774FF431C02D1B7
:10532000236803B12B6038BD4004002051F8040C01
:105330000028BEBF091851F8043CC0180438704753
:10534000675500086A5500086D550008252E33661C
:10535000560A0025642564004C6F616420637572F1
:1053600072656E745B6D415D203D2025640A0045C9
:105370006E64696E6720766F6C746167655B6D56ED
:105380005D203D2025640A0025362E336620253613
:10539000640A00494E4600696E66004E414E006E3A
:1053A000616E00303132333435363738394142435B
:1053B000444546003031323334353637383961624E
:1053C0006364656600496E66696E697479004E6152
:1053D0004E0000000000000000000000000000007F
:1053E00000000000000000000000000000000000BD
:1053F00000000000000000000000000000000000AD
:10540000000000000000000000000000000000009C
:10541000000000000000000000000000000000008C
:10542000000000000000000000000000000000007C
:10543000000000004300000014000020504F5349BA
:1054400058002E0000000000000000000000F03FA7
:10545000000000000000244000000000000059404F
:105460000000000000408F40000000000088C340A2
:1054700000000000006AF8400000000080842E4117
:1054800000000000D01263410000000084D7974163
:105490000000000065CDCD41000000205FA0024269
:1054A000000000E876483742000000A2941A6D42DE
:1054B000000040E59C30A2420000901EC4BCD642D1
:1054C00000003426F56B0C430080E03779C341437C
:1054D00000A0D8855734764300C84E676DC1AB43F2
:1054E000003D9160E458E143408CB5781DAF154410
:1054F00050EFE2D6E41A4B4492D54D06CFF08044EB
:10550000F64AE1C7022DB544B49DD9794378EA44FF
:105510000080E03779C34143176E05B5B5B89346AF
:10552000F5F93FE9034F384D321D30F94877825A7B
:105530003CBF737FDD4F15750500000019000000AA
:105540007D000000686C4C00232D302B2000656628
:105550006745464700412D46612D66383930313266
:1055600033343536375D002B2D003030007858004D
:105570000020202020202020202028282828282023
:10558000202020202020202020202020202020201B
:105590002088101010101010101010101010101083
:1055A0001004040404040404040404101010101073
:1055B000101041414141414101010101010101013D
:1055C000010101010101010101010101101010108F
:1055D000101042424242424202020202020202020F
:1055E0000202020202020202020202021010101063
:1055F000200000000000000000000000000000008B
:10560000000000000000000000000000000000009A
:10561000000000000000000000000000000000008A
:10562000000000000000000000000000000000007A
:10563000000000000000000000000000000000006A
:10564000000000000000000000000000000000005A
:10565000000000000000000000000000000000004A
:10566000000000000000000000000000000000003A
:045670000000000036
:106242000204060800000000010203040102030424
:106252000607080900000000D4530008F4530008A0
:1062620014540008000000000000000000000000BC
:10627200000000003454000800000000000000008C
:10628200000000000000000000000000000000000C
:1062920000000000000000000000000000000000FC
:1062A20000000000000000000000000000000000EC
:1062B200000000001400002042540008525300085D
:1062C2005253000852530008525300085253000818
:1062D2005253000852530008525300085253000808
:1062E200FFFFFFFFFFFFFFFFFFFFFFFFFFFF0000BA
:0462F20070550008DB
:04000005080010617E
:00000001FF
