:020000040800F2
:100000000000012095010008D9010008D90100086D
:10001000D901000855090008D901000800000000B6
:10002000000000000000000000000000D9010008EE
:10003000D901000800000000D901000839090008B2
:10004000D9010008D9010008D9010008D901000828
:10005000D9010008D9010008D9010008D901000818
:10006000D9010008D9010008D9010008D901000808
:10007000D9010008D9010008D9010008D9010008F8
:10008000D9010008D9010008D901000800000000CA
:10009000000000000000000000000000D90100087E
:1000A000D9010008D9010008D9010008D9010008C8
:1000B000D9010008D9010008D9010008D9010008B8
:1000C000D9010008D9010008D9010008D9010008A8
:1000D000D9010008D9010008D9010008000000007A
:1000E000D9010008D9010008D9010008000000006A
:1000F000000000000000000000000000D90100081E
:1001000000000000D9010008D9010008D901000849
:1001100000000000000000000000000000000000DF
:10012000D9010008D9010008D9010008D901000847
:10013000D9010008000000000000000000000000DD
:10014000000000000000000000000000D9010008CD
:10015000D9010008D9010008D9010008D901000817
:10016000D9010008D90100080000000000000000CB
:10017000000000000000000000000000000000007F
:1001800000000000D901000800000000000000008D
:04019000D901000889
:10019400002103E00A4B5B584350043109480A4BE1
:1001A40042189A42F6D3094A02E0002342F8043B7B
:1001B400074B9A42F9D300F07DFB00F091FB7047A6
:1001C400B01600080000002034040020340400208D
:1001D40068090020FEE70000F0B54FF6FE7485B014
:1001E4000E460440F6B1102E37460F48A8BF10271C
:1001F400214600F0A9FD204669463A4600F0AAF9D6
:1002040000251DF805100948013500F09DFDBD428B
:10021400F7D1ADB22C440A20751B00F093FCA4B2B4
:10022400AEB2DFE705B0F0BDAC130008B6130008AA
:100234002DE9F043964BABB09A88ADF804200AAC94
:100244000646186800909B798DF806300D4680228A
:100254000021204600F066FE2A462046314600F082
:10026400FBFE8C4B18682246131BAB420CDA12F8C7
:10027400013BC118497811F00301F5D0022908BFE8
:10028400203B02F8013CEFE72046694600F018FFE6
:10029400002504464CB102AB002043F825406946D2
:1002A40000F00EFF01350446F4E7002D00F0ED8068
:1002B40000F02AFA029E78490546304600F080FE96
:1002C40020B9764B186800F057FCDBE030467449DF
:1002D40000F076FE002855D1039D7249284600F0AF
:1002E4006FFE30B900F0A8F901466F4800F02CFD0C
:1002F400C8E028466D4900F063FE68B92146102223
:10030400049800F0A5FF214605460A22059800F04E
:100314009FFF81B2A8B208E02846654900F050FE6C
:1003240030B900F089F901462046FFF755FFA9E0EE
:100334002846604900F044FE10B900F089F98AE0CB
:1003440028465D4900F03CFE002840F09B80214691
:100354001022049800F07CFF214685B210220598F3
:1003640000F076FFE907044603D5544800F0ECFC9E
:100374008BE000F061F98542F7D82846A1B200F07D
:100384002FF968E03046494900F01AFE78BB21464F
:100394001022039800F0FCFF214607460A22049825
:1003A40000F0F6FF0546002D6CDDB846002658F82F
:1003B400049B042D2B46A8BF04239E4214DA220773
:1003C40003D13F48394600F0BFFCF30029FA03F19A
:1003D4003C48C9B2013400F0B7FC230702D10A201B
:1003E40000F0B0FB0136E4E7043D4746DBE7304666
:1003F400354900F0E5FDB8B96988AA883348102367
:1004040000F0A2FC298832484B1E4FF4806293FB13
:10041400F2F22B6901329B0A00F096FC2D48A96880
:10042400EA6800F091FC2DE030462B4900F0C8FD4D
:1004340050B9E868296900F02BF908B1274800E0B1
:10044400274800F081FC1DE03046264900F0B8FD45
:1004540018B900F07BF92448F3E73046234900F04B
:10046400AFFD78B9204800F06FFCBFF34F8F2049EF
:10047400204BCA6802F4E0621343CB60BFF34F8F92
:1004840000BFFDE70A2000F05DFB2BB0BDE8F08360
:10049400C714000804000020BC130008000000205A
:1004A400C1130008C8130008D0130008DA130008A9
:1004B400DF130008E7130008F7130008FD13000812
:1004C4000C140008B6130008161400081E140008C3
:1004D400451400086C140008941400089A140008C9
:1004E400A6140008B6140008F0130008C01400088D
:1004F40000ED00E00400FA05074B9A881B68002011
:10050400904205D2C158013104D0043080B2F7E7DB
:100514004FF0FF30704700BF3404002010B504468C
:10052400FFF7EAFF431C012B094B98BF98881B680F
:1005340098BF0438002808DBC15AA14200EB03022B
:1005440001D1508810BD0438F4E74FF6FF7010BD98
:1005540034040020F8B515464FF6FE77D3070E464F
:1005640007EA000748BF01350C462B1BB81B334470
:100574002044002B80B204DDFFF7D0FF24F8020BE7
:10058400F3E7F8BDF0B5154DADF5805DAA8881B0EF
:10059400002069469208FFF7DDFF00F0E3FB2868BE
:1005A40000F0E8F90024AB880C4EB4EB930F0FDA9B
:1005B40030686700A1B2384400F076FC30686310FC
:1005C400023038443DF8131000F06EFC0234EAE7C0
:1005D40000F0D6FB0DF5805D01B0F0BD34040020C1
:1005E400F8B5144CA3889B08013B834207460E468A
:1005F4001FDDFFF781FF431C054604D1FFF7C2FF4F
:10060400FFF77AFF05463846FFF788FFB04210D05F
:1006140000F0A8FB20683946284400F045FC206817
:1006240002302844314600F03FFCBDE8F84000F0B9
:10063400A7BBF8BD34040020014B9888800870479C
:1006440034040020014B1860998070473404002062
:1006540008B500F087FB044B186800F08BF9BDE87F
:10066400084000F08DBB00BF34040020074BDA685B
:100674001B691344013B9342184603D313F8011931
:10068400FF29F8D0C2F10102104470473C04002055
:10069400021F0B1F9B1A0344002B05DD52F8043F75
:1006A4000133F6D00020704701207047104A114BE7
:1006B400114910B5114C13441B1B114A9BB21380F2
:1006C400088810495080091B890A918003F100634E
:1006D400C3F30D015C1C09B12346F9E7936003F5EC
:1006E4008043D360C3EB802303F10063136110BD27
:1006F400B016000834040020227AFF1F00000020F6
:100704003C04002000000120004870473C04002005
:1007140072B6054BDA68054B51681960126882F3AA
:1007240008881B68184700BF3C04002060090020AB
:10073400044B0548DB681B68184000F160435842CD
:10074400584170473C0400200000FE2F70B50E4D48
:100754002E6900F007FBE02000F01AFBEC68EB6860
:1007640033449C420BD220464FF48041FFF790FF64
:1007740010B9204600F0FEF804F58044EFE7BDE828
:10078400704000F0FDBA00BF3C040020012937B5D9
:10079400034640F38B8002460144002412F8010B07
:1007A40004448A42E4B2F9D1002C7FD11A78832A16
:1007B40023D00AD8802A12D0822A77D1FFF756FF95
:1007C40002AB43F8080D184613E0C12A33D0D02AEF
:1007D40067D0C02A6AD1FFF7B9FF20465EE0344BE8
:1007E40002A81B6940F8083D03E002A8DB4340F877
:1007F400043D042100F09AF958E0FFF737FF2C4B31
:100804000090DC684FF0FF332246111B8142ECDA82
:1008140012F8011B4B40082103F001055B083DB1B0
:1008240083F06D4383F4380383F4034383F020039C
:100834000139F1D1E9E7D3F802000090586801903A
:100844001B48019AC56800992A448CB2AA420094B4
:10085400019204D3006914442844844201D9FF203E
:100864001CE00A43920701D0FD2017E003F10804BD
:1008740000F078FAE02000F08BFA009D5DB1019859
:1008840054F8041B00F0F2FA009B043B0093019B14
:1008940004330193F1E700F073FA284600F09AF864
:1008A40004E0204600F096F8FFF732FF03B030BDB5
:1008B4003C04002008B500F015FB074B1A6842F40D
:1008C40080721A601A6822F00F021A60034B4FF00C
:1008D40000629A6008BD00BF003C024000ED00E0E9
:1008E40008B5FFF7E7FF0F4B0F4A5A600F4AF02194
:1008F40082F8231000229A6007221A60FFF7D6FEBE
:1009040000F074F8FFF700FF4FF480418068FFF7B0
:1009140099FE00F0BDF8064B1B68002BF9D0FFF7D9
:10092400F7FEF6E710E000E0FF117A0000ED00E0CA
:100934005004002008B5FFF7FBFE28B100F0A2F830
:1009440010B1024B01221A6008BD00BF5004002000
:10095400BFF34F8F0549064BCA6802F4E0621343A4
:10096400CB60BFF34F8F00BFFDE700BF00ED00E099
:100974000400FA0500F17843B3F5804F01D200205A
:1009840023E0A3F58042B2F5804F01D208201CE099
:10099400A3F50042B2F5804F01D2102015E0A3F573
:1009A4004043B3F5804F01D218200EE000F17740A8
:1009B40000F57F03B3F5803F01D2202005E000F568
:1009C4007E00B0F5003F03D22820022100F018BABF
:1009D40070470000044B1A881106FBD580B298803A
:1009E4001A885206FCD5704700100140214B5A6CFE
:1009F40042F010025A641A6B42F002021A63A3F521
:100A040050539A6842F420429A605A685A601A68AD
:100A140042F420421A60DA68DA601A6A22F07062DC
:100A24001A621A6A42F0E0621A621A6A22F070428A
:100A34001A621A6A42F0E0421A62A3F574439A8970
:100A440022F400521204120C9A819A8992B242F052
:100A54000C029A8120221A819A8992B242F400529D
:100A64009A81054B0122C3F80425044B044A1A60F9
:100A7400704700BF0038024054040020640900207D
:100A8400D9090008014BD3F8040570475404002029
:100A940070B5234D2B8898060DD5224AD2F800351F
:100AA400B3F5A06FBFBFA988D1540133C2F8003594
:100AB4004FF6DF732B802B88D90621D5194C1A49A0
:100AC4002046022200F09EFA064638B92046D4F8A1
:100AD4000015FFF7ADFBC4F804650BE094F9003092
:100AE400002B07DA2046D4F80015FFF74FFE002349
:100AF400C4F804350023C4F800354FF6EF732B8097
:100B04002B881A0742BF064B4FF6F7721A802B88C0
:100B14009B0742BF024B4FF6FD721A8070BD00BFA7
:100B24000010014054040020A315000838B5044601
:100B34004518AC4204D014F8010BFFF74BFFF8E75B
:100B440038BD00000A2810B5044602D10D20FFF775
:100B5400F9FF074A13681BB1591C1C70116010BDC2
:100B6400044B1B681BB12046BDE81040184710BD5C
:100B74005C0900206409002010B5441E14F8010F1C
:100B840010B1FFF7DFFFF9E710BD2DE9F04F034681
:100B940085B00D461878002800F0D380252801D0B0
:100BA4005E1C6EE05878302804D1DE1C98784FF033
:100BB400010809E02D280DBF98789E1C4FF000080D
:100BC400DE1C08BF4FF002080027A0F13003092BF8
:100BD40007D80A2303FB0700A0F1300716F8010B1E
:100BE400F3E7334600F0DF024C2A02BF187848F0DE
:100BF40004080136002800F0A480602886BFA0F114
:100C04002003DBB203464F2B12D006D8432B31D03E
:100C1400442B3CD0422B38D033E0552B37D0582BC3
:100C24002DD0532B2DD1D5F800902C1D4B4601E02F
:100C340008212DE0C9EB030513F8012B002AF9D193
:100C440018F0020F09D1BD4205F1010A04D2202097
:100C5400FFF778FF5546F3E755464846FFF78CFF04
:100C6400BD4202D32546334694E72020FFF76AFFAE
:100C74000135F5E728782C1DFFF764FFF2E7102112
:100C840006E0FFF75FFF2C46ECE7022100E00A21B3
:100C9400442B2A6805F1040404D1002ABCBF524243
:100CA40048F008084FF00009B2FBF1F501FB152EDE
:100CB400BEF1090F5FFA8EF32A4607D978280CBFD4
:100CC4004FF0270E4FF0070E7344DBB209F1010910
:100CD4000DEB090E30330EF8013C15B1B9F1100FCC
:100CE400E2D118F0080F1FBF04AB4B442D2209F1C9
:100CF400010918BF03F8102C18F0010F14BF4FF0AE
:100D0400300B4FF0200B4D4618F0020F09D1BD42B5
:100D140005F1010A04D25846FFF714FF5546F3E7DC
:100D2400554609F1FF391DF80900FFF70BFFB9F12A
:100D3400000FF6D1BD4295D22020FFF703FF013505
:100D4400F8E705B0BDE8F08F0FB407B504A951F872
:100D5400040B0191FFF719FF03B05DF804EB04B035
:100D640070470000044B1A69002ABFBF034A5A6047
:100D740002F188325A607047003C02402301674503
:100D8400024A136943F0004313617047003C024078
:100D9400014BD860704700BF003C02400E4BDA683C
:100DA400D20310D4DA68D1060FD4DA68D2050ED48F
:100DB400DA6812F0E00F0CD1DB6813F0020F14BFF5
:100DC4000820092070470120704706207047022040
:100DD40070470720704700BF003C024007B5092355
:100DE4008DF80730FFF7DAFF8DF807009DF807301C
:100DF400012BF7D09DF8070003B05DF804FB000059
:100E040070B5064641B1012908D002290CBF4FF440
:100E140000754FF4407503E00D4601E04FF4807512
:100E2400FFF7DCFF09281ED10F4C236923F440731C
:100E34002361216929432161236923F0F803236194
:100E4400236943F002031E432661236943F480337C
:100E54002361FFF7C3FF236923F00203236123699E
:100E640023F0F803236170BD003C024070B50546D1
:100E74000E46FFF7B3FF092813D10A4C236923F464
:100E840040732361236943F400732361236943F0AE
:100E9400010323612E60FFF7A1FF236923F00103FF
:100EA400236170BD003C024070B505460E46FFF755
:100EB40095FF092813D10A4C236923F44073236155
:100EC400236943F480732361236943F0010323619D
:100ED4002E80FFF783FF236923F00103236170BD94
:100EE400003C02400C4B1A68002142F001021A60D7
:100EF40099601A6822F0A85222F410221A60074A54
:100F04005A60074AC3F884201A6822F480221A60BF
:100F1400D960C3F88C1070470038024010300024A8
:100F24000030002070B4840746D0541E002A41D0FB
:100F3400CDB2034602E0621EE4B3144603F8015B3B
:100F44009A07F8D1032C2ED9CDB245EA05250F2CEA
:100F540045EA054519D903F110022646103E0F2E25
:100F640042F8105C42F80C5C42F8085C42F8045CFD
:100F740002F11002F2D8A4F1100222F00F0204F0E0
:100F84000F041032032C13440DD91E462246043A92
:100F9400032A46F8045BFAD8221F22F00302043223
:100FA400134404F003042CB1C9B21C4403F8011B1C
:100FB400A342FBD170BC704714460346C2E700BF8E
:100FC4000F4B30B41D6802E0D21A16D1ABB110F841
:100FD400014B2B1922465B7803F00303012B11F814
:100FE400013B08BF04F12002EC18647804F0030408
:100FF400012CE9D12033D21AE9D0104630BC704715
:101004000400002070B402B3124B1E6804E0E41A1A
:1010140018D1BBB1013A18D010F8015B73192C46F2
:101024005B7803F00303012B11F8013B08BF05F1C2
:101034002004F5186D7805F00305012DE7D1203360
:10104400E41AE7D0204670BC70471446204670BCB2
:10105400704700BF0400002040EA01039B0770B4FE
:101064002BD1032A29D90C460346214654F8046B94
:10107400A6F1013525EA060515F0803F05D1043AAD
:10108400032A43F8046B2146EFD8A2B10C781C70F4
:10109400013A013301313CB16AB111F8014B03F853
:1010A400014B013A002CF7D12AB11A44002103F86C
:1010B400011B9342FBD170BC70470346E5E700BFB8
:1010C400024B1A6801235C3200F002B8300400209D
:1010D400F0B420B307460D4617F8016B01E0A642B1
:1010E40016D015F8014B002CF9D1EEB13E460C4652
:1010F40016F8015B00E073B114F8013BAB42FAD17E
:101104005DB100233B70166006463046F0BC704764
:1011140063B13846DEE73746E8E72E46F3E7106862
:101124000028D7D10646F0E71660EEE717600646BA
:101134000370EAE72DE9F04F444C83460E46D4F899
:1011440000E000E02646344614F8015B0EEB05008F
:10115400407800F0080000F0FF080028F2D12D2D9F
:101164004BD02B2D04BF7578B41C1BB1102B60D051
:101174009A4603E0302D54D00A239A46B8F1000F62
:1011840014BF4FF000406FF000400027B0FBFAF9A5
:10119400BC460AFB19000CE0303DAB4219DD7E1C55
:1011A40005D0CC4524D821D00AFB0C5C012714F8C7
:1011B400015B0EEB0506767816F0040FECD116F001
:1011C400030606D0012E0CBF37265726AD1BAB42B3
:1011D400E5DC7B1C16D0C8F100008CEA000040441A
:1011E4004AB107B1611E1160BDE8F08F8542DBDDB5
:1011F4004FF0FF37DBE7BDE8F08FB41C75784FF094
:101204000108B2E7B8F1000F4FF0220314BF4FF00A
:1012140000406FF00040CBF80030002AE2D1BDE876
:10122400F08F237803F0DF03582B09D008239A4664
:10123400A4E7302D9CD1207800F0DF00582897D106
:101244004FF0100A65785346023497E704000020F3
:1012540030B4044C0D46134601462A46206830BC7F
:10126400FFF768BF300400202DE9F04F464C0F46CD
:10127400D4F800E000E027463C4614F8015B0EEB8E
:101284000506767806F0080606F0FF08002EF2D16F
:101294002D2D51D02B2D04BF7D78BC1C5BB1102BA0
:1012A4005BD04FF0FF39B9FBF3F903FB09FB6FEA9D
:1012B4000B0B9A4607E0302D43D00A23DFF8CC907D
:1012C4009A464FF0050B0027BC460CE0303DAB427C
:1012D40019DD7E1C05D0CC4524D821D00AFB0C5C3A
:1012E400012714F8015B0EEB0506767816F0040F5F
:1012F400ECD116F0030606D0012E0CBF3726572674
:10130400AD1BAB42E5DC002F11DBC8F100008CEA19
:10131400000040444AB107B1611E1160BDE8F08F7E
:101324005D45DBDD4FF0FF37DBE7BDE8F08F2223BF
:1013340003604FF0FF30EDE7BC1C7D784FF00108EF
:10134400ACE7237803F0DF03582B13D008239A4625
:101354004FF0070B6FF06049B5E7302D05D04FF023
:101364000F0B6FF070499A46ADE7267806F0DF065A
:10137400582EF4D14FF0100A657853464FF00F0BF6
:1013840002346FF070499EE704000020999999197E
:1013940030B4044C0D46134601462A46206830BC3E
:1013A400FFF762BF3004002030782530336C5820BA
:1013B400200025303258200048454C500045455007
:1013C400524F4D0047455453495A45002575204214
:1013D400797465730A0052454144005245414441C1
:1013E4004C4C004552415345414C4C00446F6E6592
:1013F4002E0A00575249544500496E76616C69645F
:101404002061646472210A0030782530386C5820D9
:101414002000535953494E464F00464C4153482FE0
:101424005352414D2F504147452053697A65733AD1
:101434002025754B422F25754B422F25754B420AAB
:1014440000426F6F746C6F616465722F415050205D
:1014540053697A65733A20202575422825754B42D5
:10146400292F25754B420A00454550524F4D2F41B7
:101474005050204261736520616464723A202030C8
:10148400782530386C582F30782530386C780A003D
:10149400454D5054590041505020656D7074792E5B
:1014A4000A00415050204E4F5420656D7074792EBF
:1014B4000A0045524153455F414C4C005245424F4E
:1014C4004F5400233F202C0D0A0020656D70747961
:1014D4003A20656D70747920636865636B20617070
:1014E4007020617265612E0A2065726173655F61A7
:1014F4006C6C3A206572617365206170702E0A20ED
:10150400656570726F6D3A20656570726F6D205BF2
:10151400726561647C77726974657C72656164610B
:101524006C6C7C6572617365616C6C5D20454550C3
:10153400524F4D206F70732E0A207265626F6F7464
:101544003A207265626F6F742073797374656D2EBF
:101554000A20726561643A207265616420666C6178
:1015640073682F7372616D2F7065726970682E0ACB
:101574002068656C703A2073686F772068656C70BA
:101584002E0A20737973696E666F3A2073686F77D9
:101594002073797374656D20696E666F2E0A00235B
:1015A40023000000002020202020202020202828A4
:1015B400282828202020202020202020202020200F
:1015C400202020202088101010101010101010104F
:1015D400101010101004040404040404040404107F
:1015E400101010101010414141414141010101010D
:1015F40001010101010101010101010101010101D7
:1016040010101010101042424242424202020202E2
:1016140002020202020202020202020202020202A6
:101624001010101020000000000000000000000056
:1016340000000000000000000000000000000000A6
:101644000000000000000000000000000000000096
:101654000000000000000000000000000000000086
:101664000000000000000000000000000000000076
:101674000000000000000000000000000000000066
:101684000000000000000000000000000000000056
:101694000000000000000000000000000000000046
:0C16A400000000000000000043000000F7
:1016B000CE140008A815000800000000F402002065
:1016C0005C030020C40300200000000000000000B4
:1016D000000000000000000000000000000000000A
:1016E000000000000000000000000000AC16000830
:1016F00000000000000000000000000000000000EA
:1017000000000000000000000000000000000000D9
:1017100000000000000000000000000000000000C9
:1017200000000000000000000000000000000000B9
:1017300000000000000000000000000000000000A9
:101740000000000000000000000000000000000099
:101750000000000000000000000000000000000089
:1017600001000000000000000E33CDAB34126DE626
:10177000ECDE05000B00000000000000000000008F
:101780000000000000000000000000000000000059
:101790000000000000000000000000000000000049
:1017A0000000000000000000000000000000000039
:1017B0000000000000000000000000000000000029
:041AE00008000020DA
:040000050800019559
:00000001FF
