:020000040800F2
:1000000000A0002089010008CD010008CD010008F2
:10001000CD01000851090008CD01000800000000D2
:10002000000000000000000000000000CD010008FA
:10003000CD01000800000000CD01000835090008CE
:10004000CD010008CD010008CD010008CD01000858
:10005000CD010008CD010008CD010008CD01000848
:10006000CD010008CD010008CD010008CD01000838
:10007000CD010008CD010008CD010008CD01000828
:10008000CD010008CD010008CD010008CD01000818
:10009000CD010008CD010008CD010008CD01000808
:1000A000CD010008CD010008CD010008CD010008F8
:1000B000CD010008CD010008CD010008CD010008E8
:1000C000CD010008CD010008CD010008CD010008D8
:1000D000CD010008CD010008CD010008CD010008C8
:1000E000CD010008CD010008CD010008CD010008B8
:1000F000CD010008CD010008CD010008CD010008A8
:10010000000000000000000000000000CD01000819
:10011000CD010008CD010008CD010008CD01000887
:10012000CD010008CD010008CD010008CD01000877
:10013000CD010008CD010008000000000000000013
:10014000CD010008CD010008CD010008000000002D
:10015000000000000000000000000000000000009F
:100160000000000000000000CD010008CD010008E3
:10017000CD010008000000000000000000000000A9
:0801800000000000CD010008A1
:10018800002103E00A4B5B584350043109480A4BED
:1001980042189A42F6D3094A02E0002342F8043B87
:1001A800074B9A42F9D300F07BFB00F08FFB7047B6
:1001B80068160008000000203404002034040020E1
:1001C80068090020FEE70000F0B54FF6FE7485B020
:1001D8000E460440F6B1102E37460F48A8BF102728
:1001E800214600F081FD204669463A4600F0AAF90A
:1001F80000251DF805100948013500F075FDBD42C0
:10020800F7D1ADB22C440A20751B00F06BFCA4B2E8
:10021800AEB2DFE705B0F0BD501300085A1300086E
:100228002DE9F043964BABB09A88ADF804200AACA0
:100238000646186800909B798DF806300D46802296
:100248000021204600F03EFE2A462046314600F0B6
:10025800D3FE8C4B18682246131BAB420CDA12F8FB
:10026800013BC118497811F00301F5D0022908BFF4
:10027800203B02F8013CEFE72046694600F0F0FE1B
:10028800002504464CB102AB002043F825406946DE
:1002980000F0E6FE01350446F4E7002D00F0EC809E
:1002A80000F028FA029E78490546304600F058FECC
:1002B80020B9764B186800F02FFCDAE03046744914
:1002C80000F04EFE002855D1039D7249284600F0E3
:1002D80047FE30B900F0A6F901466F4800F004FD6A
:1002E800C7E028466D4900F03BFE68B92146102258
:1002F800049800F07DFF214605460A22059800F083
:1003080077FF81B2A8B208E02846654900F028FEC8
:1003180030B900F087F901462046FFF755FFA8E0FD
:100328002846604900F01CFE10B900F087F98AE001
:1003380028465D4900F014FE002840F09A802146C6
:100348001022049800F054FF214685B21022059827
:1003580000F04EFFE907044603D5544800F0C4FCFA
:100368008AE000F05FF98542F7D82846A1B200F08C
:100378002DF968E03046494900F0F2FD78BB214686
:100388001022039800F0D4FF214607460A22049859
:1003980000F0CEFF0546002D6BDDB846002658F864
:1003A800049B042D2B46A8BF04239E4214DA22077F
:1003B80003D13F48394600F097FCF30029FA03F1CE
:1003C8003C48C9B2013400F08FFC230702D10A204F
:1003D80000F088FB0136E4E7043D4746DBE730469A
:1003E800354900F0BDFDB8B96988AA8833480223A9
:1003F80000F07AFC298832484B1E4FF4806293FB48
:10040800F2F22B6901329B0A00F06EFC2D48A968B4
:10041800EA6800F069FC2CE030462B4900F0A0FDAA
:1004280050B9E868296900F029F908B1274800E0BF
:10043800274800F059FC1CE03046264900F090FDA2
:1004480018B900F079F92448F3E73046234900F059
:1004580087FD70B9204800F047FCBFF34F8F204953
:10046800204BCA6802F4E0621343CB60BFF34F8F9E
:10047800FEE70A2000F036FB2BB0BDE8F08300BF92
:100488006B1400080400002060130008000000201E
:10049800651300086C130008741300087E13000825
:1004A800831300088B1300089B130008A11300088E
:1004B800B01300085A130008BA130008C213000842
:1004C800E913000810140008381400083E14000846
:1004D8004A1400085A140008941300086414000809
:1004E80000ED00E00400FA05074B9A881B6800201D
:1004F800904205D2C158013104D0043080B2F7E7E8
:100508004FF0FF30704700BF3404002010B5044698
:10051800FFF7EAFF431C012B094B98BF98881B681B
:1005280098BF0438002808DBC15AA14200EB030237
:1005380001D1508810BD0438F4E74FF6FF7010BDA4
:1005480034040020F8B515464FF6FE77D3070E465B
:1005580007EA000748BF01350C462B1BB81B33447C
:100568002044002B80B204DDFFF7D0FF24F8020BF3
:10057800F3E7F8BDF0B5144DAA88ADF5017D00206C
:1005880069469208FFF7DEFF00F0BCFB286800F020
:10059800FBFB0024AB880C4EB4EB930F0FDA3068EA
:1005A8006700A1B2384400F037FC306863100230AD
:1005B80038443DF8131000F02FFC0234EAE700F04D
:1005C800AFFB0DF5017DF0BD34040020F8B5144CE7
:1005D800A3889B08013B834207460E461FDDFFF7B1
:1005E80083FF431C054604D1FFF7C4FFFFF77CFFD8
:1005F80005463846FFF78AFFB04210D000F082FB6C
:1006080020683946284400F007FC20680230284456
:10061800314600F001FCBDE8F84000F081BBF8BDB0
:1006280034040020014B9888800870473404002067
:10063800014B1860998070473404002008B500F019
:1006480061FB044B186800F09FFBBDE8084000F010
:1006580067BB00BF34040020074BDA681B691344EA
:10066800013B9342184603D313F80119FF29F8D028
:10067800C2F10102104470473C040020021F0B1F06
:100688009B1A0344002B05DD52F8043F0133F6D0D2
:100698000020704701207047104A114B114910B5CE
:1006A800114C13441B1B114A9BB213800888104934
:1006B8005080091B890A918003F10063C3F30A0182
:1006C8005C1C09B12346F9E7936003F50063D36026
:1006D800C3EB802303F10063136110BD68160008A3
:1006E80034040020CCF7FF1F000000203C04002049
:1006F80000A00020004870473C04002072B6054B5B
:10070800DA68054B51681960126882F308881B681B
:10071800184700BF3C04002060090020044B05482E
:10072800DB681B68184000F1604358425841704725
:100738003C0400200000FE2F70B50E4D2E6900F01D
:10074800E1FA042000F0F4FAEC68EB6833449C42C8
:100758000BD220464FF40061FFF790FF10B92046F6
:1007680000F012FB04F50064EFE7BDE8704000F00C
:10077800D7BA00BF3C040020012937B5034640F32F
:100788008B8002460144002412F8010B04448A427B
:10079800E4B2F9D1002C7FD11A78832A23D00AD861
:1007A800802A12D0822A77D1FFF756FF02AB43F88E
:1007B800080D184613E0C12A33D0D02A67D0C02AC2
:1007C8006AD1FFF7B9FF20465EE0344B02A81B69E7
:1007D80040F8083D03E002A8DB4340F8043D04214B
:1007E80000F074F958E0FFF737FF2C4B0090DC68F5
:1007F8004FF0FF332246111B8142ECDA12F8011B3D
:100808004B40082103F001055B083DB183F06D43BF
:1008180083F4380383F4034383F020030139F1D1CF
:10082800E9E7D3F802000090586801901B48019A44
:10083800C56800992A448CB2AA420094019204D354
:10084800006914442844844201D9FF201CE00A436B
:10085800920701D0FD2017E003F1080400F052FAD6
:10086800042000F065FA009D5DB1019854F8041B5E
:1008780000F0A8FA009B043B0093019B043301930A
:10088800F1E700F04DFA284600F078F804E0204639
:1008980000F074F8FFF732FF03B030BD3C040020CD
:1008A80008B500F0E5FA074B1A6842F010021A6022
:1008B8001A6822F003021A60034B4FF000629A6034
:1008C80008BD00BF0020024000ED00E008B5FFF7BA
:1008D800E7FF114B114A5A60114AF02182F82310A0
:1008E80000229A6007221A60FFF7D6FE00F052F83D
:1008F800FFF700FF4FF400618068FFF799FE094B8E
:100908004FF4E0221A6000F095F8074B1B68002BA3
:10091800F9D0FFF7F3FEF6E710E000E0FF117A00E8
:1009280000ED00E024ED00E05004002008B5FFF7DA
:10093800F5FE28B100F078F810B1024B01221A60D8
:1009480008BD00BF50040020094C08B5A36A9B05E8
:1009580003D5A16B074800F0C7F9BFF34F8FE268D2
:10096800054B02F4E0621343E360BFF34F8FFEE7E9
:1009780000ED00E0471500080400FA05044BDA69A9
:100988001106FBD580B21885DA695206FCD5704786
:10099800003801401E4B9A6942F4804210B59A61B2
:1009A8005A691C4C42F480225A61A36843F470438C
:1009B800A360A3889BB2A380236843F420432360E9
:1009C800E368E36020460621072200F03FFA07218A
:1009D8000A46204600F03AFA0F4B1A6822F0010244
:1009E8001A601A6842F00C021A6010229A815A683A
:1009F80042F400425A601A6842F001021A60074B3A
:100A08000122C3F80425064B064A1A6010BD00BF30
:100A1800001002400004004800380140540400203F
:100A28006409002085090008014BD3F804057047C4
:100A38005404002038B5224BDA6990060CD52149B8
:100A4800D1F80025B2F5A06FBFBF988C8854013249
:100A5800C1F8002520221A62194BDB69D90621D575
:100A6800184C19492046022200F09CFA054638B96C
:100A78002046D4F80015FFF7D3FBC4F804550BE063
:100A880094F90030002B07DA2046D4F80015FFF758
:100A980073FE0023C4F804350023C4F80035084B5E
:100AA80010221A62064BDA69120744BF08221A623A
:100AB800DB699B0742BF024B02221A6238BD00BFA6
:100AC80000380140540400205B15000838B504467E
:100AD8004518AC4204D014F8010BFFF74FFFF8E7B4
:100AE80038BD00000A2810B5044602D10D20FFF7D2
:100AF800F9FF074A13681BB1591C1C70116010BD1F
:100B0800044B1B681BB12046BDE81040184710BDB8
:100B18005C0900206409002010B5441E14F8010F78
:100B280010B1FFF7DFFFF9E710BD2DE9F04F0346DD
:100B380085B00D461878002800F0D380252801D00C
:100B48005E1C6EE05878302804D1DE1C98784FF08F
:100B5800010809E02D280DBF98789E1C4FF0000869
:100B6800DE1C08BF4FF002080027A0F13003092B54
:100B780007D80A2303FB0700A0F1300716F8010B7A
:100B8800F3E7334600F0DF024C2A02BF187848F03A
:100B980004080136002800F0A480602886BFA0F170
:100BA8002003DBB203464F2B12D006D8432B31D09B
:100BB800442B3CD0422B38D033E0552B37D0582B20
:100BC8002DD0532B2DD1D5F800902C1D4B4601E08C
:100BD80008212DE0C9EB030513F8012B002AF9D1F0
:100BE80018F0020F09D1BD4205F1010A04D22020F4
:100BF800FFF778FF5546F3E755464846FFF78CFF61
:100C0800BD4202D32546334694E72020FFF76AFF0A
:100C18000135F5E728782C1DFFF764FFF2E710216E
:100C280006E0FFF75FFF2C46ECE7022100E00A210F
:100C3800442B2A6805F1040404D1002ABCBF52429F
:100C480048F008084FF00009B2FBF1F501FB152E3A
:100C5800BEF1090F5FFA8EF32A4607D978280CBF30
:100C68004FF0270E4FF0070E7344DBB209F101096C
:100C78000DEB090E30330EF8013C15B1B9F1100F28
:100C8800E2D118F0080F1FBF04AB4B442D2209F125
:100C9800010918BF03F8102C18F0010F14BF4FF00A
:100CA800300B4FF0200B4D4618F0020F09D1BD4212
:100CB80005F1010A04D25846FFF714FF5546F3E739
:100CC800554609F1FF391DF80900FFF70BFFB9F187
:100CD800000FF6D1BD4295D22020FFF703FF013562
:100CE800F8E705B0BDE8F08F0FB407B504A951F8CF
:100CF800040B0191FFF719FF03B05DF804EB04B092
:100D080070470000044B1A69120641BF034A5A6033
:100D180002F188325A60704700200240230167457B
:100D2800024A136943F080031361704700200240B0
:100D3800014BD860704700BF00200240084BDA68BA
:100D4800D10709D4DA68D20608D4DB6813F0040F97
:100D580014BF032004207047012070470220704709
:100D68000020024010B50446FFF7E8FF012806D12D
:100D78001CB1FFF7E3FF013CF8E7052010BD002C8C
:100D880008BF052010BD000038B505464FF43020D7
:100D9800FFF7E8FF042811D1094C236943F0020347
:100DA80023616561236943F0400323614FF43020D8
:100DB800FFF7D8FF236923F00203236138BD00BF82
:100DC8000020024073B5002306464FF430200D463C
:100DD8000193FFF7C7FF042819D10E4C236943F08C
:100DE80001032361ABB233804FF43020FFF7BAFF21
:100DF800042808D102360196019B2D0C1D804FF462
:100E08003020FFF7AFFF236923F00103236102B00D
:100E180070BD00BF0020024070B505464FF4302079
:100E28000E46FFF79FFF04280DD1074C236943F0B6
:100E3800010323614FF430202E80FFF793FF2369CD
:100E480023F00103236170BD0020024001F0070375
:100E5800C90800EB810010B59B00046A0F21994076
:100E680024EA01010162016A9A401143016210BD3E
:100E7800114B1A6842F001021A6059680F4A0A4079
:100E88005A601A6822F0847222F480321A601A6852
:100E980022F480221A605A6822F4FE025A60DA6A42
:100EA80022F47F5222F03F02DA62196B044A0A40A8
:100EB8001A6300229A6070470010024000C0FFF8D1
:100EC800CCEC000F70B4840746D0541E002A41D0E1
:100ED800CDB2034602E0621EE4B3144603F8015B98
:100EE8009A07F8D1032C2ED9CDB245EA05250F2C47
:100EF80045EA054519D903F110022646103E0F2E82
:100F080042F8105C42F80C5C42F8085C42F8045C59
:100F180002F11002F2D8A4F1100222F00F0204F03C
:100F28000F041032032C13440DD91E462246043AEE
:100F3800032A46F8045BFAD8221F22F0030204327F
:100F4800134404F003042CB1C9B21C4403F8011B78
:100F5800A342FBD170BC704714460346C2E700BFEA
:100F68000F4B30B41D6802E0D21A16D1ABB110F89D
:100F7800014B2B1922465B7803F00303012B11F870
:100F8800013B08BF04F12002EC18647804F0030464
:100F9800012CE9D12033D21AE9D0104630BC704771
:100FA8000400002070B402B3124B1E6804E0E41A77
:100FB80018D1BBB1013A18D010F8015B73192C464F
:100FC8005B7803F00303012B11F8013B08BF05F11F
:100FD8002004F5186D7805F00305012DE7D12033BD
:100FE800E41AE7D0204670BC70471446204670BC0F
:100FF800704700BF0400002040EA01039B0770B45B
:101008002BD1032A29D90C460346214654F8046BF0
:10101800A6F1013525EA060515F0803F05D1043A09
:10102800032A43F8046B2146EFD8A2B10C781C7050
:10103800013A013301313CB16AB111F8014B03F8AF
:10104800014B013A002CF7D12AB11A44002103F8C8
:10105800011B9342FBD170BC70470346E5E700BF14
:10106800024B1A6801235C3200F002B830040020F9
:10107800F0B420B307460D4617F8016B01E0A6420D
:1010880016D015F8014B002CF9D1EEB13E460C46AE
:1010980016F8015B00E073B114F8013BAB42FAD1DA
:1010A8005DB100233B70166006463046F0BC7047C1
:1010B80063B13846DEE73746E8E72E46F3E71068BF
:1010C8000028D7D10646F0E71660EEE71760064617
:1010D8000370EAE72DE9F04F444C83460E46D4F8F6
:1010E80000E000E02646344614F8015B0EEB0500EC
:1010F800407800F0080000F0FF080028F2D12D2DFC
:101108004BD02B2D04BF7578B41C1BB1102B60D0AD
:101118009A4603E0302D54D00A239A46B8F1000FBE
:1011280014BF4FF000406FF000400027B0FBFAF901
:10113800BC460AFB19000CE0303DAB4219DD7E1CB1
:1011480005D0CC4524D821D00AFB0C5C012714F823
:10115800015B0EEB0506767816F0040FECD116F05D
:10116800030606D0012E0CBF37265726AD1BAB420F
:10117800E5DC7B1C16D0C8F100008CEA0000404476
:101188004AB107B1611E1160BDE8F08F8542DBDD11
:101198004FF0FF37DBE7BDE8F08FB41C75784FF0F0
:1011A8000108B2E7B8F1000F4FF0220314BF4FF067
:1011B80000406FF00040CBF80030002AE2D1BDE8D3
:1011C800F08F237803F0DF03582B09D008239A46C1
:1011D800A4E7302D9CD1207800F0DF00582897D163
:1011E8004FF0100A65785346023497E70400002050
:1011F80030B4044C0D46134601462A46206830BCDC
:10120800FFF768BF300400202DE9F04F464C0F4629
:10121800D4F800E000E027463C4614F8015B0EEBEA
:101228000506767806F0080606F0FF08002EF2D1CB
:101238002D2D51D02B2D04BF7D78BC1C5BB1102BFC
:101248005BD04FF0FF39B9FBF3F903FB09FB6FEAF9
:101258000B0B9A4607E0302D43D00A23DFF8CC90D9
:101268009A464FF0050B0027BC460CE0303DAB42D8
:1012780019DD7E1C05D0CC4524D821D00AFB0C5C96
:10128800012714F8015B0EEB0506767816F0040FBB
:10129800ECD116F0030606D0012E0CBF37265726D0
:1012A800AD1BAB42E5DC002F11DBC8F100008CEA76
:1012B800000040444AB107B1611E1160BDE8F08FDB
:1012C8005D45DBDD4FF0FF37DBE7BDE8F08F22231C
:1012D80003604FF0FF30EDE7BC1C7D784FF001084C
:1012E800ACE7237803F0DF03582B13D008239A4682
:1012F8004FF0070B6FF06049B5E7302D05D04FF080
:101308000F0B6FF070499A46ADE7267806F0DF06B6
:10131800582EF4D14FF0100A657853464FF00F0B52
:1013280002346FF070499EE70400002099999919DA
:1013380030B4044C0D46134601462A46206830BC9A
:10134800FFF762BF3004002030782530336C582016
:10135800200025303258200048454C500045455063
:10136800524F4D0047455453495A45002575204270
:10137800797465730A00524541440052454144411D
:101388004C4C004552415345414C4C00446F6E65EE
:101398002E0A00575249544500496E76616C6964BB
:1013A8002061646472210A0030782530386C582036
:1013B8002000535953494E464F00464C4153482F3D
:1013C8005352414D2F504147452053697A65733A2E
:1013D8002025754B422F25754B422F25754B420A08
:1013E80000426F6F746C6F616465722F41505020BA
:1013F80053697A65733A20202575422825754B4232
:10140800292F25754B420A00454550524F4D2F4113
:101418005050204261736520616464723A20203024
:10142800782530386C582F30782530386C780A0099
:10143800454D5054590041505020656D7074792EB7
:101448000A00415050204E4F5420656D7074792E1B
:101458000A0045524153455F414C4C005245424FAA
:101468004F5400233F202C0D0A0020656D707479BD
:101478003A20656D70747920636865636B206170CC
:101488007020617265612E0A2065726173655F6103
:101498006C6C3A206572617365206170702E0A2049
:1014A800656570726F6D3A20656570726F6D205B4F
:1014B800726561647C77726974657C726561646168
:1014C8006C6C7C6572617365616C6C5D2045455020
:1014D800524F4D206F70732E0A207265626F6F74C1
:1014E8003A207265626F6F742073797374656D2E1C
:1014F8000A20726561643A207265616420666C61D5
:1015080073682F7372616D2F7065726970682E0A27
:101518002068656C703A2073686F772068656C7016
:101528002E0A20737973696E666F3A2073686F7735
:101538002073797374656D20696E666F2E0A005288
:10154800656164206572726F722040202530386CA6
:10155800780A0023230000000020202020202020DB
:10156800202028282828282020202020202020204B
:10157800202020202020202020881010101010105B
:1015880010101010101010101004040404040404A7
:101598000404041010101010101041414141414141
:1015A8000101010101010101010101010101010123
:1015B8000101010110101010101042424242424233
:1015C80002020202020202020202020202020202F3
:1015D800020202021010101020000000000000009B
:1015E80000000000000000000000000000000000F3
:1015F80000000000000000000000000000000000E3
:1016080000000000000000000000000000000000D2
:1016180000000000000000000000000000000000C2
:1016280000000000000000000000000000000000B2
:1016380000000000000000000000000000000000A2
:101648000000000000000000000000000000000092
:10165800000000000000000000000000430000003F
:10166800721400086015000800000000F402002051
:101678005C030020C40300200000000000000000FC
:101688000000000000000000000000000000000052
:1016980000000000000000000000000064160008C0
:1016A8000000000000000000000000000000000032
:1016B8000000000000000000000000000000000022
:1016C8000000000000000000000000000000000012
:1016D8000000000000000000000000000000000002
:1016E80000000000000000000000000000000000F2
:1016F80000000000000000000000000000000000E2
:1017080000000000000000000000000000000000D1
:1017180001000000000000000E33CDAB34126DE66E
:10172800ECDE05000B0000000000000000000000D7
:1017380000000000000000000000000000000000A1
:101748000000000000000000000000000000000091
:101758000000000000000000000000000000000081
:101768000000000000000000000000000000000071
:041A98000800002022
:040000050800018965
:00000001FF
