:020000040800F2
:1000000000400020E90100086502000865020008C0
:1000100000000000000000000000000000000000E0
:100020000000000000000000000000006502000861
:10003000000000000000000065020008AD09000893
:1000400065020008650200086502000865020008F4
:1000500065020008650200086502000865020008E4
:1000600065020008650200086502000865020008D4
:1000700065020008650200086502000865020008C4
:1000800065020008650200086502000865020008B4
:1000900065020008650200086502000865020008A4
:1000A0006502000865020008650200086502000894
:1000B0006502000865020008650200086502000884
:0400C0005FF808F1EC
:1000C400002243088B4274D303098B425FD3030A93
:1000D4008B4244D3030B8B4228D3030C8B420DD3A6
:1000E400FF22090212BA030C8B4202D31212090234
:1000F40065D0030B8B4219D300E0090AC30B8B4272
:1001040001D3CB03C01A5241830B8B4201D38B031F
:10011400C01A5241430B8B4201D34B03C01A5241C4
:10012400030B8B4201D30B03C01A5241C30A8B4207
:1001340001D3CB02C01A5241830A8B4201D38B02F2
:10014400C01A5241430A8B4201D34B02C01A524196
:10015400030A8B4201D30B02C01A5241CDD2C30908
:100164008B4201D3CB01C01A524183098B4201D384
:100174008B01C01A524143098B4201D34B01C01A6F
:10018400524103098B4201D30B01C01A5241C308E7
:100194008B4201D3CB00C01A524183088B4201D356
:1001A4008B00C01A524143088B4201D34B00C01A42
:1001B4005241411A00D20146524110467047FFE7AE
:1001C40001B5002000F00CF802BDC0460029F7D0AC
:1001D40003B5FFF775FF0EBC4243891A1847C046A2
:1001E4007047C0461248854612480168090E124AF3
:1001F400914205D111481249016012481249016027
:10020400002103E0114B5B58435004311048114B5B
:1002140042189A42F6D3104A02E0002313600432D3
:100224000E4B9A42F9D300F081FB00F08FFBFEE7FE
:1002340000400020040000001F00000018100240CD
:10024400010000000000014000000000BC1700088D
:100254000000002034040020340400206809002039
:10026400FEE7000001239843F0B50E1C051C85B081
:10027400002E1ED0371E0F2F00DD10270E48291C1C
:1002840000F05BFD281C69463A1C00F0ABF9002421
:100294006B460A48195D013400F04FFDBC42F7D1AA
:1002A400A4B265190A20341B00F03CFCADB2A6B21E
:1002B400DEE705B0F0BDC046B8140008C21400085B
:1002C400F0B5061C0D1CADB0954907220CAC02A874
:1002D40000F00EFE00218022201C00F047FE2A1CA4
:1002E400201C311C00F0DEFE00228E4B1868AA424E
:1002F4000BDAA35CC1184E780321314003D00229E4
:1003040000D1203BA3540132F1E7201C02A900F0E4
:1003140005FF0025041C002C09D0AA0004ABD4500E
:10032400002002A900F0FAFE0135041CF3E7002DB9
:1003340000D1F2E000F028FA049E051C7A49301C32
:1003440000F05AFE002804D1784B186800F004FC31
:10035400E0E0301C764900F04FFE00285AD1059D9C
:100364007449281C00F048FE002806D100F0A4F9C6
:10037400011C714800F0E1FCCCE0281C6F4900F03E
:100384003BFE00280ED1211C1022069800F0B8FF75
:10039400211C051C0A22079800F0B2FF011CA8B218
:1003A40089B209E0281C664900F026FE002806D11F
:1003B40000F082F9011C201CFFF754FFAAE0281C5E
:1003C400604900F019FE002802D100F081F98EE0A6
:1003D400281C5D4900F010FE002800D09AE0211C82
:1003E4001022069800F08CFF211C85B21022079879
:1003F40000F086FF041CEB0703D5544800F09DFC75
:100404008BE000F059F98542F7D8A1B2281C00F01E
:1004140029F96CE0301C494900F0EEFD00282ED18A
:10042400211C1022059801F037F8211C061C0A2211
:10043400069801F031F8051C002D6BDD00273368A8
:1004440001932B1E042B00DD04239F4214DA23079F
:1004540003D13F48311C00F070FC019BF900CB40F4
:100464003C48D9B2013400F068FC230702D10A20C9
:1004740000F058FB0137E4E70436043DDCE7301CA8
:10048400354900F0B9FD002817D16988AA88334896
:10049400022300F052FC298831484B1EDA17920DD2
:1004A400D2182B69921201329B0A00F046FC2D48A7
:1004B400A968EA6800F041FC2CE0301C2A4900F0ED
:1004C4009BFD00280BD1E868296900F01FF900287A
:1004D40001D0264800E0264800F02FFC1AE0301C2A
:1004E400244900F089FD002803D100F073F9224863
:1004F400F2E7301C214900F07FFD00280AD11E4894
:1005040000F01BFCBFF34F8F1D4A1E4BDA60BFF394
:100514004F8FFEE70A2000F005FB2DB0F0BDC0466A
:10052400D315000804000020C814000800000020AF
:10053400CD140008D4140008DC140008E6140008E4
:10054400EB140008F314000803150008091500084B
:1005540018150008C2140008221500082A150008FE
:100564005115000878150008A0150008A615000804
:10057400B2150008C2150008FC140008CC150008C8
:100584000400FA0500ED00E00020074B9A881B6880
:10059400904205D2C158013104D0043080B2F7E74B
:1005A400012040427047C0463404002010B5041CAA
:1005B400FFF7EAFF421C094B012A01D89888043846
:1005C4001B68C018C21A07D4021F9188A14201D126
:1005D400408802E0101CF5E7014810BD34040020F7
:1005E400FFFF0000F8B5012398430E1C071C0C1CE8
:1005F4001340D518B81B2B1B2018F31880B2002BFE
:1006040004DDFFF7D3FF20800234F3E7F8BD0000D8
:1006140071B5134CFFB0A288002092086946FFF719
:10062400E1FF00F095FB206800F0D4FB0025A388CF
:100634009B089D4210DA23686E00A9B2F01800F0FE
:100644000DFC6A462368981C6B105B008019D15A14
:1006540000F004FC0235EAE700F08AFB7FB071BDCC
:1006640034040020F8B5134DAB889B08013B83424A
:100674001FDD0E1C071CFFF787FF041C431C04D15D
:10068400FFF7C6FFFFF780FF041C381CFFF78EFF3F
:10069400B0420ED000F05CFB2B68391CE01800F06F
:1006A400DDFB2868311C0230001900F0D7FB00F094
:1006B4005FFBF8BD34040020014B98888008704724
:1006C40034040020014B18609980704734040020E2
:1006D40008B500F03DFB034B186800F07BFB00F00D
:1006E40047FB08BD34040020074BD8681A698218F8
:1006F400531E834204D31A78FF2A01D1013BF8E741
:10070400181A01307047C0463C040020031CCA1A62
:100714008218002A04DD1A68013203D10433F6E793
:10072400012000E000207047114A124B10B5124C12
:10073400D3181248124A1B1B9BB21249001B138088
:10074400800A098890808020000551801B185C1C59
:10075400580501D0231CFAE78020000193601B1880
:100764008020890200050918D360CB1A136110BDDB
:10077400BC170008340400200000002000400020C2
:100784003C040020CCF7FF1F004870473C040020C5
:1007940008B572B6054BDA68054B516819601268E2
:1007A40082F308881B68984708BDC0463C040020B3
:1007B40060090020054BDB681868054B1840E023EE
:1007C4001B06C018434258417047C0463C040020F1
:1007D4000000FE2F70B50E4D2E6900F0B9FA04200A
:1007E40000F0CEFAEC68EB68F3189C420DD280213D
:1007F400201C0901FFF78AFF002802D1201C00F009
:10080400E9FA80231B01E418EDE700F0B1FA70BDAA
:100814003C04002073B5012900DC82E0031C0024A1
:1008240041181A780133A418E4B28B42F9D1002C90
:1008340077D10378051C832B19D007D8802B0ED0D1
:10084400822B6ED1FFF750FF00900BE0C12B2AD012
:10085400D02B61D0C02B64D1FFF7BCFF58E0314BE3
:100864001B6900936846042100F050F959E0FFF732
:100874003BFF2C4B0090DD6801235B4284420EDA7F
:10088400625D53400822012119405B08002901D010
:1008940025494B40013A002AF5D10134EEE7DB4308
:1008A40001A80193DFE7811C0422684600F020FBC5
:1008B400009C291D0422A6B201A8009600F018FB92
:1008C400184A019BD168CB1801938B4204D3126957
:1008D4009E198A18964201D9FF201AE02343FD206D
:1008E4009B0716D100F034FA0420083500F048FACA
:1008F400009C002C0AD0019802CD00F087FA009BDE
:10090400043B0093019B04330193F1E700F030FAB8
:10091400201C00F059F804E0201C00F055F8FFF703
:1009240037FF73BD3C0400202083B8ED08B500F008
:10093400AFFA1021044B1A680A431A601A680F3977
:100944008A431A6008BDC0460020024008B5FFF77C
:10095400EDFFC020104A114B114953600B6A000689
:100964001B021B0A03430B620023936007331360CB
:10097400FFF7DAFE00F034F8FFF706FF8021806805
:100984000901FFF79FFE00F073F8064B1B68002B6C
:10099400F9D0FFF7FDFEF6E710E000E0FF117A0062
:1009A40000ED00E05004002008B5FFF703FF002825
:1009B40006D000F055F8002802D00122014B1A603D
:1009C40008BDC04650040020044BDA691206FBD56A
:1009D40080B21885DA695206FCD570470048004099
:1009E4008020184BC002D9690143D961F0215A69AA
:1009F400090402435A61144B0C209A680A43A0214B
:100A04009A609A88090492B29A801A680A431A6012
:100A1400DA68DA608822D2015A6201220B4B196823
:100A2400914319601968014319601021998119686B
:100A340011431960064B0749CA50074A074B1A600D
:100A44007047C046001002400004004800480040BF
:100A54000405000054040020CD09000864090020A6
:100A6400014B024AD058704704050000540400208A
:100A740070B5214DEB699B060CD5A0211F4AC90016
:100A840053581F48834203DCA88CD054013353507D
:100A940020232B62EB69DB0621D5184C1949201C55
:100AA400022200F0D3FAA023061CDB00002806D1A2
:100AB400E158201CFFF704FC134BE65009E02278B0
:100AC4007F2A06D9E158201CFFF7A4FE00220E4B12
:100AD400E250A0230022DB00E25010232B62082303
:100AE400EA691A4201D0044A13620223EA691A42EB
:100AF40001D0014A136270BD004800405404002034
:100B0400FF040000AF1600080405000038B5041CFB
:100B14004518AC4204D02078FFF756FF0134F8E7BB
:100B240038BD000010B5041E0A2C02D10D20FFF7B9
:100B3400F9FF074A1368002B03D0591C11601C707D
:100B440005E0044B1B68002B01D0201C984710BD06
:100B54005C0900206409002010B5041C20780028DA
:100B640003D00134FFF7DEFFF8E710BDF0B5071C32
:100B74000C1C8BB03878002800D1DCE0252801D08B
:100B8400013776E07E78302E03D1FB1CBE7801223B
:100B940007E02D2E02D0BB1C002202E00222BE7808
:100BA400FB1C009200220292321C303A1F1C092ABC
:100BB40008D80A2202994A439619303E02961E78B2
:100BC4000133F1E72022311C91430A1E4C2A05D13E
:100BD4000099483A11431E7800910137002E00D144
:100BE400A9E0331E602B01D9203BDBB24F2B14D07C
:100BF40008D8432B33D0442B3FD002220392422BFC
:100C04003DD035E0552B38D0582B2FD0532B2FD136
:100C14002568231D01932B1C01E008222EE05C1B98
:100C240001335A1E1278002AF9D1009B9B0709D47C
:100C3400029B661C9C4204D22020FFF773FF341CE5
:100C4400F3E7341C281CFFF787FF029B9C4201D367
:100C5400019C8FE72020FFF765FF0134F5E720684A
:100C6400231DC0B20193FFF75DFFF1E7102205E0F9
:100C7400301CFFF757FF0194EAE70A220392221D72
:100C840001922568442B06D1002D04DA0823009A2A
:100C94006D421A43009200230493281C0399FFF722
:100CA40095FA281CCBB20C1C03990593FFF708FA9C
:100CB400051C092C07D92723782E00D0203B059A40
:100CC4009B18DBB20593049B04995C1C059B06AA44
:100CD40030335354002D03D0102C01D00494DCE79E
:100CE400009B1B0703D52D2306AA1355013430237B
:100CF4000393009BDB0701D420230393251C009B53
:100D04009B0709D4029B6E1C9D4204D20398FFF7F3
:100D140009FF351CF3E7351C013C06AB185DFFF7F2
:100D240001FF002CF8D1029B9D4291D22020FFF7B5
:100D3400F9FE0135F7E70BB0F0BD0FB407B504A910
:100D440001C90191FFF712FF03B008BC04B01847B2
:100D5400044B1A69120603D5034A5A60034A5A60BF
:100D64007047C0460020024023016745AB89EFCDA0
:100D74008021024A13690B4313617047002002402B
:100D8400014BD8607047C046002002400120074B49
:100D9400DA68024209D1DA680018D20605D4D868A4
:100DA40004231840421E9041181A70470020024044
:100DB40010B5041CFFF7EAFF012807D1002C03D06B
:100DC400FFF7E4FF013CF7E7043002E0002C00D118
:100DD400052010BD70B5061CB0200003FFF7E8FF26
:100DE400042810D102254022B020074C00032369B7
:100DF4002B4323616661236913432361FFF7D8FF03
:100E04002369AB43236170BD00200240F7B5061C83
:100E1400B020002300030D1C0193FFF7C9FF042831
:100E240018D10127B0200C4C000323693B432361F4
:100E3400ABB23380FFF7BCFF042808D1B0200236E0
:100E44000196019B2D0C1D800003FFF7B1FF236960
:100E5400BB432361FEBDC04600200240F8B5061C1A
:100E6400B02000030F1CFFF7A3FF04280CD10125B9
:100E7400B020064C000323692B4323613780FFF71E
:100E840097FF2369AB432361F8BDC04600200240AD
:100E94000121114B1A680A431A6058680F4A02402C
:100EA4005A6018680E4A02401A6018680D4A0240D7
:100EB4001A6058680C4A02400F205A60DA6A82436A
:100EC400DA62186B094A02401A635A6B8A435A63FE
:100ED40000229A607047C046001002400CB8FF0818
:100EE400FFFFF6FEFFFFFBFFFFFFC0FFACFEF0FFBE
:100EF40070B50F2A32D9041C0C430B1CA40731D142
:100F0400151C041C103D2D0901352D0149191E68BD
:100F140026605E6866609E68A660DE681033E660E0
:100F240010349942F3D10F2345191340032B1BD9D5
:100F34001C1F0023A4080134A400CE58EE5004332F
:100F4400A342FAD1ED18C91803231A4005D000238F
:100F5400CC5CEC5401339342FAD170BD051C002AD9
:100F6400F5D1FAE7051CF2E71A1CF8E770B5830718
:100F74003FD0541E002A3BD0CEB2031C032503E00D
:100F8400621E002C34D0141C01335A1E16702B42DE
:100F9400F6D1032C24D9FF250D402A0215432A0437
:100FA40015430F2C11D9261C103E36090136360183
:100FB4001A1C9B19156055609560D56010329342D8
:100FC400F8D10F221440032C0AD9261FB608013683
:100FD400B6001A1C9B1920C29342FCD10322144070
:100FE400002C05D0C9B21C1919700133A342FBD1DE
:100FF40070BD141C031CCCE7F0B500250326124B6E
:101004001F68435DFA1852783240012A10D04A5DB5
:10101400BC1864783440012C11D09B1A12D1002AD8
:1010240010D00135435DFA1852783240012AEED1CE
:101034004A5D2033BC1864783440012CEDD1203251
:101044009B1AEED0181CF0BD04000020F0B59446A5
:10105400002A23D0124B00241A6803270CE00D5DEC
:10106400561976783E40012E13D05B1B14D1002D07
:1010740012D00134A44511D0035DD5186D783D40DC
:10108400012DECD10D5D2033561976783E40012EAA
:10109400EBD120355B1BECD0181CF0BD0023FBE723
:1010A40004000020031C0B4370B5051C9B0701D1F1
:1010B400032A15D8002A12D04C1C0978013A6B1C5B
:1010C400297000291CD0211C07E00C7801335D1E17
:1010D400013A2C700131002C12D0002AF5D170BDD8
:1010E400051C0C4E0C680C4BE318A3433342E1D1AE
:1010F40004352B1F043A04311C60032AF2D8D9E7C3
:101104009C180021002AEAD019700133A342FBD1B4
:10111400E5E7C04680808080FFFEFEFE08B5034BF5
:101124001A6801235C3200F003F808BD3004002083
:10113400F0B5002823D0471C06780C1C02E00134CB
:10114400AE4214D02578002DF9D1002E1CD07E1C7F
:101154003D780B1C02E00133002C0CD01C78AC420F
:10116400F9D1002D09D000233B701660F0BD002B8F
:101174000DD0381CDFE7371CE9E70026F5E71068D7
:101184000028D8D10020F1E716600020EEE71760B0
:101194000370EBE7F0B54D4656465F464446F0B45F
:1011A4001E1C554B85B002911D6803900B1C914683
:1011B400082100E03B1C1C785F1C2A19527811425C
:1011C400F8D12D2C69D0002290462B2C00D173E04D
:1011D400002E04D0102E00D171E0321C05E0302C1A
:1011E40000D17DE00A230A261A1C444B111C4344F7
:1011F400181C92469B46FEF7E9FF5846019151465A
:10120400FEF75EFF04228446D3469246321C3B1C02
:101214002E1C00206546002194460DE0303CA44578
:1012240018DD421C06D0A9422ED82AD05A460120E5
:10123400514361181C7801335746321952781742CA
:10124400ECD103273A4005D0012A20D05722A41A12
:10125400A445E6DC421C25D04246524251400A1CB9
:1012640049464244002944D0002813D1101C029B53
:101274004A46136005B03CBC90469946A246AB462C
:10128400F0BD019A9442D1DD01204042D2E73722D9
:10129400A41ADDE7101C013BEAE79F1C5C780123DC
:1012A400984695E72222039914480A604A46404426
:1012B400002ADFD0013BDBE79F1C5C7888E7102322
:1012C4001A1C302C00D090E73B7810329343582BF3
:1012D40000D082E710237C781A1C0237102684E79A
:1012E40020223B789343582BF4D0082308261A1C59
:1012F4007BE7101CBEE7C04604000020FFFFFF7F11
:1013040038B5051C0C1C131C034A291C1068221C2C
:10131400FFF740FF38BDC04630040020F0B54D460D
:10132400564644465F46F0B41E1C574B85B088466B
:101334001D6803900B1C9146082100E0031C1C78D7
:10134400581C2A1952781142F8D182462D2C6AD0A1
:10135400002202922B2C6CD0002E0FD0102E6CD0B9
:101364000120311C40420196FEF7AAFE071C012011
:10137400311C4042FEF72AFF8C4607E0302C64D033
:1013840005230A269C46414F053301930422534604
:101394009246013A00200021934600960EE0009AFE
:1013A400303CA24219DD421C06D0B9422FD82CD0C1
:1013B4000120019A514361181C78013356462A19B9
:1013C40052781642EBD15E46324006D0012A21D033
:1013D4005722A41A009AA242E5DC00281DDB029CD5
:1013E400A4466242514061444A46002A05D042461E
:1013F400002800D05A1E4B461A60081C05B03CBC9D
:1014040090469946A246AB46F0BD6445D0DD012026
:101414004042D1E73722A41ADCE7222203990A606A
:1014240001214942E0E79A1C5C7801239246029329
:1014340092E79A1C92465C788EE7302C12D00F23E8
:101444009C460133124F0193A0E7534620221B7898
:101454009343582B0CD007239C4601330D4F019323
:10146400082693E7534620221B789343582BE6D152
:1014740053465C7802239C460D33E2449C46013378
:10148400034F0193102681E70400002099999919CC
:10149400FFFFFF0FFFFFFF1F38B5051C0C1C131CBB
:1014A400034A291C1068221CFFF738FF38BDC046C8
:1014B4003004002030782530336C5820200025304B
:1014C4003258200048454C5000454550524F4D007D
:1014D40047455453495A450025752042797465732C
:1014E4000A00524541440052454144414C4C004598
:1014F40052415345414C4C00446F6E652E0A0057CF
:101504005249544500496E76616C69642061646493
:1015140072210A0030782530386C58202000535945
:1015240053494E464F00464C4153482F5352414D68
:101534002F504147452053697A65733A2025754BEE
:10154400422F25754B422F25754B420A00426F6F7F
:10155400746C6F616465722F4150502053697A65D1
:10156400733A20202575422825754B42292F25756D
:101574004B420A00454550524F4D2F415050204296
:1015840061736520616464723A20203078253038B4
:101594006C582F30782530386C780A00454D5054FB
:1015A400590041505020656D7074792E0A004150E5
:1015B40050204E4F5420656D7074792E0A004552A8
:1015C4004153455F414C4C005245424F4F54002318
:1015D4003F202C0D0A0020656D7074793A20656DEA
:1015E40070747920636865636B2061707020617228
:1015F40065612E0A2065726173655F616C6C3A20C7
:101604006572617365206170702E0A206565707261
:101614006F6D3A20656570726F6D205B72656164F1
:101624007C77726974657C72656164616C6C7C65DD
:1016340072617365616C6C5D20454550524F4D205D
:101644006F70732E0A207265626F6F743A20726530
:10165400626F6F742073797374656D2E0A207265DE
:1016640061643A207265616420666C6173682F73EB
:1016740072616D2F7065726970682E0A2068656CDE
:10168400703A2073686F772068656C702E0A207337
:101694007973696E666F3A2073686F772073797314
:1016A40074656D20696E666F2E0A002323000000A6
:1016B400002020202020202020202828282828201E
:1016C4002020202020202020202020202020202016
:1016D400208810101010101010101010101010107E
:1016E400100404040404040404040410101010106E
:1016F4001010414141414141010101010101010138
:101704000101010101010101010101011010101089
:101714001010424242424242020202020202020209
:10172400020202020202020202020202101010105D
:101734002000000000000000000000000000000085
:101744000000000000000000000000000000000095
:101754000000000000000000000000000000000085
:101764000000000000000000000000000000000075
:101774000000000000000000000000000000000065
:101784000000000000000000000000000000000055
:101794000000000000000000000000000000000045
:1017A4000000000000000000000000000000000035
:0817B4000000000043000000EA
:1017BC00DA150008B416000800000000F40200203E
:1017CC005C030020C40300200000000000000000A7
:1017DC0000000000000000000000000000000000FD
:1017EC00000000000000000000000000B817000816
:1017FC0000000000000000000000000000000000DD
:10180C0000000000000000000000000000000000CC
:10181C0000000000000000000000000000000000BC
:10182C0000000000000000000000000000000000AC
:10183C00000000000000000000000000000000009C
:10184C00000000000000000000000000000000008C
:10185C00000000000000000000000000000000007C
:10186C0001000000000000000E33CDAB34126DE619
:10187C00ECDE05000B000000000000000000000082
:10188C00000000000000000000000000000000004C
:10189C00000000000000000000000000000000003C
:1018AC00000000000000000000000000000000002C
:1018BC00000000000000000000000000000000001C
:041BEC0008000020CD
:04000005080001E905
:00000001FF
