:020000040800F2
:1028000000400020A94E0008995000089B50000885
:1028100000000000000000000000000000000000B8
:102820000000000000000000000000009D500008B3
:1028300000000000000000009F5000081150000838
:10284000254F0008254F0008254F0008254F000898
:10285000254F0008254F0008254F0008815000082B
:10286000254F0008254F0008254F0008254F000878
:10287000254F0008254F0008254F0008254F000868
:10288000254F0008254F0008254F0008254F000858
:10289000254F0008254F0008254F0008254F000848
:1028A000254F0008254F0008254F00085950000803
:1028B000254F0008254F0008254F0008254F000828
:0428C0005FF808F1C4
:1028C80002B4714649084900095C49008E4402BCBB
:1028D8007047C046002243088B4274D303098B42D9
:1028E8005FD3030A8B4244D3030B8B4228D3030CD8
:1028F8008B420DD3FF22090212BA030C8B4202D37A
:102908001212090265D0030B8B4219D300E0090AA1
:10291800C30B8B4201D3CB03C01A5241830B8B42AA
:1029280001D38B03C01A5241430B8B4201D34B0393
:10293800C01A5241030B8B4201D30B03C01A5241F8
:10294800C30A8B4201D3CB02C01A5241830A8B427D
:1029580001D38B02C01A5241430A8B4201D34B0266
:10296800C01A5241030A8B4201D30B02C01A5241CA
:10297800CDD2C3098B4201D3CB01C01A524183097E
:102988008B4201D38B01C01A524143098B4201D3B8
:102998004B01C01A524103098B4201D30B01C01AE3
:1029A8005241C3088B4201D3CB00C01A524183085D
:1029B8008B4201D38B00C01A524143088B4201D38A
:1029C8004B00C01A5241411A00D2014652411046EA
:1029D8007047FFE701B5002000F0FCF802BDC046D3
:1029E8000029F7D003B5FFF775FF0EBC4243891ADB
:1029F8001847C04603460B437FD4002243088B4246
:102A080074D303098B425FD3030A8B4244D3030B6D
:102A18008B4228D3030C8B420DD3FF22090212BA32
:102A2800030C8B4202D31212090265D0030B8B42AE
:102A380019D300E0090AC30B8B4201D3CB03C01A98
:102A48005241830B8B4201D38B03C01A5241430B73
:102A58008B4201D34B03C01A5241030B8B4201D363
:102A68000B03C01A5241C30A8B4201D3CB02C01ACE
:102A78005241830A8B4201D38B02C01A5241430A46
:102A88008B4201D34B02C01A5241030A8B4201D335
:102A98000B02C01A5241CDD2C3098B4201D3CB01DC
:102AA800C01A524183098B4201D38B01C01A52418B
:102AB80043098B4201D34B01C01A524103098B428F
:102AC80001D30B01C01A5241C3088B4201D3CB007A
:102AD800C01A524183088B4201D38B00C01A52415D
:102AE80043088B4201D34B00C01A5241411A00D20D
:102AF80001465241104670475DE0CA0F00D0494276
:102B0800031000D34042534000229C4603098B42E5
:102B18002DD3030A8B4212D3FC22890112BA030A6D
:102B28008B420CD3890192118B4208D389019211EF
:102B38008B4204D389013AD0921100E08909C30974
:102B48008B4201D3CB01C01A524183098B4201D376
:102B58008B01C01A524143098B4201D34B01C01A61
:102B6800524103098B4201D30B01C01A5241C308D9
:102B78008B4201D3CB00C01A524183088B4201D348
:102B88008B00C01A5241D9D243088B4201D34B0063
:102B9800C01A5241411A00D20146634652415B10A5
:102BA800104601D34042002B00D549427047634686
:102BB8005B1000D3404201B5002000F00BF802BDC5
:102BC8000029F8D003B5FFF715FF0EBC4243891A58
:102BD8001847C0467047C0468446101C62468C465B
:102BE800191C634600E0C0461FB500F097FE002898
:102BF80001D40021C8421FBD10B500F0DBFD4042E2
:102C0800013010BD10B500F089FE002801DB00205E
:102C180010BD012010BDC04610B500F07FFE002891
:102C280001DD002010BD012010BDC04610B500F028
:102C380005FE002801DC002010BD012010BDC046A3
:102C480010B500F0FBFD002801DA002010BD0120BE
:102C580010BDC0468446081C6146FFE71FB500F05A
:102C6800C5F8002801D40021C8421FBD10B500F0E6
:102C780049F84042013010BD10B500F0B7F80028FF
:102C880001DB002010BD012010BDC04610B500F0CA
:102C9800ADF8002801DD002010BD012010BDC046A0
:102CA80010B500F059F8002801DC002010BD012003
:102CB80010BDC04610B500F04FF8002801DA00201A
:102CC80010BD012010BDC04638B500220C4B041CB5
:102CD8000D1CFFF7B5FF002804D1201C291C01F0AA
:102CE80097FC38BD064B0022201C291C01F016F960
:102CF80001F08EFC80231B069C466044F1E7C04629
:102D08000000E041430270B542004C005D0AC30F69
:102D18004802120E460A240EC90FFF2A05D0FF2CBE
:102D280008D00120A2420BD070BD0120002DFBD19C
:102D3800FF2CF6D10120002EF6D10120A242F3D1BA
:102D4800B542F1D18B4205D0002AEDD1281C431E93
:102D58009841E9E70020E7E7F0B543024D024A0051
:102D680044005E0A240EC30F6D0A120EC90FFF2C11
:102D78000DD0FF2A31D0002C0DD177427741002A9F
:102D880023D1002D21D10020002F0BD107E0002EE8
:102D980028D1FF2A21D0002A05D08B4207D05842DB
:102DA80001231843F0BD002DF9D08B42F7D194428E
:102DB800F5DC04DBAE42F2D80020AE42F2D2584233
:102DC800434101205B421843ECE7002FE5D048421D
:102DD8004141012049420843E4E7002D02D1002C7B
:102DE800CBD0DAE702204042DCE7C0464302F0B528
:102DF80042004C005E0AC30F4802120E450A240E18
:102E0800C90FFF2A0FD0FF2C1AD0002A10D1774201
:102E18007741002C29D0002F17D04842414101208A
:102E2800494208430BE00220002E08D1FF2C07D0AE
:102E3800002C0AD1002D08D1584201231843F0BDB7
:102E48000220002DFBD1002AE1D08B42F4D1A2420E
:102E5800F2DC04DBAE42EFD80020AE42EFD258429B
:102E6800434101205B421843E9E7002DD3D10020FC
:102E7800002FE4D1E0E7C046F0B55F4656464D4620
:102E88004446F0B445024600C40F83B00F1C6D0AD7
:102E9800360EA34645D0FF2E25D080231B041D43A4
:102EA80000239A46ED007F3E01937B025B0A984619
:102EB8007800FB0F000E994640D0FF2838D08023B9
:102EC80042461B041343DB00984600237F384A46DA
:102ED800019F30186240411C1F430F2F69D87D4E57
:102EE800BF00F659B746002D45D108230193063B8C
:102EF8009A46DAE793465346022B2FD15B460124C4
:102F080000251C40FF236D02DB056D0AE4071D4305
:102F18002543281C03B03CBC90469946A246AB46C4
:102F2800F0BD002D2CD104230193033B9A46BCE746
:102F380043465A4253410322D31AC8E74246012363
:102F4800002AC4D0404601F0EDFB4246431F9A4098
:102F580076235B42181A90460023B8E7032B00D16A
:102F6800ADE0012B00D08CE05B4654461C40E4B237
:102F780000230025C7E70C230193093B9A4694E7F1
:102F8800281C01F0CFFB7626431F9D400023764284
:102F9800361A01939A4688E780250024ED03FF231B
:102FA800B1E74546CB469A46A5E7454693469A4635
:102FB800A1E743462C041B0C9C46230C44462604DC
:102FC8001C1C360C2F0C7443351C66467D4373431A
:102FD8007743EB18260C9E19B54203D980235B0270
:102FE8009C46674424043304240C1B199D016C1E61
:102FF800A5419B0E360C2B43BD19AD011D432B017A
:1030080004D5012368081D400543081C031C7F33B1
:10301800002B2CDD690704D00F212940042900D09A
:103028000435290103D52C4B1D40031C8033FE2B8E
:1030380017DD0124FF231440002564E78020C00326
:10304800054209D04346034206D1454605436D0271
:103058006D0A4C46FF2356E705436D026D0AFF23B0
:1030680051E70124AD016D0ADBB214404BE77E2322
:103078005B421B1A1B2B07DD01240023144000258B
:1030880041E7081C5A46C1E79E30291C8540D940B3
:10309800681E85410D436B0704D00F232B40042B7A
:1030A80000D004356B0104D5012401231440002508
:1030B80029E70124AD016D0A1440002323E780238A
:1030C800DB031D4301245B466D0223401C1C6D0A73
:1030D800FF2318E7549E0008FFFFFFF770B5041E92
:1030E80039D0C50F00D04442201C01F01BFB9E23A1
:1030F800261C1B1A962B07DC082801DD083884409B
:103108006402640AD8B21EE0992B0ADD0522211C4C
:10311800121AD1400A1C011C1B318E40711E8E41AF
:103128001643052801DD421F96400F4C34407207B4
:1031380004D00F221640042E00D0043462010ED4AD
:10314800A401640AD8B26402C005640AED07044306
:103158002C43201C70BD002500200024F3E7024BFF
:103168001C409F231B1AEBE7FFFFFFFBF0B55F46F0
:1031780056464D464446F0B40F0387B098464D0076
:103188003B0BCC0F061C924681469B466D0D019465
:103198006BD0664B9D4235D080275B467F031F432B
:1031A800F3009946624BFF00400F9C4607430023FB
:1031B800BB46002665440093424617035000D20FD1
:1031C80053463F0B400D904600D172E0574A90425B
:1031D80067D080235B031F435346554A5B0FFF00AC
:1031E8001F43944653460021DB0060444246624038
:1031F80092462D1A0E430F2E00D9A1E04D48B60075
:10320800805987465B461E4300D076E000239B46E4
:103218009946023308260093CEE799464346BB46B3
:1032280001930091009B022B6BD1019B9A460021D0
:1032380053460122002789461A403C4B00213F0390
:103248000C0D24053F0B27433B4C1B0527401F4310
:103258007F00D2077F0817434846391C07B03CBC9B
:1032680090469946A246AB46F0BD03433ED05B4626
:10327800002B00D19CE1584601F054FA2823311C58
:103288001B1A021C5F46D940083A97400B1C96400F
:103298003B439B46B1460023284D00262D1A009338
:1032A8008AE7524603213A43A0D10027002302218E
:1032B8009CE752463A4315D0002F00D185E1381CCF
:1032C80001F030FA021C28215046891A131CC84004
:1032D8005146083B99409F400B1C07431748002163
:1032E800801A83E70027002301217FE700239B46FC
:1032F80099460133042600935EE703230C260093C6
:103308005AE7032B00D13CE2012B00D0BFE11A1C85
:10331800019B1A4000210023002789468EE70023DD
:103328008027994600223F03004B87E7FF070000EC
:1033380001FCFFFF949E0008FFFF0F800DFCFFFFBC
:10334800BB4500D951E100D14CE14A460392002225
:103358005C469046013D180E3F0238431B0201931C
:10336800030C994603041B0C4946061C201C1F1C11
:103378000093FFF7AFFA021C7A4302904946201CDB
:10338800171CFFF72DFB039B09041B0C19438F42E5
:103398000CD9029B8919013B8E4200D952E18F4218
:1033A80000D84FE1029B8919023B0293CC1B201CD9
:1033B8004946FFF78FFA009F834647434946201C3A
:1033C800FFF70EFB039A0B041404240C23439F42BB
:1033D8000DD95A469B19013A9E4200D930E19F42C5
:1033E80000D82DE10222524294469B19E344029AE6
:1033F800DB1B17045A463A439346019C170C220CD0
:10340800101C04925A4611042204120C141C090CB4
:103418007C4305924A43414347436118100C0918FD
:103428008C4203D980204002844667440C0C120465
:103438000804120C3C198118A34200D2E5E000D11F
:10344800DFE01F1B43465C1AA04592415242BF1A57
:10345800B74200D10EE1381C4946FFF73BFA009B02
:10346800029043434946381C9846FFF7B9FA230CA3
:103478000F041F43B8450CD9029BBF19013BBE423C
:1034880000D9FBE0B84500D8F8E0029BBF19023B21
:1034980002934346FF1A4946381CFFF71BFA009B64
:1034A800039043434946381C9846FFF799FA240489
:1034B8000904240C214388450CD9039B8919013B35
:1034C8008E4200D9DCE0884500D8D9E0039B8919F1
:1034D800023B03934346C91A029B039A1B04059CAB
:1034E8001A43100C13049146221C049F1B0C5A43C8
:1034F80044437B437843E318170CDB199C4203D9F8
:1035080080246402A44660441C0C12041B04120CA0
:1035180000199B18814200D296E000D1FCE04A468F
:1035280001231A4391469B4BEB18002B00DC99E0D2
:103538004A4652070AD00F2249460A40042A05D0B3
:103548000431494592418946524293445A46D20130
:1035580006D55A46904B1A4080239346DB00EB1859
:103568008E4A934200DD62E64A465946D208490728
:1035780011435A4689465702514601225B053F0BC3
:103588005B0D0A405AE680205A460003024208D0E2
:10359800074206D107433F0399463F0B4246804BFB
:1035A8004CE65F4607433F033F0B221C7C4B45E636
:1035B80001F0B8F8031C2030272800DC5EE6083B41
:1035C8009E400023B346994665E6504601F0AAF8A6
:1035D800021C2032272A00DC75E657460838874047
:1035E80000237BE6994500D2AFE65A46594654086F
:1035F8004A46C8075208024303924A46D2079046F1
:10360800A9E60027884500D31CE7019F5A46BC4617
:10361800E044B845BF417F42BF19FF18013ABE4296
:1036280006D2BC425FD800D19FE03F1B934609E712
:10363800B742FAD1019B4345F3D9371B934601E7BB
:103648009346D4E60293B1E64A468919013A8E4276
:1036580018D99146814200D061E7019A9A4200D078
:103668005DE760E74F4F7F1B382F13DD012253467C
:103678001A404FE601235B42994654E7029308E754
:10368800039327E788423CD874D0914647E7019BCB
:103698009A4648E71F2F44DC434B4A469C465B4604
:1036A8006544FA40AB4013434A46AA40151C6A1EBB
:1036B80095415A46FA402B43171C5A0709D00F2246
:1036C8001A40042A05D01A1D9A429B415B42FF18F2
:1036D800131C3A023ED55346012200211A40002706
:1036E80001238946AAE502235B429C46019AE344EA
:1036F8009446E04490459B415B429B19DF193F1B70
:10370800A0E6019F4A467C00BC42BF417F42BF19E8
:10371800023AC91901949CE7002B95D10022019225
:103728009BE75A46214B5B1BDA40202F27D0204BC2
:103738009C465B466544AB4049460B43591E8B414A
:103748001343072200271A4007D00F2200271A40E8
:10375800042AB8D17A077F023F0BDB081343994646
:10376800012253461A40002368E54145BBD89346D9
:10377800002767E6019C9C42C3D391466DE700236E
:10378800DAE780275B463F031F433F033F0B019A5D
:10379800034B53E5FF030000FFFFFFFEFE07000099
:1037A800FF07000002FCFFFF1E040000E2FBFFFF12
:1037B8003E040000F0B55F464D4644465646F0B418
:1037C8001F035C00DB0F99461B4B0E034D00C90F0E
:1037D8008446360B6D0D8B4690463F0B640D9D421B
:1037E8000CD0154B9C4210D00123A54214D0181CB4
:1037F8003CBC90469946A246AB46F0BD311C01231D
:103808000143F4D10C4B9C42EED13A430123002AE8
:10381800EDD10123A542EAD1BE42E8D1C445E6D1A3
:10382800CB4506D0002DE2D13043031C581E8341FE
:10383800DDE70023DBE7C046FF070000F0B5574689
:1038480045464E46E0B40F034E00C90F8A4632493A
:103858001D035C0084463F0B760D90462D0B640DCE
:10386800DB0F8E420FD08C4239D0002E10D1384356
:10387800414241418946002C27D12A4325D10020C5
:1038880000290ED108E0391C01432ED1B44226D0BC
:10389800002C0BD09A450DD05346594201231943A9
:1038A800081C1CBC90469946A246F0BD2A43F3D09A
:1038B8009A45F1D1A642EFDC1ADA50464142484116
:1038C800012341421943081CEBE74A46002AE1D08C
:1038D80058425841012241421143081CE1E7291C82
:1038E800114302D1002EC2D0D4E702204042D8E7CB
:1038F800AF42D1D809D00020AF42D2D2504641427F
:103908004841012340421843CBE7C445C4D80020AE
:10391800C445F3D3C5E7C046FF070000F0B55F46CE
:103928004D46444656468046F0B4061C0803000B34
:1039380084462C484C001F035D00C90F640D8B465C
:1039480091463F0B6D0DDB0F844212D0854225D086
:10395800002C14D161460E4370424641002D35D0EB
:10396800002E21D058425841012143420B43181CD4
:103978000EE06146022031430AD1A5420ED0002D47
:1039880012D13A4310D15B46594201231943081C0E
:103998003CBC90469946A246AB46F0BD391C022075
:1039A8001143F5D1002CD5D09B45ECD1AC42EADCD3
:1039B80005DBBC45E7D80FD00020BC45E8D2584607
:1039C80041424841414201200843E1E73A43C7D117
:1039D8000020002EDCD1D6E7C845D4D80020C84541
:1039E800EDD3D5E7FF070000F0B55F4656464D46D4
:1039F8004446F0B4051C061C080387B099464F00DE
:103A0800030BCC0F92469B467F0D019467D06C4BFD
:103A18009F4236D080205B4640031843C0006B0F9E
:103A28001843684B83469C4600239846EE0067443B
:103A380000934B4649461D03C90F5B0052462D0BA8
:103A48005B0D894600D16EE05D498B4264D08020D1
:103A58005C4940038C4600210543ED00500F0543A7
:103A6800D20063444846FF187B1C9A46009B60407E
:103A780002900B430F2B00D9ACE053489B00C3586E
:103A88009F465B461D4300D082E008230093002335
:103A98009B46023300269846CBE7029B0193434698
:103AA800022B59D1012400250026019B1C40444BC0
:103AB80000212D030A0D12052D0B1543434A1B0542
:103AC80015401D436D00E4076D082543301C291C73
:103AD80007B03CBC90469946A246AB46F0BD2B4386
:103AE8004ED05B46002B00D185E1584600F01AFE07
:103AF800021C2823291C9B1A161C5846D940083E2C
:103B0800B0400B1CB54003439B462E1C0023304F8E
:103B18000093BF1A98468CE7514629432ED10025B9
:103B2800002202219EE75146294323D0002D00D1CF
:103B380054E1281C00F0F6FD031C28215046C91A40
:103B48001A1CC8405146083A914095400A1C054342
:103B58001F480021C31A85E7032B00D1C2E1012BBE
:103B680000D06DE14446019B00251C40E4B20023CF
:103B780000269DE700250022012173E7032171E754
:103B88000423009300239B4601330026984650E700
:103B98000C230093093B98464BE7802500242D030E
:103BA8000026074B84E74B46AB46161C0193884614
:103BB80075E7029BAB46161C019388466FE7C04623
:103BC800FF07000001FCFFFFD49E0008FFFF0F80E5
:103BD8000DFCFFFF330C3604360C9C46331C140CCA
:103BE8001204120C5343984663465343994663465E
:103BF80063430193331C41466343090C4B445B18F0
:103C0800994505D98020400281460199494401918E
:103C1800190C039141460904090C1B045B18049311
:103C28002B0C9846331C2D04290C4B4360460093FB
:103C38004346654658435E43009B4D431B0C9946DB
:103C4800AE194E448446B54203D980235B02994697
:103C5800CC44350C2B1C0398634484460593009B85
:103C680036041B041B0CF3189C446046039058460A
:103C78000504060C280C84465043351C81466046D2
:103C8800654344434846000C8346724314195C4418
:103C9800A24203D98022520293465D44220CAD18F9
:103CA8004A461204120C24044046A41862464A43A9
:103CB8007143464360460096464670438046100C62
:103CC80084468844E044414505D9802149028C4610
:103CD800009961440091019803998446614499428E
:103CE8009B415B4299460598434684461204120C50
:103CF8001B049B1863449C46AB4683429B41404649
:103D08000A19CC44A2428941E344CC45B6415C46F9
:103D1800000C8046494276425B426418334398441B
:103D28008C428941AB459B4149425B4219430D1C7A
:103D3800009B4544EE187602E50D2E43B346049BDE
:103D480056021E43731E9E415B46D20D32436602E5
:103D58001643DB010AD50123334076081E435B4630
:103D6800DB071E435B465B089B465746634BFB18C5
:103D7800002B5ADD720709D00F223240042A05D0E1
:103D8800321DB242B6417642B344161C5A46D2019D
:103D980006D55A465A4B1A4080239346DB00FB1837
:103DA800584A934234DD0124029B00251C4000261A
:103DB800554B7DE680205B460003034208D0054250
:103DC80006D105432D032D0B4C46161C4E4B6FE6B2
:103DD8005D4605432D032D0B4B4B69E6504600F01D
:103DE800A1FC031C2033272B00DCA6E65546083827
:103DF80085400022ACE6281C00F094FC021C20320E
:103E0800272A00DC75E6083885400026AB467DE6A3
:103E18005A46F608520716435A4601245502029A92
:103E28005B052D0B5B0D144042E6384DED1B382D1C
:103E38000ADD0124029B00251C400026002337E6EA
:103E4800019B5746029391E71F2D25DC304B321C0E
:103E58009C466744BE405B46BB40371CEA407E1E1A
:103E6800B74113433B431E1C5B46EB401D1C7307C5
:103E780009D00F233340042B05D0331DB342B6417C
:103E88007642AD191E1C2B0220D50124029B002569
:103E98001C40002601230BE65A461E4BDB1BDA406A
:103EA800131C202D1CD01C4A94465A466744BA401D
:103EB800171C3E43721E96411E43072300253340BC
:103EC80007D00F2300253340042BD6D16B076D0292
:103ED8002D0B0124F6081E43029B1C400023E7E536
:103EE8000027E6E780255B4601242D031D43019B3F
:103EF8002D0323401C1C2D0B034BD9E5FF030000A9
:103F0800FFFFFFFEFE070000FF07000002FCFFFFA7
:103F18001E040000E2FBFFFF3E040000F0B54D4622
:103F280044465F465646F0B40E1C111C3203520A32
:103F3800470F1743C5001A035800DB0F9946520A6A
:103F48004B0F83B01A43CB000193CF4B7400F60F8D
:103F5800640DB046400D984200D1E8E0012349467F
:103F680059400B1C9E4200D1B1E0261A002E00DCFD
:103F78001CE1002842D1131C01990B4300D0E6E054
:103F88006B0700D18EE00F232B40042B00D189E072
:103F98002A1DAA42AD418023012641466D427F1960
:103FA8001B043B400E40151C002B00D183E0B64B90
:103FB80001349C4200D116E13A1CB44BED081A407A
:103FC8005007640552020543120B640D00211203C9
:103FD8000B0D1B056405120B1A436308AC4CF6075E
:103FE80014401C43640064083443281C211C03B09B
:103FF8003CBC90469946A246AB46F0BDA24B9C42BB
:10400800BED080231B041A43382E00DD03E11F2E87
:1040180000DD3FE12020831B9946131C49468B4055
:104028009C46019B6046F34003430198F240884058
:10403800011C481E81410B43EB1A9D4280411D1C07
:10404800BA1A4042171A3B0200D4A8E07A02560A6C
:10405800002E00D1CAE0301C00F064FB031C083BB2
:104068001F2B00DDCBE02822291C121AD1409E40CC
:104078000A1C9D4032439C4200DDC8E01C1B671CA3
:104088001F2F00DDEDE01F23291C1C1B131CA5405E
:10409800A340F9406C1EA541FA4019430D43171C73
:1040A80000246DE78023012642461B043B4016404E
:1040B800002B00D07BE7744BED0878070543FA081E
:1040C8009C423BD012036405120B640D7EE7231A51
:1040D8009A46002B00DCA5E0002844D06A488442B8
:1040E80000D14DE78020000402435346382B00DC02
:1040F8001CE1019B1A43511E8A41D1B20022491981
:10410800A94280410D1CD219404217183B0246D5DE
:104118005D4B01349C4200D169E101205B4A6B0888
:104128003A4028401843D5070543570828E7131C89
:1041380001990B4300D111E74B4613E72B1C13439E
:1041480051D080231B031A431203120B3EE7013E92
:10415800002E00D080E0691A8D429B41BA1A5B425A
:10416800D71A0D1C6FE7101C019B184300D107E7F5
:1041780001235B429C46E2445346002B00D002E1F7
:10418800019BD2195919A9429B415B42D7180D1CB2
:10419800BCE76346034300D128E1071C65466B076B
:1041A80000D0F0E6012643461E4084E7002E00D0EA
:1041B80081E0601C4005400D012800DC07E1019901
:1041C800681A84466545B641B81A7642861B30029D
:1041D80000D4A1E08C464D1BAC458941D21B494215
:1041E800561A984634E700220025EFE6281C00F00E
:1041F80099FA2030031C083B1F2B00DC33E7021C14
:10420800283A95402A1C00259C4200DC36E71F4FBF
:10421800E41A1740B4E6019B1A43511E8A41D3B2EF
:10422800002209E7002B00D001E1601C43055B0D6B
:10423800012B00DCB0E0144B984200D11EE1019B39
:10424800D2195919A9429B415B42D2184908D5078E
:104258000D435708041C93E60B4B9C4200D0D3E651
:104268008EE6211C131C1F39CB40191C202F00D1AE
:104278008EE03F231C1BA24015436A1E9541002770
:104288000D4300248BE7C046FF070000FFFF7FFFB8
:10429800FFFF0F80331C101C203BD840202E79D004
:1042A80040239B1B9A40131C019A1343591E8B41B0
:1042B80000220343C0E6002C53D0C74CA04200D1D3
:1042C800B0E08024714289462404274349463829AE
:1042D80000DDCDE01F2900DD59E120243E1C611AD4
:1042E8008E408A46B04649462E1CCE405146B446BA
:1042F8008D4064464646494626436C1EA541CF403C
:1043080035430199D71B8C464D1BAC45924152420F
:10431800BF1A041C984696E663466546334300D0A8
:1043280096E60026002700240025C4E61F2B61DC42
:104338002020C31A9B46131C59468B405146994668
:10434800019BCB409C464B46604603439C465B46DC
:10435800019999406346481E814119435346DA4002
:10436800CDE63C1C2C435DD0F1438946002955D14C
:104378000199D21B8C464D1BAC4589414942571ABD
:10438800041C98465FE69448844200D0ADE6F7E501
:10439800002271E7002387E73B1C2B43002C00D049
:1043A800DAE0002B00D113E1131C01990B4300D173
:1043B800E6E54919A9429B41D2195B42D7183B024D
:1043C80000D421E1854B0D1C1F40041CD8E5381C86
:1043D8002843002C40D1002800D083E0101C01990C
:1043E800084303D0171C0D1C9846C9E50026002772
:1043F800002560E65046131C2038C340181C53465D
:10440800202B00D1C1E0402351465B1A9A40019904
:1044180011434A1E91410022014370E66E4CA042AE
:1044280000D053E7171C019D041C9846A8E5002CF2
:1044380028D13C1C2C4300D18AE0DB439A46002B50
:1044480000D082E0019BD2199C4665449D42894177
:1044580049425718041C59E600285BD1101C0199E1
:10446800084300D1A4E0171C0D1C98465A4C87E558
:104478003D436F1EBD410027EDB242E7041C0027F3
:10448800002518E6544CA04262D0534680245B4273
:104498009A46240427435346382B00DD8EE01F2B11
:1044A80000DD9DE02024E31A9B463B1C59468B40C7
:1044B800514699462B1CCB409C464B4664462343A9
:1044C8009C465B469D4063466C1EA541CF401D43FC
:1044D800019BBF189C4665449D4292415242BF18B9
:1044E800041C13E6101C0199084300D148E5681A1A
:1044F800844685428041BE1A4042301A060200D4E2
:1045080047E68C464D1BAC458941D21B4942571A98
:10451800984635E5101C0199084334D08024780763
:10452800ED08FF0824032843274208D0D60826426E
:1045380005D1C90852070A43101C371C9846FF00CA
:10454800420F1743C500244C1AE5234CA042A2D1C0
:10455800171C019D041C13E5002B35D0131C019971
:104568000B4310D080247807ED08FF082403284364
:104578002742E4D0D3082342E1D1C90852070A43AD
:10458800101C1F1CDBE7144CFAE400223FE74C46E2
:104598003E1C203CE6404946341C202932D04026A7
:1045A800761AB7403D436F1EBD4100272543A8E654
:1045B80080270026FF03084C00257CE53D436F1E3D
:1045C800BD410027EDB283E7171C019D024CD7E4DB
:1045D800171C019DD4E4C046FF070000FFFF7FFFC2
:1045E80054463B1C203CE3401C1C5346202B0DD05A
:1045F800402351465B1A9F403D436F1EBD41002733
:10460800254365E70027CDE70D1CC8E50027F3E73C
:104618000B0330B5134C1A0B4B00051C5B0DC90F6F
:104628000020A34210DD104883420EDC80200F4C8E
:1046380040030243E41A1F2C0ADD0D48C31ADA406E
:10464800131C48424340581830BD0A4BC818FBE7B2
:10465800281CE040084CA44663449A40131C0343BA
:10466800EFE7C046FE0300001D040000330400000D
:1046780013040000FFFFFF7FEDFBFFFF4200120E57
:10468800511C38B5C9B243025D0AC40F012915DDB2
:10469800E02189008C466D071B0B62440021281C11
:1046A8000D0D2D052B431C4D52052B40520813436D
:1046B8005B00E4075B082343191C38BD002A15D1A9
:1046C800002D1FD0281C00F02DF80A281DDC0B2314
:1046D8002A1C1B1ADA40131C021C153295400F4A7B
:1046E8001B03121A52051B0B520DD7E7002D06D0DB
:1046F80080221B0B120313436D07094ACEE7084AB1
:104708000023CBE700220023C8E7031C0B3B9D4096
:104718002B1C0025E3E7C046FFFF0F80890300003C
:10472800FF0700001C2101231B04984201D3000C41
:1047380010391B0A984201D3000A08391B0998420C
:1047480001D30009043902A2105C40187047C04622
:104758000403020201010101000000000000000042
:1047680002780B78002A03D0013001319A42F7D041
:10477800D01A7047F0B5454657464E4694464C0009
:104788000A03C90FE0B488460E1C1903470FC50079
:10479800480A6146490F01436046520A1743C00060
:1047A8005A00640D520DDB0F8446984500D1A7E0EE
:1047B800A01A002800DC01E1002A3DD163460B4322
:1047C80000D0D4E06B0700D188E00F232B40042BE6
:1047D80000D183E02A1DAA42AD4180236D427F1992
:1047E8001B043B404646151C002B00D17CE0CC4BFB
:1047F80001349C4200D1FDE03A1CCA4BED081A4036
:104808005007640552020543120B640D0021120380
:104818000B0D1B056405120B1A436308C24CF607FF
:1048280014401C43640064083443281C211C1CBC2D
:1048380090469946A246F0BDB94B9C42C2D080230F
:104848001B041943382800DDECE01F2800DD21E1B6
:1048580020220E1C6346121A9640C3403343664614
:104868009640321C561EB24113430A1CC240EB1A32
:104878009D42B6411D1CBA1A7642971B3B0200D4D2
:1048880097E07A02560A002E00D1B6E0301CFFF7F6
:1048980049FF031C083B1F2B00DDB7E09E40371C77
:1048A80028262A1C361AF240161C9D403E439C427C
:1048B80000DDB2E01C1B621C1F2A00DDD8E01F23AC
:1048C800291C1C1B331CA540A340D1406C1EA541CC
:1048D800D64019430D43371C002473E780231B047B
:1048E8003B40464600D082E78D4BED0878070543EC
:1048F800FA089C4232D012036405120B640D85E756
:10490800A31A002B00DC94E0002A3CD0844A94428D
:1049180000D157E7802212041143382B00DC05E14F
:1049280063461943481E81410022C8B24019A84273
:104938009B41051CD2195B42D7183B0239D5784BED
:1049480001349C4200D14CE10120764A6B083A4080
:1049580028401843D5070543570833E72B1C134352
:1049680048D080231B031A431203120B4EE7013869
:10497800002878D16346EE1AB5429B417A1A5B4209
:10498800D71A351C7AE7021C0A4300D11AE7013B03
:10499800002B00D0F2E04019A8429B41CA195B42A3
:1049A800D718051CC9E7131C334300D118E1171C9D
:1049B800351C46466B0700D007E795E700287AD1F3
:1049C800621C5205520D012A00DCFBE06246AA1A5D
:1049D8009542B6419146781A7242861A320200D43C
:1049E80093E06246551BAC458041CF1B40423E1ABE
:1049F800984648E70022002508E7281CFFF792FEA2
:104A08002030031C083B1F2B00DC47E72838854073
:104A18002E1C00259C4200DC4CE7424AE41A164052
:104A2800371CCFE6634619434B1E99410022CBB28F
:104A38001DE7002B00D0F2E0601C43055B0D012B45
:104A480000DCA4E0364B984200D121E163465C19B2
:104A5800AC429B41CF195B42FA186408D50725433D
:104A68005708041CAEE62E4B9C4200D0EAE6A9E6A5
:104A7800211C331C1F39CB40191C202A00D182E08D
:104A88003F231C1BA64035436E1EB54100270D432E
:104A980000248EE7031C0E1C203BDE40202874D027
:104AA80040231B1A99400B1C62461343591E8B4125
:104AB80000223343DBE6002C50D0194CA24200D12F
:104AC800A8E08024240440422743382800DDD9E0A8
:104AD8001F2800DD39E120243E1C241AA640B046D8
:104AE8002E1CA146C640444626434C46A5406C1E93
:104AF800A541C74035436046451BCF1BAC4589419E
:104B080049427F1A141C9846B8E64B464D46334333
:104B180000D0B8E60026002700240025E4E6C046B9
:104B2800FF070000FFFF7FFFFFFF0F801F2B5BDCED
:104B38002022081CD21A9040814660469246D840EE
:104B48004A4610438146524660469040021C501E19
:104B58008241484610430A1CDA40E7E63C1C2C43D5
:104B680058D0C043002851D16046451BAC45804110
:104B7800CF1B40423F1A141C98467FE68F4A944246
:104B880000D0CAE61EE600267DE700238CE73B1C22
:104B98002B43002C00D0BDE0002B00D1F5E063468C
:104BA8000B4300D10EE663465B19AB428041CA193C
:104BB800404217183A0200D4FCE0814A1D1C1740F5
:104BC8000134FFE53A1C2A43002C51D1002A00D0B9
:104BD80085E062460A4303D00F1C65469846F1E516
:104BE8000026002700257FE6181C0A1C2038C24032
:104BF800202B00D1A7E04020C01A8140081C634642
:104C08001843411E8841104300228FE66B4CA24294
:104C180000D05AE70F1C6546141C9846D2E5002CB4
:104C28003AD1381C284371D0DB43002B18D0634895
:104C380082426BD0382B00DD9DE01F2B00DDA7E002
:104C480020203C1CC01A8440A1462C1C8246DC4013
:104C58004846044350468540681E8541DF40254349
:104C6800654465459B417F185B42FF18141C64E648
:104C7800002A19D162460A4377D00F1C6546984628
:104C88004E4C9FE53D436F1EBD410027EDB232E714
:104C9800041C0027002527E64848824236D0802099
:104CA80000045B420743C5E762460A4349D08024B3
:104CB800ED087807FA0824032843224209D0CE08D1
:104CC800264206D162464F07381CD2081043984640
:104CD800321CD200470F1743C500384C72E56246B4
:104CE8000A4300D16EE56246AE1AB5429241781A7F
:104CF8005242821A100200D455E66246551BAC4552
:104D08008041CA1B4042171A98465BE50F1C65464E
:104D1800141C57E5002B34D063460B4311D0802474
:104D2800ED087807FA08240328432242D1D0CB089B
:104D38002342CED162464F07381CD20810431A1CB2
:104D4800C7E71E4C3EE5002059E7041C3E1C203CEA
:104D5800E640341C20282BD04026301A87403D439B
:104D68006F1EBD4100272543C5E680270026FF03A7
:104D7800124C0025B8E53D436F1EBD410027EDB23A
:104D88006EE70F1C65460D4C1CE50F1C654619E5C2
:104D98001C1C381C203CE040041C202B0CD040205C
:104DA800C31A9F403D436F1EBD410027254357E767
:104DB8000027D4E71D1CFCE50027F3E7FF070000E8
:104DC800FFFF7FFF38B5041E16D0C50F00D0444240
:104DD800201CFFF7A7FC174B1B1A0A2821DC021C12
:104DE800211C153291400A1C0B21081AC4405B058E
:104DF8002403240B5B0D03E000250023002400227C
:104E08000021101C24030A0D1205240B14430A4A1E
:104E18001B0514401C436400ED0764082C43211C47
:104E280038BD0B3884405B052403240B5B0D00223E
:104E3800E6E7C0461E040000FFFF0F8010B5041E01
:104E480010D0FFF76FFC144A121A0A281ADC0B2339
:104E5800211C1B1AD94015300B03520584401B0B2B
:104E6800520D01E00022002300211B03201C1C0B13
:104E78000B0D1B052343094C1205234013435B000C
:104E8800590810BD031C0B3B9C40520523031B0B08
:104E9800520D0024E8E7C0461E040000FFFF0F8003
:104EA8001248854612480168090E124A914205D1F6
:104EB800114812490160124812490160002103E0BB
:104EC800114B5B58435004311048114B42189A4219
:104ED800F6D3104A02E00023136004320E4B9A42C4
:104EE800F9D300F01DF800F04FF8FEE7004000206D
:104EF800040000001F00000018100240010000001C
:104F0800000001400000000038C000080001002037
:104F1800200200202002002030110020FEE70000BF
:104F28008020802208B552001649800502F057FA01
:104F38000120011C01F0B4FF032002F055F862B60D
:104F480001F064FE012001F061FD002001F0C2FEC5
:104F5800002001F0C9FE802080210002490301F0F1
:104F680085FE012001F092FE192001F0C9FF0028FA
:104F7800FAD0022001F09CFE01F0A4FE0828FBD123
:104F880008BDC0460028000808B5FFF7C9FFC020C3
:104F980019491A4B1A4A4B60136A00061B021B0A6E
:104FA8000343136200238B6007330B608021136A6D
:104FB800C9051B021B0A0B43136200F08FFE00F0A9
:104FC800F7FF00F01FFB00F067FF00F0BDFF802136
:104FD8000C48090100F010FB00F018FA642000F0FA
:104FE80068F800F057FE00F04BFE00F093F900F06F
:104FF800A5F901F053F8FAE710E000E03F1F0000C0
:1050080000ED00E00020000838B500F05FF80E4D14
:105018000E4C2B680521581C236828600133236037
:10502800FDF7CEFD002901D100F028FB28681921E1
:10503800FDF7C6FD002906D1FA2322685B009A42D3
:1050480001D900F067F938BD2002002024020020B1
:1050580008B50748074902F07DF9002806D004483A
:1050680001F032F80248034902F091F908BDC04640
:105078000038014004010400802008B5C00101F097
:10508800B5FC002803D08020C00101F0B9FC08BDA0
:10509800FEE7FEE7FEE7FEE7052382B00190019AEE
:1050A80053430193019B5A1E0192002BFAD102B07F
:1050B800704707B50190019B5A1E0192002B04D03E
:1050C800FA208000FFF7E8FFF5E707BD034B1A68F1
:1050D800002A02D01A68013A1A607047A40C00200E
:1050E800084B1A68002A01D1074A1A6069461A68EB
:1050F8001018884202D81860101C01E001204042B4
:105108007047C0462802002030110020012040428C
:10511800704780239B0100204B6070470120704737
:10512800002070470020704770B50E1C151C0C1C21
:10513800A31B9BB2AB420BDA2178064802F0E0F8D9
:105148000448402102F000F90028F9D00134EFE7C3
:10515800281C70BD0038014070B5061C0D1C9AB0A3
:105168000AAC29490522684602F039F90021402293
:10517800201C02F03DF9201C311C2A1C02F032FFD1
:10518800201C02F028FF0138235C0A2B02D10023DF
:105198002354F8E70D2BFAD0201C694602F036FF9D
:1051A8000024002808D0A20002ABD0506946002095
:1051B800013402F02BFFF4E7002C22D0029D1349A2
:1051C800281C02F0DDFE002805D1012C03D110486F
:1051D80002F070FE15E0281C0E4902F0D1FE051EF3
:1051E8000FD1012C0DD10C4802F064FE281C01F0EF
:1051F800FBFEBFF34F8F094A094BDA60BFF34F8FAD
:10520800FEE71AB070BDC046359F0008149F00081D
:10521800199F0008269F00082D9F00080400FA0522
:1052280000ED00E038B5074D074C2B78002B06D071
:105238000020211C082200F061F900232B70201C9B
:1052480038BDC046000100202C02002013B50822FA
:105258000020694600F052F9084C6846211C0822D3
:1052680002F0AEF8002807D008220020211C00F028
:10527800AFF90122024B1A7013BDC0462C02002060
:105288000001002030B57F2812D81F2910D8072424
:10529800CB08A3402140063C064D1B188C40002A31
:1052A80003D0E95C0C43EC5402E0EA5CA243EA5404
:1052B80030BDC046A4020020014B024AD05C7047B2
:1052C80002030000A4020020014B024AD054704798
:1052D80002030000A402002070B58CB001A90A1CCA
:1052E8000B4B70CB70C270CB70C270CB70C230CB1E
:1052F80030C20A2803DCC343DB17184000E00A2049
:1053080083008020C958C00501F006FF0CB070BDAD
:10531800089E00080121024B024AD1547047C0463A
:1053280001030000A4020020802208B502480021E1
:10533800920002F05DF808BDA4020020F0B52E4BE3
:105348002E4C97B0E25C0593002A52D0FFF76AFF13
:1053580080794000FFF7C0FF294BE75C002F04D09D
:10536800012F3ED100F0AAFA3BE000F0CFFB254B1D
:1053780006AD1A1C9C46291C03902C3249CA49C107
:10538800634612683C330A600AAA43CB43C21B68CF
:105398001360FFF7C9FF1C4800F0D0FF039B0520EE
:1053A8009E007359039300F093FB049000F0A8FB50
:1053B800182204AB9B18051C9859FDF78FFE011C99
:1053C800281CFDF759FDFFF759F9049A009001913F
:1053D80003990EA802F0B2FD381C10210EAA01F0A4
:1053E800B9F98021201C890000F009FF0023059AE3
:1053F800A35417B0F0BDC04601030000A40200206A
:1054080002030000089E000864BD00081FB50120C3
:1054180000F0FAFC184B68460093184B0193184BA0
:105428000293184B039300F003FFAA2000F0CCFE70
:10543800154C202315498022201C00F045FF201C14
:1054480000F076FF002000F0BFFF002000F0CEFF44
:10545800002000F0D3FF0E4800F070FF00200D4A36
:10546800011C01F077F900F08BF901210A4B0B4A76
:10547800D154FFF763FF1FBDE95D0008FD5D00081B
:10548800115E0008415E0008340200208D520008B9
:1054980050BD00083A9F000801030000A402002044
:1054A8000020074B9A881B68904205D2C1580131E9
:1054B80004D0043080B2F7E7012040427047C0466C
:1054C800A805002010B5041CFFF7EAFF421C094B91
:1054D800012A01D8988804381B68C018C21A07D452
:1054E800021F9188A14201D1408802E0101CF5E713
:1054F800014810BDA8050020FFFF0000F8B50123F2
:1055080098430E1C071C0C1C1340D518B81B2B1BEA
:105518002018F31880B2002B04DDFFF7D3FF20809A
:105528000234F3E7F8BD000071B5134CFFB0A28850
:10553800002092086946FFF7E1FF01F071FA206840
:1055480001F0AAFA0025A3889B089D4210DA236877
:105558006E00A9B2F01801F0BBFA6A462368981CDD
:105568006B105B008019D15A01F0B2FA0235EAE7F4
:1055780001F066FA7FB071BDA8050020F8B5134D9B
:10558800AB889B08013B83421FDD0E1C071CFFF7FD
:1055980087FF041C431C04D1FFF7C6FFFFF780FFF9
:1055A800041C381CFFF78EFFB0420ED001F038FA09
:1055B8002B68391CE01801F08BFA2868311C02307E
:1055C800001901F085FA01F03BFAF8BDA8050020A2
:1055D800F8B50123071C0E1C0C1C1340D518B81B6A
:1055E8002B1B2018F31880B2002B04DD2188FFF74D
:1055F800C5FF0234F3E7F8BD014B18609980704786
:10560800A80500207047000010B5041CFFF754FEE1
:1056180000280FD1022C05D0042C07D0012C27D14B
:10562800144800E0144800F091FA21E00120FFF747
:105638004BFE1DE001281BD1601E032818D8FDF77A
:105648003FF902120414002010E000F0C9F9002804
:1056580007D0FFF769FE0020FFF736FE00F090F84C
:1056680006E0022002E0012000E0032000F0C0F97B
:1056780010BDC046112700001227000070B5002495
:105688009020174D66007359C0055B007351154B88
:10569800E15A01F073FA2A1C002803D10123A95901
:1056A8000B43AB510234082CEAD10F23116819407F
:1056B8000C290DD0516819400C290BD0916819405C
:1056C8000C2909D0D26813400C2B08D1022004E021
:1056D800042002E0012000E00320FFF795FF70BDE1
:1056E800B0050020749F000838B5051C0024084A3E
:1056F800E300D318281C1969FFF732F8002805D0F1
:105708000134402CF3D10120404200E0201C38BD78
:10571800C0050020F0B585B00092184A03931568BB
:105728006B1CDB00D31818715971009802F053FCF8
:10573800041E182C00DD1824601C01F02DFE6B1CC3
:105748000E4F0193DB00FB189860A21C0021061C79
:10575800029301F04DFE002E0BD0221C301C009944
:1057680002F040FC6A46029B9289DA80019B3B600A
:1057780001E001256D42281C05B0F0BDC0050020E0
:1057880070B50024414B1A68944206DAE2009B186F
:10579800186901F00BFE0134F4E70024FE2502200D
:1057A8001C605D609C6000F093F9231C021C0121C1
:1057B800281CFFF7AFFF364EB060032000F088F9D1
:1057C800231C021C0121281CFFF7A4FFF060022003
:1057D80000F07EF9FFF788FF051C211C2D4AC9231C
:1057E800FFF798FF211C281C2B4ACA23FFF792FFBA
:1057F800211C281C294ACB23FFF78CFF211C284A8F
:10580800CC23281CFFF786FF032000F061F9FFF77F
:105818006BFF051C211C231C224AFFF77BFF211C60
:10582800281C214A0123FFF775FF211C281C1F4A49
:105838000223FFF76FFF211C281C1D4A0323FFF7D3
:1058480069FF211C281C1B4A0423FFF763FF211C46
:10585800194A0523281CFFF75DFF042000F038F9DA
:10586800FFF742FF051C082000F032F9211C021C3A
:105878000823281CFFF74EFF092000F029F9211CF6
:10588800021C0923281CFFF745FF70BDC005002036
:10589800040100207C9F0008829F00088D9F00085B
:1058A800979F0008A29F0008A49F0008A69F0008D1
:1058B800A89F0008AA9F0008809F0008F0B5404CE8
:1058C8008FB063683F4D0193019A2B68A6683E4FDD
:1058D8009A4202D13B689E4201D0FFF725FD3B4822
:1058E80000F02CFD019B3E602B6000250C340395D5
:1058F8000295334B029A1B689A425FDA2378019A21
:10590800934256D162681378002B52D0022E48DC9D
:105918002F4908A802F012FBFFF784FC0021071C9E
:105928000C2205A801F064FD6378002B24D1294AD4
:10593800237811688B4202D162883B6813E0516872
:105948008B4201D13B790DE091688B4201D17B7983
:1059580008E0D1688B4201D1BB7903E01269934218
:105968000AD1FB7962889B1A59425941CBB2002B64
:1059780002D008A8184901E0184908A802F01EFB3F
:10598800AE4202D13E2208AB1A700B21694301399D
:1059980009B2002008AA013500F0DCFE022D08DD5E
:1059A8000CE0039B0133022B02DD039B033E023B09
:1059B8000393029B0834013302939AE70FB0F0BDBA
:1059C800C00500201C0100201801002050BD00085F
:1059D800AC9F000804010020B09F0008B59F000894
:1059E800024B5868FE38434258417047C0050020B2
:1059F800F8B50025291C344B5A689C68CE009E19BE
:105A0800367B964202D1AC4204D00135013140299F
:105A1800F4D14139032855D8FCF752FF09021D2556
:105A28008321181C89005E180C3000210CE0621ECE
:105A3800002C20DC46E00578954204D145682D7895
:105A48006F1EBD4149190830B042F4D10139621CBA
:105A58008C4210DB36E0FE2A0CD00132D2009A18B4
:105A680012795A6006E04C1CE4001C196279002A7D
:105A780003D0596000229A6024E0FFF7D3FB134A51
:105A8800237911688B4202D1E388036016E05168DC
:105A98008B4202D1E388037110E091688B4202D1F6
:105AA800E38843710AE0D1688B4202D1E3888371AD
:105AB80004E01269934201D1E388C371FFF7C6FB82
:105AC800FFF732FCF8BDC046C005002004010020E5
:105AD80010B5041CFFF7A6FBC379082B07D1064CA9
:105AE8000021201C202201F083FC201C03E00A3442
:105AF800024BA400E05810BDCC0700202001002074
:105B0800014B18687047C046EC070020014B5868E5
:105B18007047C046EC0700200B4B00B558600328BF
:105B280010D890230121DB050222FCF7C9FE0907E2
:105B38000402198500E099611A8503E0198500E0DF
:105B480099619A6100BDC046EC070020F7B5051CB5
:105B5800FFF768FB40793F4CC93803280FD8FCF79A
:105B6800AFFE02060A0E3C4BA36003230AE03B4B40
:105B7800A3600B2306E03A4BA360052302E0394BF0
:105B8800A3600A23E360384B9D4225D12368374A36
:105B98000093E368A66801939B189B0000989959A5
:105BA800FDF788F8002809D06068032850D0013034
:105BB800FFF7B2FFA3681B68236036E0051C019B52
:105BC8009D4232DAAB00F7580099381CFDF768F8A7
:105BD80000281DD10135F2E7254B9D4225D12368C8
:105BE800A668181C31680093FDF750F800280CD0FF
:105BF800606800282CD0E3681C4A01389B189B0079
:105C08009B592360FFF788FF0FE0E3685D1E0AE0F9
:105C180027600AE0AB00F7580099381CFDF72CF80C
:105C28000028F5D1013D002DF4DA2068FEF726FDA5
:105C3800104A114BFDF79AFA0022104BFDF7D4FEDB
:105C4800FDF742F8802182B20901002000F0EEFD44
:105C5800F7BDC046EC07002018A10008ECA000081A
:105C6800D8A0000824A1000811270000FFFFFF3F6B
:105C7800122700006666666666660A400000B04045
:105C8800002208B5024B00201A60FFF745FF08BD47
:105C9800EC0700201FB5802000240121800501F0B9
:105CA8000BF9684600F0ACFD201C6946019403948A
:105CB800009400F08FFD6946102000F08BFD201C39
:105CC800012100F0A3FD1020012100F09FFD201C00
:105CD800211C221C00F0AAFD1FBD0000F7B5802082
:105CE8000121000301F0D0F880200121C00201F059
:105CF800CBF880200121800201F0C6F8C0230024DF
:105D0800022700936B4603266A461F719C71012384
:105D1800324D6946281CD371567100F0F3FE281CD9
:105D2800221C062100F030FF281C221C072100F04D
:105D38002BFF9E231B0200936B4690206A461C7122
:105D480001236946C005D37100F0DCFE07236A46CB
:105D5800281C00936946063B567113719471D471DF
:105D680000F0D0FEA0231B0200936B46281C694656
:105D78001F715E719C7100F0C5FE281C221C0D214C
:105D880000F002FF281C221C0F2100F0FDFE8023DA
:105D98001B0100936B46281C69461F719C71DC71BE
:105DA80000F0B0FE3A1C281C0B2100F0EDFE302359
:105DB800902000936B466946C0051E715C7100F027
:105DC800A1FE90206A460123C0056946009613711A
:105DD8009471D471547100F095FEF7BD0004004829
:105DE800034B0122002801D09A6100E01A85704710
:105DF80000040048034B0222002801D09A6100E009
:105E08001A85704700040048034B0422002801D07B
:105E18009A6100E01A8570470004004808B501221D
:105E2800044B002801D09A6100E01A850A20FFF788
:105E380033F908BD0004004870B5154C051C0E1C4C
:105E4800201C002100F0A2FD80226660E560236826
:105E5800201C13430121236000F098FD0D48022106
:105E6800012201F0B2F88020800200F0A3FD002892
:105E7800F9D08020800200F0ADFD0648012101F034
:105E8800ADF8002803D0034801F09CF8F5E770BD91
:105E98005800024000380040802070B5012190B0C1
:105EA800C00101F009F80120FFF7B8FF684601F0CA
:105EB8003DF86A46204B0024138082235B00538000
:105EC800E023DB0093800223D38080239B0053814F
:105ED80001250723194E6946301C158113829481C8
:105EE800D48101F031F88021301C490101F060F8BB
:105EF800301C291C01F052F8291C281C104D00F0F8
:105F0800C3FF281C00F09EFC05A800F031FD0D4BD6
:105F1800281C059380230A93C0239B010E9310230A
:105F280005A909940B940C940D940F94079300F011
:105F380001FD10B070BDC04600C0FFFF0038004032
:105F4800580002400C380040012030B5011C89B0CF
:105F580000F0B2FF8024154B6A4601930023E40544
:105F68006946201C13801381538001F047F8702381
:105F7800012503A90B800C3B8B60201C623B8B81A5
:105F88004D8001F097F8201C082101F0C7F8201C6B
:105F9800291C01F06FF8201C291C01F074F8201C42
:105FA800291C01F079F809B030BDC046E7030000AC
:105FB800802070B5C00192B0012100F071FF01206E
:105FC800011C00F061FF01256B466A465D709D70FB
:105FD8001B232A4E6846137000F0E8FD301C00F0C1
:105FE80031FC274B00240793264B301C0893902341
:105FF800DB000A9380230C93C02307A99B0110930D
:1060080009940B940D940E940F94119400F092FC43
:10601800301C1D4E291C00F0B9FC301C01F088F81A
:1060280001A801F04BF90C230593184B301C01A96A
:106038000193029403940494069401F0E3F8301C4D
:106048002A1C134901F069F9301C2A1C114901F076
:1060580064F9301C2A1C104901F05FF92A1C301C15
:10606800402101F051F9301C291C01F03BF9301C8A
:10607800291C01F02EF912B070BDC0463000024054
:1060880024380140A80C00200038014020A1070056
:10609800040104000003030000030100912238B545
:1060A800074CD200A35C151C002B08D0012B04D18F
:1060B800044B201CE158FFF74FF80023635538BD07
:1060C800FC07002084040000244BF7B5071E9F42FC
:1060D80002D1234E234D01E00026351C0021281C47
:1060E80000F054FC281CFB69BB8C00F05FFC90217D
:1060F8000190C900281C00F057FC91231A4CDB00C2
:10610800E35C002B1ED19022311CD200201C01F030
:1061180066F99023019ADB009B1A144A9BB2A3509C
:106128009023201CDB0012490222E75001F048F9B5
:10613800002802D023783F2B04D1912301210A4A59
:10614800DB00D1549022301CD200002101F050F91C
:10615800281C012100F01AFCF7BDC0460038014098
:10616800A80C002030000240FC0700208404000036
:106178004CA1000837B56B46084CDD1DD871636823
:1061880000209847236800209847281C0121E368CD
:10619800984723680120984737BDC046880C0020DF
:1061A80070B50D1C061C074C0120636898472368CE
:1061B80000209847301C291CE36898472368012071
:1061C800984770BD880C002010B5A2B0011C84222D
:1061D80001A801F00DF9B024201CFFF7CBFF102017
:1061E800FFF7C8FF01340020FFF7C4FFE4B201A89D
:1061F8008421FFF7D5FFB82CEED122B010BD70B5C1
:10620800061C0024201C5038C0B2FFF7B3FFE5017C
:106218001020FFF7AFFF75190020FFF7ABFF01341F
:10622800281C8021FFF7BCFF082CEBD170BD0000B3
:1062380038B5244C231C26C826C3026800201A60DF
:10624800A36898473220FEF734FFA36801209847D7
:106258003220FEF72EFFE220FFF78CFF1420FEF716
:1062680028FFE220FFF786FF1420FEF722FF2C20EC
:10627800FFF780FF0520FEF71CFF2E20FFF77AFFAF
:106288000520FEF716FF2F20FFF774FF0520FEF705
:1062980010FF2020FFF76EFFC120FFF76BFF1020D3
:1062A800FFF768FFA220FFF765FFC820FFF762FF2E
:1062B800A020FFF75FFF4020FFF75CFFAF20FFF74C
:1062C80059FF38BD880C0020C380053B01608280DF
:1062D80004219BB2053AC384C38392B2031C82840F
:1062E80082830122018441840E4944331A705A7012
:1062F80001650D4900238164011C5C310363038738
:10630800C386438783870364C364036143618361EE
:1063180083650B7003660B7283660B74034B1860FE
:10632800101C7047EF8B5E00FFFFFF00980C0020E9
:10633800014B186001207047980C002010B5044BE1
:106348001B68303316C816C306C806C310BDC0463E
:10635800980C0020F0B5051C85B00C1C161C1F1CE1
:10636800824201DA151C061CA74202DA231C3C1CD7
:106378001F1C144B1B681A1C6432127892070DD527
:106388000A9A281C00921B6E211C9C46321C3B1C3E
:10639800E047002802D113E0013424B2BC420FDCEC
:1063A8000395039BB342F7DC064B03981B68211C3B
:1063B8001B680A9A9847039B01331BB20393F0E7C3
:1063C80005B0F0BD980C002007B5074B1B689A88EC
:1063D800DB8800900020013A013B12B21BB2011C7D
:1063E800FFF7B8FF07BDC046980C0020024B1B689A
:1063F800443318707047C046980C0020024B1B6845
:10640800453318707047C046980C0020F0B58BB023
:106418000691061C111C0293119CD62815D007D88A
:10642800B52818D0C42814D0B02817D1F82615E0FC
:10643800E4280CD003D8DC2810D19A260EE0F628E0
:106448000BD0FC280AD1812608E0992606E084268C
:1064580004E08E2602E0E62600E094266589B3B2C1
:10646800AB4200D266E1A2899A4200D262E1E28898
:1064780093B20093002B00D15CE1DB080193009BF1
:106488005B0702D0019B013301932369002B02D0E3
:10649800701B1B5C00938BB20493A74B1868031CFA
:1064A8006C331F7802233B4000D193E0069B049D88
:1064B8005A1E009B9A18238912B2013BEB181BB293
:1064C800856E0698A84704902379002B36D16589F4
:1064D8000821625E761B5643019F77430393082287
:1064E800A35E039A9A4200DB24E13B1C009DDA1B61
:1064F800019992B28A421CD22E1C5A1C069222681A
:10650800083ED35CB6B20593002D0ED0059B0298C9
:10651800DB0700D41098049B9847059B013D5B0856
:10652800ADB20593B542EFD100E02E1C069B351C99
:10653800DDE7039B7F1801339BB2CFE7012B00D027
:10654800F8E065890822A35E761B5E430623E55EB4
:10655800754300260822A35E9E4200DBEAE02B1C5E
:106568005A1B009992B28A422ED25A1C0192226872
:106578008021D05CFF23109F029A1B024900091A50
:106588001F401A4042434F43BF183F0A1F40FF2392
:10659800109A1A404A439446029A1A404243624467
:1065A800120A1340FF221F43109B12041340594341
:1065B800029B134058430818000A0240381C049BE9
:1065C80010439847019BCBE70622A35E0136ED18DE
:1065D800B6B2BFE72179002948D10822A35E761B0D
:1065E8005E43019B049F73430393049B0821625EEF
:1065F800FB1A9BB2934200DB9CE06B46009A1D8B12
:10660800039B0792039A01999A1A92B28A4226D258
:106618002E1C5A1C089222680836D35CB6B2059321
:10662800079B002B17D0444B059A1B6828B239B238
:106638001B68D20701D5029A00E0109A9847059B7B
:1066480001355B080593079BADB2013B9BB20793ED
:10665800B542E5D100E02E1C089B351CD2E78C46DC
:10666800039B634403937B1C9FB2BEE7012961D15E
:10667800761B0821655E12B26E4372430392019342
:106688006B469B8807936B460821625E9B88934202
:1066980050DA6B461B8B0893039B05936B46998ACC
:1066A8009B890098CA1A92B282423BD20598226806
:1066B8008026125C2048109F0068029D8446089836
:1066C8007600C01A0818079B0499B61A59180BB215
:1066D8000993FF231B021F401D40554377437F1931
:1066E8003F0A1F40FF23109D00B21D407543291C1F
:1066F800029D1D4055434D192D0A2B40FF251F4370
:10670800109B2D042B405E43029B09992B405A4352
:106718006346B218120A2A401B683A439847059BF9
:106728000133BAE70622A35E039AD3180393019BA9
:106738000133A4E70BB0F0BD980C002013B5049CFE
:106748000094034C246830340194FFF75FFE13BDB6
:10675800980C0020F0B50F1C161C051C85B0039082
:106768003078002831D01A4B81B21B6801365A8F15
:106778009142F5D39C8F8C42F2D30424195F0A28E6
:1067880001D10D1CECE71C6C002C02D0821AA45C11
:1067980001E0DC8EE4B22A19914206DC45211A8F09
:1067A8005956039D8A18D7193FB2DA6C291C0092F2
:1067B8009B6C3A1CFFF7C2FF054B1B6844331B78E0
:1067C8005BB21C192D192DB2CAE705B0F0BDC04641
:1067D800980C0020084B30B58340084D0A682C6897
:1067E8009C434B6813438A681343CA681343834026
:1067F800181C2043286030BDFE0F000000740040C4
:106808000023036043608360C3607047064A012326
:10681800002903D0834011680B4303E083401168CB
:1068280099430B1C1360704700740040082801D17D
:10683800090200E00904024B1143C01801607047C7
:106848002074004002682C4B13400360002303604F
:1068580043608360C360294B984201D1284A27E0EE
:10686800284B984201D1264A29E0274B984201D16A
:10687800234A2BE0254B984201D1214A2EE0244B94
:10688800984201D11E4A31E0224B984204D1F021AE
:106898001B4A090453682CE01F4B984204D1F0218D
:1068A800174A0905536824E01C4B984203D11C4A37
:1068B80053680F211DE01B4B984203D1184A5368B7
:1068C800F02116E0184B984204D1154AF02153687C
:1068D80009010EE0154B984204D1114AF021536882
:1068E800090206E0124B984205D10D4AF02153687F
:1068F80009030B4353607047FEFF00000800024085
:10690800000002401C0002403000024044000240E7
:10691800580002406C000240800002400804024017
:10692800000402401C0402403004024044040240B7
:106938005804024002680D4B10B51A408C680B6A67
:1069480023430C6923434C6923438C692343CC6953
:1069580023434C6A23438C6A234313430360CB6865
:1069680043600B6883604B68C36010BD0F80FFFFF6
:106978000023036043608360C360036143618361F4
:10698800C36103624362836270470000002903D039
:1069980001220368134302E00268024B13400360BC
:1069A8007047C046FEFF000041607047406880B2F3
:1069B80070470000C30001D5044B00E0044B1B687E
:1069C8000340581E8341D8B27047C04600040240B5
:1069D80000000240C30001D5024B00E0024B5860A2
:1069E8007047C0460004024000000240034B5B6948
:1069F8001840431E9841C0B27047C0460004014089
:106A0800014B58617047C046000401400121034A08
:106A180013688B43184310607047C046002002403B
:106A2800044B1A69120603D5034A5A60034A5A608E
:106A38007047C0460020024023016745AB89EFCD6F
:106A48008021024A13690B431361704700200240FA
:106A58000120074BDA68024209D1DA680018D20629
:106A680005D4D86804231840421E9041181A70476C
:106A78000020024010B5041CFFF7EAFF012807D1E7
:106A8800002C03D0FFF7E4FF013CF7E7043002E0F5
:106A9800002C00D1052010BD70B5061CB0200003E5
:106AA800FFF7E8FF042810D102254022B020074C48
:106AB800000323692B432361666123691343236120
:106AC800FFF7D8FF2369AB43236170BD0020024064
:106AD800F8B5061CB02000030F1CFFF7CBFF0428F5
:106AE8000CD10125B020064C000323692B432361F8
:106AF8003780FFF7BFFF2369AB432361F8BDC0466A
:106B080000200240F7B500220B680193012393404F
:106B1800019E1E409E422DD10C79631E012B16D872
:106B28005700BC4603276546AF408368BB43836074
:106B38004B798768AB403B4383608388B34383804A
:106B48008E798788331C93403B439BB28380032311
:106B58005600B340DB43B44007681F40076007682E
:106B68003C430460C4682340C360CB79C468B34025
:106B78002343C3600132102AC8D1F7BD008A0840F8
:106B8800411E8841C0B27047072310B50F240B403F
:106B98009B009A409C40131CC90889004018016A50
:106BA800A1430162016A0B43036210BD827870B58C
:106BB8000378002A1DD0032499082340DC00FF2312
:106BC800104A890089181A1CC025A240AD004E59E8
:106BD8009643427892011A40131CA34033434B5109
:106BE8001F230278134001229A40131C054A1360A0
:106BF80006E01F2213401E3A9A40131C024AD3672C
:106C080070BDC04600E100E004E100E00121114B45
:106C18001A680A431A6058680F4A02405A6018688E
:106C28000E4A02401A6018680D4A02401A605868F5
:106C38000C4A02400F205A60DA6A8243DA62186B03
:106C4800094A02401A635A6B8A435A6300229A60BF
:106C58007047C046001002400CB8FF08FFFFF6FE60
:106C6800FFFFFBFFFFFFC0FFACFEF0FF054B10B5B9
:106C7800054A5C6822405A605A68114308435860C4
:106C880010BDC04600100240FF7FC2FF064B00281F
:106C980004D080211A6849040A4302E01968034AAB
:106CA8000A401A607047C04600100240FFFFFFFE0E
:106CB8000321034A53688B43184350607047C0460A
:106CC80000100240024B58680C2318407047C04619
:106CD80000100240F021034A53688B431843506068
:106CE8007047C04600100240034A044B51680B40ED
:106CF800184350607047C04600100240FFF8FFFF7D
:106D0800F8B50C23594D041C68681840FBF7D8FDEA
:106D18001F1F1F1F1F1F1F1F071F1F1F1D00C0230F
:106D280068686A688002000F5B02861C1A4201D1FB
:106D38004F4807E04D4B4F48D96A0F23194001319E
:106D4800FBF7C8FD7043206004E04B4B00E0494B63
:106D58000020236021686B680A1C484E1B061B0F25
:106D6800F35CDA40131C62606A685205520FB25C29
:106D7800D340A3602A6BD20501D4414A06E03B4ABE
:106D88005268520401D45A0800E09A08E2602A6B5B
:106D9800520601D43B4A01E08022120222612A6B8A
:106DA800D20602D4334A626100E0616103222F6B8C
:106DB8002E4E174201D1A36112E0376B1740012F05
:106DC80001D1A1610CE0376B1740022F02D180225C
:106DD800120204E0366B3240032A01D1254AA2612F
:106DE800C0222F6B9202174201D1E36119E01F4EB6
:106DF800376B802617407602B74201D1E16110E077
:106E08001A4E376B80261740B602B74202D180224D
:106E1800120205E0154E366B1640964201D1154A0E
:106E2800E261C0222F6B1203104E174215D0802743
:106E3800336BFF021340BB4201D121620EE0802177
:106E4800336B090313408B4202D180231B0204E0F9
:106E5800336B1340934201D1064B23622B6B1B0605
:106E680002D4054B636200E06062F8BD0010024086
:106E780000093D0000127A00006CDC02700100205D
:106E8800809FD50012800000044B5A69002902D067
:106E98001043586101E082435A6170470010024074
:106EA800044B9A69002902D01043986101E082439B
:106EB8009A61704700100240044BDA69002902D039
:106EC8001043D86101E08243DA6170470010024044
:106ED800044BDA68002902D01043D86001E08243ED
:106EE800DA60704700100240044B1A69002902D08A
:106EF8001043186101E082431A6170470010024094
:106F08004109094A01D1136808E0012901D1136A2E
:106F180004E0022901D1536A00E0536B1F2210409C
:106F2800C340012018407047001002400023E022AF
:106F380003804380D200C380038143818381C3815E
:106F48000733828003827047C12310B504889B01F0
:106F5800CA891C400B881343CA8813430A89134300
:106F68004A8913438A891343234303808288094B40
:106F780013408A881343042283800B8A0382038880
:106F880093434A8813430380828B034B13408383C4
:106F980010BDC046FFF0FFFFFFF7FFFF4022038848
:106FA800002901D0134300E0934303807047000099
:106FB8008288034B134083808388194381807047FC
:106FC800FFEFFFFF007BC0B270478388002A02D022
:106FD8001943818001E08B43838070470089084012
:106FE800411E8841C0B270470321034A13688B438E
:106FF800184310607047C0460000014030B5038850
:10700800154C9BB2A04206D08022D205904202D0F5
:10701800124A904203D1702293434A881343104A7C
:10702800904203D00F4A0D8913402B4303804B68CD
:10703800C3620B880385A04208D00B4B984205D049
:107048000A4B984202D00A4B984201D18B7A0386A8
:107058000123838230BDC046002C0140000400405B
:1070680000100040FFFCFFFF0040014000440140C9
:107078000048014080220388002901D0134300E022
:1070880093430380704701220388002901D01343EA
:1070980000E09343038070470630002904D0802322
:1070A800C28F1B02134302E0C38F5B045B0CC387D0
:1070B80070470000028C134B70B513400384058C95
:1070C800114A83880E88848B3602144034430F4A51
:1070D8008E89154036034A8835431203ADB21543ED
:1070E800AAB20B4D9BB2A4B2A84205D1094D2B40C0
:1070F8000D8AAD012B439BB283808B688483036424
:10710800028470BDFFEFFFFFFF8CFFFFFFDFFFFF73
:10711800002C0140FFBFFFFF01647047828B034BC7
:1071280009021340194389B281837047FFF7FFFFB3
:1071380008B52C4B984207D180200121C001FFF7E8
:10714800C7FE8020C00148E0274B984207D1802025
:1071580001218002FFF7C8FE802080021FE0234B38
:10716800984207D180200121C002FFF7BDFE802090
:10717800C00214E01E4B984207D180200121000371
:10718800FFF7B2FE8020000309E01A4B98420AD1AB
:10719800802001214003FFF7A7FE80204003002143
:1071A800FFF7A2FE1CE0144B984205D120200121D4
:1071B800FFF78EFE202010E0104B984205D14020AA
:1071C8000121FFF785FE402007E00D4B984207D1CB
:1071D80080200121FFF77CFE80200021FFF778FE48
:1071E80008BDC04600380140004400400048004047
:1071F800004C0040005000400014014000180140BD
:10720800001C01400122F0B50D1C03688BB09343AC
:1072180003604268224B041C13408A68134343608E
:107228000268204B1A40CB6849680B4329690B4315
:107238001343036082681C4B13406A6913438360DD
:107248006846FFF75DFD194B069E9C4208D0184B17
:10725800079E9C4204D0174B089E9C4200D0029E79
:1072680023682F681B0400D57600391C301CFBF7F7
:1072780031FB391C051C301CFBF7B2FB00237F08CF
:10728800B9425B41ED1823681B0404D50A4B2A0751
:10729800520F1D401543ADB2A5810BB0F0BDC046DD
:1072A800FFCFFFFFF3E9FFFFFFFCFFFF00380140BE
:1072B8000044004000480040F0FF000096239B0176
:1072C80003600C220023026143608360C360436152
:1072D800704701220368002901D0134300E093435B
:1072E80003607047002904D08022436812021343C8
:1072F80002E04268014B134043607047FF7FFFFF85
:10730800C905C90D018570478368002A02D0194351
:10731800816001E08B4383607047012310B58CB214
:10732800C9B28B40240A191C022C01D1043002E096
:10733800032C00D108300368002A02D019430160E9
:1073480001E08B43036010BDC0690840411E8841BD
:10735800C0B27047012310B58AB2CCB2120AA3405A
:10736800012A01D1026804E0022A01D1426800E042
:1073780082681340C2690020834207D00123090CA8
:107388008B401A40101C411E8841C0B210BD012319
:10739800090C8B400362704708B5034B011C186841
:1073A80000F074F808BDC046E401002008B5034B9E
:1073B800011C186800F024F808BDC046E40100204C
:1073C80030B50024944208D0035D651C0C5DA342CF
:1073D80001D0181B02E02C1CF4E7002030BD00236C
:1073E80010B5934203D0CC5CC4540133F9E710BD07
:1073F800031C8218934202D019700133FAE77047D0
:1074080030B500293ED004390B68002B00DAC918C2
:107418001D4A1368141C002B02D14B60116031E027
:1074280099420DD208680A189A4203D11368C31802
:107438000B6053684B60216024E08A4203D8131C18
:107448005A68002AF9D11D685C198C420BD1096869
:10745800691858181960904214D1106852680918B0
:1074680019605A600EE08C4202D90C23036009E0CF
:1074780008680C18944203D114685268001908600F
:107488004A60596030BDC046A00C0020032370B587
:10749800CC1C9C430834051C0C2C01D20C2405E0A0
:1074A800002C03DA0C2300202B6042E08C42F9D335
:1074B800204A1368101C191C002913D00A68121BD3
:1074C8000DD40B2A02D90A608B181FE08B4202D117
:1074D8005A6802601BE04A685A600B1C17E00B1CD4
:1074E8004968E9E7144E3368002B03D1281C00F0E3
:1074F80013FD3060281C211C00F00EFD031C421CEB
:10750800D0D00322C61C964386420AD11C60181CA0
:1075180007210B301A1D8843821A0AD0514299500C
:1075280007E0311A281C00F0F7FC431CBAD0331CC2
:10753800ECE770BDA00C00209C0C0020F0B58BB0CF
:10754800141C1D1E129906DA802424062B191D1CF2
:10755800141C2D2300E000230B702023149E03220B
:107568009E43462E07D0331C453B59424B41109948
:10757800013ACB181093109B00920193139B221C85
:10758800029308AB039309AB04932B1C00F0F4FEA1
:10759800071C472E02D1119BDB072CD5109BFB182B
:1075A8000793462E14D13B78302B0CD1201C291C74
:1075B80000220023FBF720FB002804D10123109AA6
:1075C8009B1A139A1360139B079A1B68D318079387
:1075D800201C291C00220023FBF70EFB002801D0E9
:1075E800079B0993099B079A934204D25A1C099254
:1075F80030221A70F6E7381C099B159ADB1B1360BA
:107608000BB0F0BDF7B52B23071C0C1C0270861CB1
:10761800002901DA2D234C427B70092C1CDD6B46B6
:10762800DD1D201C0A21FBF7CBFA013D3031297002
:10763800201C0A21FBF7DEF9041E092CF1DC013DB0
:1076480030342C706B460733301CAB4209D92B7889
:10765800013533700136F5E73023E4183370B01C78
:107668007470C01BFEBD0000F0B593B00C1C0892EE
:107678000993189E051C01F009FE0368181C0B935A
:1076880000F0A9FC0023216810930C90277E336832
:107698000722C90501D59B1800E0073393431A1C3C
:1076A800083232601A685B68A264E364A06CE16C1B
:1076B80000F00AFC012818D1A06CE16C002200231C
:1076C800FBF7A0FA002803D0231C2D2243331A709D
:1076D800B64B0A93472F01D9B54B0A930323226867
:1076E800236101339A43226012E0A06CE16C00F040
:1076F800EBFB266800280DD1AE4B0A93472F01D922
:10770800AD4B0A930323311C236101339943216054
:10771800002680E080216068C900431C01D106234F
:1077280009E0A26CE36C672F01D0472F04D1002831
:1077380000D0C0E1012363606368314300932323D1
:1077480021600191002106AA9B1802930FAB0393B5
:1077580010AB05930497A26CE36C0691281CFFF705
:10776800EDFE20233A1C0A909A43472A07D10F9B23
:10777800DA1C02DB626893422DDD023FFFB20F99EB
:10778800652F12D8201C01393A1C50300F91FFF791
:1077980039FF109A061C83182361012A02DC22682B
:1077A800D2072ED5013323612BE0662F14D16368ED
:1077B800002908DD2161002B02D12268D2071DD5DE
:1077C8000133CB1811E0002B03D1012221681142AB
:1077D80013D09A1C11E067270F9B1098834206DB91
:1077E80022682361D20709D50133236106E001220B
:1077F800002B01DC0221CA1A8218226100260F9B85
:10780800A365232306AA9B181B78002B03D0231CEF
:107818002D2243331A70099B281C0093211C089BB6
:1078280011AA00F05FF9431C02D10120404256E141
:107838002268530504D4281C08990A9A236916E17A
:10784800652F00D8D4E0A06CE16C00220023FBF780
:10785800D3F900282BD00123281C0899574A099EE0
:10786800B047431CE1D00F9B109A934207DB236873
:10787800DB0704D423689B0700D51AE113E1099EAE
:10788800281C08990B9A0C9BB0470026431CCCD0A7
:10789800109B013B9E42EDDA221C0123281C08990B
:1078A8001A32099FB847431CBFD00136F0E70F9B37
:1078B800002B2BDC0123281C0899404A099EB0475D
:1078C800431CB2D00F9B002B05D1109B002B02D17B
:1078D8002368DB07CED5099E281C08990B9A0C9BB8
:1078E800B0470026431CA0D00F9B281C5B42089978
:1078F8009E4208DA221C01231A32099FB847431C0A
:1079080093D00136F0E70A9A109BB0E0109BA66D61
:107918009E4200DD1E1C002E01DC002314E0331CF7
:10792800281C08990A9A099FB847431CF5D17CE797
:10793800221C0123281C08991A32099FB847431CA6
:1079480000D172E70D9B01330D93F343A26DDB1752
:107958000D993340D31A9942EADB0A9B9E180F9B74
:10796800109A93420EDB2368DB070BD4109B0A9A0C
:10797800D7180F9ABF1B9B1A9F4200DD1F1C002FB0
:1079880009DC11E00C9B281C08990B9A099FB84741
:10799800431CEBD149E7321C3B1C281C0899099E63
:1079A800B047431C00D140E7002315E078BD00082C
:1079B8007CBD000880BD000884BD0008A29F0008A7
:1079C800221C0123281C08991A32099EB047431C1F
:1079D80000D12AE70A9B01330A930F9A109B9A1A3F
:1079E800FB43DB173B40D31A0A9A9A42E8DB41E78C
:1079F800109B281C0899012B02DC01231A423CD059
:107A080001230A9A099FB847431C00D10DE70C9B34
:107A1800281C08990B9A099FB847431C00D104E712
:107A2800A06CE16C00230022FBF7E6F80023002895
:107A380012D10A9A109B0132013B281C08991DE0BB
:107A4800221C0123281C08991A32099FB847431C95
:107A580000D1EAE60A9B01330A93109B0A9A013B7C
:107A68009A42EDDB221C281C331C08995032099ECF
:107A7800B047431C00D0FDE6D7E60A9A099FB847ED
:107A8800431CEFD1D1E6221C0123281C0899193286
:107A9800099FB847431C00D1C7E60136E368119A2D
:107AA8009B1A9E42EFDB119BE068984217DA181C7C
:107AB80015E00026F2E7314321600191232100906F
:107AC80006A8091802910FA9039110A90591002190
:107AD80004970691281CFFF731FD0A9047E613B07A
:107AE800F0BDC046F7B5171C01930A698B68009072
:107AF8000C1C934200DA131C221C3B6043321278A0
:107B0800002A01D001333B6023689B0602D53B68FD
:107B180002333B60062523681D401ED0231C4333D7
:107B28001B785A1E9341226892061CD53020E11812
:107B38004031C870211C5A1C45310978A2184032BE
:107B48000233D1700FE0221C0123009801991932E9
:107B5800089EB047431C0ED00135E3683A689B1A6B
:107B68009D42F0DBDAE7221C009801994332089D18
:107B7800A847431C02D10120404220E00623206888
:107B8800E1683A6803400025042B03D18D1AEB43C2
:107B9800DB171D40A3682269934201DD9B1AED188B
:107BA8000027AF420ADA221C0123009801991A32F1
:107BB800089EB047431CDED00137F2E70020FEBD27
:107BC800F0B58BB006920A1C4332079305900492D5
:107BD8000A7E0C1C109B6E2A00D1A8E011D8632ADB
:107BE80022D009D8002A00D1B2E0582A00D0C2E039
:107BF80045310A707C4A4FE0642A1DD0692A1BD09F
:107C0800B9E0732A00D1A7E009D86F2A29D0702AD1
:107C180000D0B0E0202209680A43226037E0752AC4
:107C28001FD0782A33D0A6E00E1C1A684236111DE0
:107C3800196013683370A1E021681A68080606D431
:107C4800490604D5111D19600023D55E02E0111DF7
:107C580019601568002D3BDA2D23049A6D421370C4
:107C680036E021681A68080606D4490604D515685E
:107C7800111D1960ADB202E0111D196015685A4B4B
:107C8800227E03930A276F2A1DD108271BE0221C96
:107C9800782145321170554A19680392081D2268E7
:107CA80018600D68100602D4500600D5ADB2D3078F
:107CB80002D520231A4322601027002D03D1202348
:107CC80022689A432260231C002243331A7002E080
:107CD8000A27454B03936368A360002B03DB042248
:107CE800216891432160002D02D1049E002B0ED003
:107CF800049E281C391CFAF773FE039B013E5B5C4B
:107D0800281C3370391CFAF7E5FD051EF1D1082F40
:107D180009D12368DB0706D563682269934202DC30
:107D28003023013E3370049B9B1B23612BE00968C1
:107D38001A68080607D4490605D5111D1960136885
:107D4800A28A1A8004E0111D1960136862691A601A
:107D58000023049E236116E01A68111D1960166835
:107D68000021301C626801F0EDFA002801D0801B68
:107D78006060636803E0261C423632700123236189
:107D88000023049A1370079B05980093211C069BF7
:107D980009AAFFF7A7FE431C02D10120404221E0B7
:107DA800236905980699321C079DA847431CF4D0FF
:107DB80023689B0705D4099BE068984212DA181CCF
:107DC80010E00025E368099A9B1A9D42F3DA221C09
:107DD8000123059806991932079EB047431CDCD049
:107DE8000135EFE70BB0F0BD88BD000899BD00086C
:107DF80070B5051C0E1C002804D08369002B01D126
:107E080001F0B2F9AC68A3891B0702D52369002BDE
:107E180019D1281C211C00F0B3F9002813D0012027
:107E2800404245E03178002B1BDAA269934211DA0F
:107E3800221C281C00F04CF9013042424241D0B2C9
:107E48000028ECD10136A3683278013BA360002AF0
:107E5800E8D10CE023681970236819780A2903D13E
:107E6800E6E723681970236801332360EAE7002BEB
:107E780017DAA269934208DB0A2322681370236881
:107E880019780A2911D1281C01E0281C0A21221C72
:107E980000F01EF9013042424241D0B2002806D01B
:107EA800BDE70A23226813702368013323600A2080
:107EB80070BD000008B5034B011C1868FFF798FF58
:107EC80008BDC046E401002030B50C1C0223044361
:107ED80017D080242406A14201D1002811D00A4BD2
:107EE80049004908094ACC180423944209D9084A88
:107EF800013B914205D9074A0023914201D14342EF
:107F08004341181C30BDC0460000F0FFFFFFDF7F73
:107F1800FFFF0F000000F07F38B50023064C051C5A
:107F2800081C2360FDF7DCF8431C03D12368002BF1
:107F380000D02B6038BDC0462C1100200EB410B5FF
:107F48009DB002A9029008610B48822488604861AC
:107F5800012040421FABC881084804CBA400006838
:107F680001938C8101F052FD0023029A13701DB019
:107F780010BC08BC03B01847FFFFFF7FE4010020D6
:107F8800F0B500240C4B1E68035DF21855780322E7
:107F98002A40012A00D120330A5DB5186F780325DD
:107FA8003D40012D00D120329B1A02D10134002A14
:107FB800EAD1181CF0BDC04680010020021C10B593
:107FC8001378002B01D00132FAE7CC5CD45401338A
:107FD800002CFAD110BD0023C25C0133002AFBD16A
:107FE800581E7047031C30B5002A07D00C7801339F
:107FF8005D1E013A2C700131002CF5D19A1893427C
:1080080003D0002119700133F9E730BDF8B5174BDB
:10801800071C1D680E1CAC6D002C1FD15020FFF7EB
:10802800BBF9A8658460AB6D046044601C61DC60CA
:10803800AB6D9C615C61AB6DDC629C62AB6D5C633B
:108048001C63AB6DDC639C63AB6D5C641C64AB6DE3
:10805800DC649C64AB6D1C77AB6D5C62381C311CB6
:10806800AA6D012300F004F8F8BDC046E401002021
:10807800F0B5041E0CD11468201E09D126E037780B
:10808800002F0CD00136B842F9D1002B04D02C1C9B
:10809800651C20780E1CF2E71560237015E0002897
:1080A80008D1106012E00778B74207D00130002FDE
:1080B800F9D11D1C6B1C2E78081CF4E7002E02D089
:1080C8000021297000E0331C1360201CF0BD000063
:1080D80070B5051C0E1C141C002804D08369002BE5
:1080E80001D101F041F8234B9C4201D16C6808E0B2
:1080F800214B9C4201D1AC6803E0204B9C4200D14B
:10810800EC68A369A360A3891B070AD52369002B20
:1081180007D023682269F6B2981A636998420FDB80
:1081280008E0281C211C00F02BF80028F1D00120C1
:1081380040421DE0281C211C00F0A8FF0028F6D1B1
:10814800A3680130013BA36023685A1C22601E709B
:108158006369984205D0A389301CDB0708D50A2E2D
:1081680006D1281C211C00F091FF0028DFD1301C0B
:1081780070BDC046B8BE0008D8BE0008F8BE0008EA
:10818800354B70B51D68061C0C1C002D05D0AB695D
:10819800002B02D1281C00F0E7FF304B9C4201D194
:1081A8006C6808E02E4B9C4201D1AC6803E02D4B73
:1081B8009C4200D1EC68A3899AB2110723D4D10656
:1081C80007D409220120326037321343A381404289
:1081D80040E0530713D5616B002908D0231C4433B2
:1081E800994202D0301CFFF70BF900236363242265
:1081F800A3899343A3810023636023692360082232
:10820800A3891343A3812369002B0BD1A023A2893F
:108218009B00134080229200934203D0301C211C03
:1082280001F038F80123A289134005D00023A36088
:1082380063695B42A36103E0910700D46369A360AB
:1082480000202369834205D1130603D540231A432E
:10825800A281013870BDC046E4010020B8BE000804
:10826800D8BE0008F8BE0008F0B503690C6989B0EB
:108278000026A3427CDB0B1C013C1433A5000393AE
:108288005B190493031C143301935D19049B079134
:108298001B680290591C28680593FAF71BFB071EF8
:1082A800B74235D0039B01989C460596634604CB9C
:1082B80091B27943120C7A4371180E0C9C46B3188C
:1082C800069302881E0C059B89B2D2180368521ABD
