:020000040800F2
:100000000040002051010008A1010008A1010008E2
:10001000A10100085D090008A1010008000000001E
:10002000000000000000000000000000A101000826
:10003000A101000800000000A1010008410900081A
:10004000A1010008A1010008A1010008A101000808
:10005000A1010008A1010008A1010008A1010008F8
:10006000A1010008A1010008A1010008A1010008E8
:10007000A1010008A1010008A1010008A1010008D8
:10008000A1010008A101000800000000A101000872
:10009000A1010008A1010008A1010008A1010008B8
:1000A000A1010008A1010008A1010008A1010008A8
:1000B000A101000800000000A101000800000000EC
:1000C000A101000800000000A1010008A101000832
:1000D000A101000800000000000000000000000076
:1000E0000000000000000000A10100080000000066
:1000F0000000000000000000000000000000000000
:10010000A10100080000000000000000A10100089B
:1001100000000000000000000000000000000000DF
:1001200000000000000000000000000000000000CF
:1001300000000000000000000000000000000000BF
:10014000000000000000000000000000A101000805
:10015000DFF834D0002103E00C4B5B5843500431EE
:100160000B480C4B42189A42F6D30B4A02E000238C
:1001700042F8043B094B9A42F9D300F07DFB00F0B2
:10018000ABFE00F0ADFBFEE7004000203414000899
:10019000000000203404002034040020E80800207F
:1001A000FEE70000F0B54FF6FE7485B00E46044041
:1001B000F6B1102E37460F48A8BF1027214600F091
:1001C000B1FD204669463A4600F0AEF900251DF81B
:1001D00005100948013500F0A5FDBD42F7D1ADB2CB
:1001E0002C440A20751B00F09BFCA4B2AEB2DFE7E2
:1001F00005B0F0BD201100082A1100082DE9F043D8
:10020000984BABB00246186800907F2998889B797C
:10021000ADF804008DF8063000F3208100238B42F6
:100220000AA803DAD45CC4540133F8E70B46002271
:10023000C2540133802BFAD18B4B1D680246131A2E
:100240008B420CDA12F8013BEC18647814F00304CA
:10025000F5D0022C08BF203B02F8013CEFE76946CD
:1002600000F084FE002504464CB102AB002043F8A8
:100270002540694600F07AFE01350446F4E7002D7A
:1002800000F0EC8000F022FA029E784905463046E4
:1002900000F04AFE20B9764B186800F05BFCDAE00B
:1002A0003046744900F040FE002855D1039D724944
:1002B000284600F039FE30B900F09EF901466F483B
:1002C00000F030FDC7E028466D4900F02DFE68B90A
:1002D00021461022049800F017FF214605460A2205
:1002E000059800F011FF81B2A8B208E028466549E0
:1002F00000F01AFE30B900F07FF901462046FFF702
:1003000051FFA8E02846604900F00EFE10B900F049
:100310007FF98AE028465D4900F006FE002840F09B
:100320009A8021461022049800F0EEFE214685B204
:100330001022059800F0E8FEE907044603D554486A
:1003400000F0F0FC8AE000F057F98542F7D8284623
:10035000A1B200F001F968E03046494900F0E4FD3F
:1003600078BB21461022039800F0CEFE21460746B6
:100370000A22049800F0C8FE0546002D6BDDB84641
:10038000002658F8049B042D2B46A8BF04239E4248
:1003900014DA220703D13F48394600F0C3FCF300CA
:1003A00029FA03F13C48C9B2013400F0BBFC230731
:1003B00002D10A2000F0B4FB0136E4E7043D4746D1
:1003C000DBE73046354900F0AFFDB8B96988AA8847
:1003D0003348012300F0A6FC298832484B1E4FF415
:1003E000806293FBF2F22B6901329B0A00F09AFCC7
:1003F0002D48A968EA6800F095FC2CE030462B49AE
:1004000000F092FD50B9E868296900F021F908B1BF
:10041000274800E0274800F085FC1CE030462649CC
:1004200000F082FD18B900F073F92448F3E7304674
:10043000234900F079FD70B9204800F073FCBFF348
:100440004F8F2049204BCA6802F4E0621343CB600F
:10045000BFF34F8FFEE70A2000F062FB2BB0BDE830
:10046000F08300BF3B120008040000203011000898
:1004700000000020351100083C110008441100085C
:100480004E110008531100085B1100086B110008A1
:1004900071110008801100082A1100088A11000853
:1004A00092110008B9110008E011000808120008B4
:1004B0000E1200081A1200082A120008641100081F
:1004C0003412000800ED00E00400FA05074B9A889A
:1004D0001B680020904205D2C158013104D004307D
:1004E00080B2F7E74FF0FF30704700BF34040020C0
:1004F00010B50446FFF7EAFF431C012B094B98BFD8
:1005000098881B6898BF0438002808DBC15AA142AC
:1005100000EB030201D1508810BD0438F4E74FF618
:10052000FF7010BD34040020F8B515464FF6FE7775
:10053000D3070E4607EA000748BF01350C462B1BC0
:10054000B81B33442044002B80B204DDFFF7D0FFFA
:1005500024F8020BF3E7F8BD2DE9F043254CA688FB
:10056000B608731E8342C1B080460F463EDDFFF7DA
:10057000ADFF431C054625D1002069463246FFF7F2
:10058000D3FF00F0DDFB206800F01AFC0025A388F3
:10059000184EB5EB930F10DA30684FEA4509A9B24F
:1005A000484400F047FC30686B10023048443DF886
:1005B000131000F03FFC0235E9E700F0D3FBFFF732
:1005C00085FF05464046FFF793FFB8420ED000F086
:1005D000B7FB20684146284400F02CFC206802301C
:1005E0003946284400F026FC00F0BCFB41B0BDE8D1
:1005F000F08300BF34040020014B988880087047C6
:1006000034040020014B18609980704734040020A6
:1006100008B500F095FB044B186800F0D1FBBDE86D
:10062000084000F09FBB00BF34040020074BDA688D
:100630001B691344013B9342184603D313F8011975
:10064000FF29F8D0C2F10102104470473C04002099
:10065000021F0B1F9B1A0344002B05DD52F8043FB9
:100660000133F6D000207047012070471149124A2B
:10067000124B0868124910B5124C13441B1B124A46
:10068000091B9BB2890A13805080918003F100639B
:10069000C3F309015C1C09B12346F9E7936080B2FA
:1006A00003F58063D360C3EB802303F10063136120
:1006B00010BD00BFE0F7FF1F341400083404002011
:1006C00000400020000000203C040020004870474B
:1006D0003C04002072B6054BDA68054B516819607E
:1006E000126882F308881B68184700BF3C0400208A
:1006F000E0080020044B0548DB681B68184000F147
:1007000060435842584170473C0400200000FE2FCF
:1007100070B50E4D2E6900F013FB042000F02AFB8B
:10072000EC68EB6833449C420BD220464FF4806166
:10073000FFF78EFF10B9204600F042FB04F58064FD
:10074000EFE7BDE8704000F00DBB00BF3C040020A7
:10075000012937B5034640F38B800246014400244B
:1007600012F8010B04448A42E4B2F9D1002C7FD183
:100770001A78832A23D00AD8802A12D0822A77D1E5
:10078000FFF754FF02AB43F8080D184613E0C12AE7
:1007900033D0D02A67D0C02A6AD1FFF7B9FF2046EC
:1007A0005EE0344B02A81B6940F8083D03E002A854
:1007B000DB4340F8043D042100F0A6F958E0FFF7C0
:1007C00035FF2C4B0090DC684FF0FF332246111BA5
:1007D0008142ECDA12F8011B4B40082103F00105BD
:1007E0005B083DB183F06D4383F4380383F4034326
:1007F00083F020030139F1D1E9E7D3F8020000903A
:10080000586801901B48019AC56800992A448CB227
:10081000AA420094019204D30069144428448442FB
:1008200001D9FF201CE00A43920701D0FD2017E008
:1008300003F1080400F084FA042000F09BFA009D04
:100840005DB1019854F8041B00F0DAFA009B043BF8
:100850000093019B04330193F1E700F083FA2846EB
:1008600000F098F804E0204600F094F8FFF732FF1B
:1008700003B030BD3C040020144B01221A60183B29
:100880001A6842F001021A601A6811499207FBD5F2
:10089000104A002313609362D3620A6822F08672C2
:1008A00022F480320A604A6B22F001024A63D1F8D6
:1008B000C02022F48032C1F8C020074A136042F8F9
:1008C000C43C064B4FF000629A607047181002401B
:1008D0000010024004100240CC10024000ED00E085
:1008E00008B5FFF7C9FF114B114A5A60114AF021B0
:1008F00082F8231000229A6007221A60FFF7B6FEE2
:1009000000F056F8FFF7E2FE4FF480618068FFF7D1
:1009100079FE094B4FF4E0221A6000F0A1F8074B72
:100920001B68002BF9D0FFF7D5FEF6E710E000E0DA
:10093000FF117A0000ED00E024ED00E050040020FB
:1009400008B5FFF7D7FE28B100F084F810B1024BCC
:1009500001221A6008BD00BF50040020094C08B5F0
:10096000A36A9B0503D5A16B074800F0DBF9BFF331
:100970004F8FE268054B02F4E0621343E360BFF37C
:100980004F8FFEE700ED00E0171300080400FA05A2
:1009900070470000044B1A681106FBD5034A10602B
:1009A0001A685206FCD570471C38014028380140AF
:1009B000204A136843F4804310B5136052F8043C96
:1009C0001D4C43F4802342F8043C1C4B1A6822F06F
:1009D00070621A601A681A601A6822F070421A600F
:1009E0001A681A60164A136843F420431360D368E8
:1009F00043F4A043D360536843F006035360936805
:100A000043F480539360204600F02EFA0C232360B9
:100A10000C4B00221A6010229A60236843F00103F5
:100A20002360094B0122C3F88424084B084A1A604A
:100A300010BD00BF181002400038014020040048DB
:100A4000000400480438014054040020E408002059
:100A500095090008014BD3F8840470475404002022
:100A600038B5254D2B68980611D5244AD2F8803424
:100A7000B3F5906FBFBF22490968D1540133B8BFA5
:100A8000C2F880341F4A136843F0200313602B68B8
:100A9000D9061FD5194C228842F223339A4205D138
:100AA0002046D4F88014FFF7A9FB08E094F9003041
:100AB000002B07DA2046D4F88014FFF749FE002304
:100AC000C4F884340F4A0023C4F88034136843F018
:100AD000100313602B681A0741BF0A4A136843F0DA
:100AE000080313602B689B0741BF064A136843F055
:100AF0000203136038BD00BF1C38014054040020BD
:100B0000243801402038014038B504464518AC422D
:100B100004D014F8010BFFF73DFFF8E738BD0000E3
:100B20000A2810B5044602D10D20FFF7F9FF074A45
:100B300013681BB1591C1C70116010BD044B1B685D
:100B40001BB12046BDE81040184710BDDC0800204E
:100B5000E408002010B5441E14F8010F10B1FFF78F
:100B6000DFFFF9E710BD2DE9F04F034685B00D46D4
:100B70001878002800F0D380252801D05E1C6EE094
:100B80005878302804D1DE1C98784FF0010809E02D
:100B90002D280DBF98789E1C4FF00008DE1C08BF62
:100BA0004FF002080027A0F13003092B07D80A23D1
:100BB00003FB0700A0F1300716F8010BF3E73346FB
:100BC00000F0DF024C2A02BF187848F00408013612
:100BD000002800F0A480602886BFA0F12003DBB2CB
:100BE00003464F2B12D006D8432B31D0442B3CD098
:100BF000422B38D033E0552B37D0582B2DD0532BE8
:100C00002DD1D5F800902C1D4B4601E008212DE098
:100C1000C9EB030513F8012B002AF9D118F0020FD4
:100C200009D1BD4205F1010A04D22020FFF778FF67
:100C30005546F3E755464846FFF78CFFBD4202D3C1
:100C40002546334694E72020FFF76AFF0135F5E794
:100C500028782C1DFFF764FFF2E7102106E0FFF76C
:100C60005FFF2C46ECE7022100E00A21442B2A68B2
:100C700005F1040404D1002ABCBF524248F0080820
:100C80004FF00009B2FBF1F501FB152EBEF1090F83
:100C90005FFA8EF32A4607D978280CBF4FF0270E4B
:100CA0004FF0070E7344DBB209F101090DEB090E99
:100CB00030330EF8013C15B1B9F1100FE2D118F044
:100CC000080F1FBF04AB4B442D2209F1010918BFC7
:100CD00003F8102C18F0010F14BF4FF0300B4FF039
:100CE000200B4D4618F0020F09D1BD4205F1010A53
:100CF00004D25846FFF714FF5546F3E7554609F16D
:100D0000FF391DF80900FFF70BFFB9F1000FF6D10D
:100D1000BD4295D22020FFF703FF0135F8E705B06B
:100D2000BDE8F08F0FB407B504A951F8040B019189
:100D3000FFF719FF03B05DF804EB04B07047000043
:100D4000054B1B681B0641BF044A054B1A6002F1A4
:100D5000883248BF1A60704710200240230167455F
:100D600004200240024A136843F080031360704776
:100D700010200240014B1860704700BF0C20024059
:100D8000084B1A68D10709D41A68D20608D41B6820
:100D900013F0040F0CBF00200220704701207047A1
:100DA000032070470C20024010B50446FFF7E8FF0F
:100DB000012804F1FF3402D1002CF7D1042010BD2A
:100DC00038B505464FF47020FFF7EEFF90B90A4C96
:100DD000236843F002032360084B1D60236843F03F
:100DE000400323604FF47020FFF7DEFF236823F0F9
:100DF0000203236038BD00BF1020024014200240CF
:100E000070B505464FF470200E46FFF7CDFF68B968
:100E1000074C236843F0010323604FF470202E60D9
:100E2000FFF7C2FF236823F00103236070BD00BFFA
:100E30001020024070B505464FF470200E46FFF7B3
:100E4000B3FF68B9074C236843F0010323604FF4F4
:100E500070202E80FFF7A8FF236823F00103236092
:100E600070BD00BF1020024008B50C4B98420AD05C
:100E700003F57443984210D140F20E3000F010F8A0
:100E800040F20E3005E040F2114000F009F840F267
:100E90001140BDE8084000F010B808BD0044004013
:100EA000830903F1804303F5043300F01F00196840
:100EB000012282400A431A607047830903F180438C
:100EC00003F5043300F01F0019680122824021EA73
:100ED00002021A607047000070B50F4E0F4D761B6E
:100EE000B61018BF002405D0013455F8043B9847CC
:100EF000A642F9D10A4E0B4D761BFFF749FDB610FD
:100F000018BF002406D0013455F8043B9847A64288
:100F1000F9D170BD70BD00BF34140008341400084E
:100F200034140008341400080F4B30B41D6802E07C
:100F3000D21A16D1ABB110F8014B2B1922465B78AF
:100F400003F00303012B11F8013B08BF04F1200259
:100F5000EC18647804F00304012CE9D12033D21A90
:100F6000E9D0104630BC704704000020024B1A68DC
:100F700001235C3200F002B830040020F0B420B34A
:100F800007460D4617F8016B01E0A64216D015F88A
:100F9000014B002CF9D1EEB13E460C4616F8015B30
:100FA00000E073B114F8013BAB42FAD15DB100230C
:100FB0003B70166006463046F0BC704763B1384659
:100FC000DEE73746E8E72E46F3E710680028D7D17A
:100FD0000646F0E71660EEE7176006460370EAE79C
:100FE0002DE9F04F464C0F46D4F800E000E02746CC
:100FF0003C4614F8015B0EEB0506767806F0080611
:1010000006F0FF08002EF2D12D2D51D02B2D04BF5C
:101010007D78BC1C5BB1102B5BD04FF0FF39B9FB66
:10102000F3F903FB09FB6FEA0B0B9A4607E0302D3F
:1010300043D00A23DFF8CC909A464FF0050B0027E7
:10104000BC460CE0303DAB4219DD7E1C05D0CC45E2
:1010500024D821D00AFB0C5C012714F8015B0EEBAD
:101060000506767816F0040FECD116F0030606D0CC
:10107000012E0CBF37265726AD1BAB42E5DC002FF7
:1010800011DBC8F100008CEA000040444AB107B10E
:10109000611E1160BDE8F08F5D45DBDD4FF0FF376D
:1010A000DBE7BDE8F08F222303604FF0FF30EDE770
:1010B000BC1C7D784FF00108ACE7237803F0DF0318
:1010C000582B13D008239A464FF0070B6FF0604956
:1010D000B5E7302D05D04FF00F0B6FF070499A46F1
:1010E000ADE7267806F0DF06582EF4D14FF0100A4F
:1010F000657853464FF00F0B02346FF070499EE74E
:10110000040000209999991930B4044C0D461346F7
:1011100001462A46206830BCFFF762BF3004002039
:1011200030782530336C582020002530325820008C
:1011300048454C5000454550524F4D00474554538B
:10114000495A450025752042797465730A00524555
:1011500041440052454144414C4C004552415345A5
:10116000414C4C00446F6E652E0A0057524954455D
:1011700000496E76616C69642061646472210A00C2
:1011800030782530386C58202000535953494E464A
:101190004F00464C4153482F5352414D2F50414729
:1011A000452053697A65733A2025754B422F257582
:1011B0004B422F25754B420A00426F6F746C6F6172
:1011C0006465722F4150502053697A65733A20202C
:1011D0002575422825754B42292F25754B420A005B
:1011E000454550524F4D2F4150502042617365206C
:1011F000616464723A202030782530386C582F3082
:10120000782530386C780A00454D505459004150CB
:101210005020656D7074792E0A00415050204E4F59
:101220005420656D7074792E0A0045524153455F14
:10123000414C4C005245424F4F5400233F202C0D4F
:101240000A0020656D7074793A20656D707479209C
:10125000636865636B2061707020617265612E0A3E
:101260002065726173655F616C6C3A2065726173B1
:1012700065206170702E0A20656570726F6D3A206E
:10128000656570726F6D205B726561647C777269F1
:1012900074657C72656164616C6C7C657261736598
:1012A000616C6C5D20454550524F4D206F70732E20
:1012B0000A207265626F6F743A207265626F6F7494
:1012C0002073797374656D2E0A20726561643A200B
:1012D0007265616420666C6173682F7372616D2F33
:1012E0007065726970682E0A2068656C703A2073A8
:1012F000686F772068656C702E0A20737973696E49
:10130000666F3A2073686F772073797374656D2008
:10131000696E666F2E0A0052656164206572726F95
:10132000722040202530386C780A000000202020F0
:101330002020202020202828282828202020202085
:101340002020202020202020202020202088101055
:1013500010101010101010101010101010040404B1
:10136000040404040404041010101010101041416F
:10137000414141410101010101010101010101015D
:101380000101010101010101101010101010424271
:10139000424242420202020202020202020202022D
:1013A00002020202020202021010101020000000CD
:1013B000000000000000000000000000000000002D
:1013C000000000000000000000000000000000001D
:1013D000000000000000000000000000000000000D
:1013E00000000000000000000000000000000000FD
:1013F00000000000000000000000000000000000ED
:1014000000000000000000000000000000000000DC
:1014100000000000000000000000000000000000CC
:1014200000000000000000000000000000000000BC
:041430004300000075
:10143400421200082C13000800000000F4020020EF
:101444005C030020C4030020000000000000000032
:101454000000000000000000000000000000000088
:10146400000000000000000000000000301400082C
:101474000000000000000000000000000000000068
:101484000000000000000000000000000000000058
:101494000000000000000000000000000000000048
:1014A4000000000000000000000000000000000038
:1014B4000000000000000000000000000000000028
:1014C4000000000000000000000000000000000018
:1014D4000000000000000000000000000000000008
:1014E40001000000000000000E33CDAB34126DE6A5
:1014F400ECDE05000B00000000000000000000000E
:1015040000000000000000000000000000000000D7
:1015140000000000000000000000000000000000C7
:1015240000000000000000000000000000000000B7
:1015340000000000000000000000000000000000A7
:041864000800002058
:04000005080001519D
:00000001FF
